{
  "contractName": "ERC20Metadata",
  "abi": [
    {
      "inputs": [
        {
          "name": "tokenURI_",
          "type": "string"
        }
      ],
      "payable": false,
      "stateMutability": "nonpayable",
      "type": "constructor"
    },
    {
      "constant": true,
      "inputs": [],
      "name": "tokenURI",
      "outputs": [
        {
          "name": "",
          "type": "string"
        }
      ],
      "payable": false,
      "stateMutability": "view",
      "type": "function"
    }
  ],
  "bytecode": "0x608060405234801561001057600080fd5b506040516103163803806103168339810180604052602081101561003357600080fd5b81019080805164010000000081111561004b57600080fd5b8281019050602081018481111561006157600080fd5b815185600182028301116401000000008211171561007e57600080fd5b505092919050505061009e816100a4640100000000026401000000009004565b50610163565b80600090805190602001906100ba9291906100be565b5050565b828054600181600116156101000203166002900490600052602060002090601f016020900481019282601f106100ff57805160ff191683800117855561012d565b8280016001018555821561012d579182015b8281111561012c578251825591602001919060010190610111565b5b50905061013a919061013e565b5090565b61016091905b8082111561015c576000816000905550600101610144565b5090565b90565b6101a4806101726000396000f3fe608060405260043610610041576000357c0100000000000000000000000000000000000000000000000000000000900463ffffffff1680633c130d9014610046575b600080fd5b34801561005257600080fd5b5061005b6100d6565b6040518080602001828103825283818151815260200191508051906020019080838360005b8381101561009b578082015181840152602081019050610080565b50505050905090810190601f1680156100c85780820380516001836020036101000a031916815260200191505b509250505060405180910390f35b606060008054600181600116156101000203166002900480601f01602080910402602001604051908101604052809291908181526020018280546001816001161561010002031660029004801561016e5780601f106101435761010080835404028352916020019161016e565b820191906000526020600020905b81548152906001019060200180831161015157829003601f168201915b505050505090509056fea165627a7a72305820b2db31d4b0fe58282263a3cc3ca5c0c7668ef06b59997febcbd22eba97653e500029",
  "source": "pragma solidity ^0.5.0;\n\nimport \"../../token/ERC20/IERC20.sol\";\n\n/**\n * @title ERC-1047 Token Metadata\n * @dev See https://eips.ethereum.org/EIPS/eip-1046\n * @dev tokenURI must respond with a URI that implements https://eips.ethereum.org/EIPS/eip-1047\n */\ncontract ERC20Metadata {\n    string private _tokenURI;\n\n    constructor (string memory tokenURI_) public {\n        _setTokenURI(tokenURI_);\n    }\n\n    function tokenURI() external view returns (string memory) {\n        return _tokenURI;\n    }\n\n    function _setTokenURI(string memory tokenURI_) internal {\n        _tokenURI = tokenURI_;\n    }\n}\n",
  "sourcePath": "/Users/kohshiba/Desktop/Deed/ERCX/contracts/drafts/ERC1046/ERC20Metadata.sol",
  "compiler": {
    "name": "solc",
    "version": "0.5.0+commit.1d4f565a.Emscripten.clang"
  },
  "schemaVersion": "3.0.1",
  "updatedAt": "2019-10-07T12:27:58.955Z",
  "devdoc": {
    "details": "See https://eips.ethereum.org/EIPS/eip-1046tokenURI must respond with a URI that implements https://eips.ethereum.org/EIPS/eip-1047",
    "methods": {},
    "title": "ERC-1047 Token Metadata"
  },
  "userdoc": {
    "methods": {}
  }
}