{
  "contractName": "ERCXEnumerable",
  "abi": [
    {
      "constant": true,
      "inputs": [
        {
          "name": "owner",
          "type": "address"
        },
        {
          "name": "layer",
          "type": "uint256"
        }
      ],
      "name": "balanceOf",
      "outputs": [
        {
          "name": "",
          "type": "uint256"
        }
      ],
      "payable": false,
      "stateMutability": "view",
      "type": "function"
    },
    {
      "constant": true,
      "inputs": [
        {
          "name": "interfaceId",
          "type": "bytes4"
        }
      ],
      "name": "supportsInterface",
      "outputs": [
        {
          "name": "",
          "type": "bool"
        }
      ],
      "payable": false,
      "stateMutability": "view",
      "type": "function"
    },
    {
      "constant": false,
      "inputs": [
        {
          "name": "from",
          "type": "address"
        },
        {
          "name": "to",
          "type": "address"
        },
        {
          "name": "itemId",
          "type": "uint256"
        },
        {
          "name": "layer",
          "type": "uint256"
        }
      ],
      "name": "safeTransferFrom",
      "outputs": [],
      "payable": false,
      "stateMutability": "nonpayable",
      "type": "function"
    },
    {
      "constant": true,
      "inputs": [
        {
          "name": "itemId",
          "type": "uint256"
        },
        {
          "name": "layer",
          "type": "uint256"
        }
      ],
      "name": "getApprovedTransfer",
      "outputs": [
        {
          "name": "",
          "type": "address"
        }
      ],
      "payable": false,
      "stateMutability": "view",
      "type": "function"
    },
    {
      "constant": false,
      "inputs": [
        {
          "name": "to",
          "type": "address"
        },
        {
          "name": "itemId",
          "type": "uint256"
        },
        {
          "name": "layer",
          "type": "uint256"
        }
      ],
      "name": "approveTransferLimitFor",
      "outputs": [],
      "payable": false,
      "stateMutability": "nonpayable",
      "type": "function"
    },
    {
      "constant": false,
      "inputs": [
        {
          "name": "itemId",
          "type": "uint256"
        },
        {
          "name": "layer",
          "type": "uint256"
        }
      ],
      "name": "setTransferLimitFor",
      "outputs": [],
      "payable": false,
      "stateMutability": "nonpayable",
      "type": "function"
    },
    {
      "constant": false,
      "inputs": [
        {
          "name": "itemId",
          "type": "uint256"
        },
        {
          "name": "layer",
          "type": "uint256"
        }
      ],
      "name": "revokeTransferLimitFor",
      "outputs": [],
      "payable": false,
      "stateMutability": "nonpayable",
      "type": "function"
    },
    {
      "constant": false,
      "inputs": [
        {
          "name": "to",
          "type": "address"
        },
        {
          "name": "approved",
          "type": "bool"
        }
      ],
      "name": "setApprovalForAll",
      "outputs": [],
      "payable": false,
      "stateMutability": "nonpayable",
      "type": "function"
    },
    {
      "constant": false,
      "inputs": [
        {
          "name": "to",
          "type": "address"
        },
        {
          "name": "itemId",
          "type": "uint256"
        },
        {
          "name": "layer",
          "type": "uint256"
        }
      ],
      "name": "approveTransfer",
      "outputs": [],
      "payable": false,
      "stateMutability": "nonpayable",
      "type": "function"
    },
    {
      "constant": true,
      "inputs": [
        {
          "name": "itemId",
          "type": "uint256"
        },
        {
          "name": "layer",
          "type": "uint256"
        }
      ],
      "name": "superOf",
      "outputs": [
        {
          "name": "",
          "type": "address"
        }
      ],
      "payable": false,
      "stateMutability": "view",
      "type": "function"
    },
    {
      "constant": true,
      "inputs": [
        {
          "name": "itemId",
          "type": "uint256"
        },
        {
          "name": "layer",
          "type": "uint256"
        }
      ],
      "name": "getApprovedTransferLimit",
      "outputs": [
        {
          "name": "",
          "type": "address"
        }
      ],
      "payable": false,
      "stateMutability": "view",
      "type": "function"
    },
    {
      "constant": true,
      "inputs": [
        {
          "name": "itemId",
          "type": "uint256"
        },
        {
          "name": "layer",
          "type": "uint256"
        }
      ],
      "name": "ownerOf",
      "outputs": [
        {
          "name": "",
          "type": "address"
        }
      ],
      "payable": false,
      "stateMutability": "view",
      "type": "function"
    },
    {
      "constant": true,
      "inputs": [
        {
          "name": "owner",
          "type": "address"
        },
        {
          "name": "operator",
          "type": "address"
        }
      ],
      "name": "isApprovedForAll",
      "outputs": [
        {
          "name": "",
          "type": "bool"
        }
      ],
      "payable": false,
      "stateMutability": "view",
      "type": "function"
    },
    {
      "constant": false,
      "inputs": [
        {
          "name": "from",
          "type": "address"
        },
        {
          "name": "to",
          "type": "address"
        },
        {
          "name": "itemId",
          "type": "uint256"
        },
        {
          "name": "layer",
          "type": "uint256"
        },
        {
          "name": "data",
          "type": "bytes"
        }
      ],
      "name": "safeTransferFrom",
      "outputs": [],
      "payable": false,
      "stateMutability": "nonpayable",
      "type": "function"
    },
    {
      "inputs": [],
      "payable": false,
      "stateMutability": "nonpayable",
      "type": "constructor"
    },
    {
      "anonymous": false,
      "inputs": [
        {
          "indexed": true,
          "name": "operator",
          "type": "address"
        },
        {
          "indexed": true,
          "name": "from",
          "type": "address"
        },
        {
          "indexed": true,
          "name": "to",
          "type": "address"
        },
        {
          "indexed": false,
          "name": "itemId",
          "type": "uint256"
        },
        {
          "indexed": false,
          "name": "layer",
          "type": "uint256"
        }
      ],
      "name": "Transfer",
      "type": "event"
    },
    {
      "anonymous": false,
      "inputs": [
        {
          "indexed": true,
          "name": "operator",
          "type": "address"
        },
        {
          "indexed": true,
          "name": "itemId",
          "type": "uint256"
        },
        {
          "indexed": true,
          "name": "layer",
          "type": "uint256"
        },
        {
          "indexed": false,
          "name": "satus",
          "type": "bool"
        }
      ],
      "name": "TransferLimitSet",
      "type": "event"
    },
    {
      "anonymous": false,
      "inputs": [
        {
          "indexed": true,
          "name": "owner",
          "type": "address"
        },
        {
          "indexed": true,
          "name": "approved",
          "type": "address"
        },
        {
          "indexed": false,
          "name": "itemId",
          "type": "uint256"
        },
        {
          "indexed": false,
          "name": "layer",
          "type": "uint256"
        }
      ],
      "name": "ApprovalTransfer",
      "type": "event"
    },
    {
      "anonymous": false,
      "inputs": [
        {
          "indexed": true,
          "name": "owner",
          "type": "address"
        },
        {
          "indexed": true,
          "name": "operator",
          "type": "address"
        },
        {
          "indexed": false,
          "name": "approved",
          "type": "bool"
        }
      ],
      "name": "ApprovalForAll",
      "type": "event"
    },
    {
      "anonymous": false,
      "inputs": [
        {
          "indexed": true,
          "name": "owner",
          "type": "address"
        },
        {
          "indexed": true,
          "name": "approved",
          "type": "address"
        },
        {
          "indexed": false,
          "name": "itemId",
          "type": "uint256"
        },
        {
          "indexed": false,
          "name": "layer",
          "type": "uint256"
        }
      ],
      "name": "ApprovalTransferLimit",
      "type": "event"
    },
    {
      "constant": true,
      "inputs": [
        {
          "name": "owner",
          "type": "address"
        },
        {
          "name": "layer",
          "type": "uint256"
        },
        {
          "name": "index",
          "type": "uint256"
        }
      ],
      "name": "itemOfOwnerByIndex",
      "outputs": [
        {
          "name": "",
          "type": "uint256"
        }
      ],
      "payable": false,
      "stateMutability": "view",
      "type": "function"
    },
    {
      "constant": true,
      "inputs": [],
      "name": "totalNumberOfItems",
      "outputs": [
        {
          "name": "",
          "type": "uint256"
        }
      ],
      "payable": false,
      "stateMutability": "view",
      "type": "function"
    },
    {
      "constant": true,
      "inputs": [
        {
          "name": "index",
          "type": "uint256"
        }
      ],
      "name": "itemByIndex",
      "outputs": [
        {
          "name": "",
          "type": "uint256"
        }
      ],
      "payable": false,
      "stateMutability": "view",
      "type": "function"
    }
  ],
  "bytecode": "0x60806040523480156200001157600080fd5b506200004f6301ffc9a77c01000000000000000000000000000000000000000000000000000000000262000597640100000000026401000000009004565b620004ae60405180807f7265766f6b655472616e736665724c696d6974466f722875696e743235362cc281526020017fa075696e743235362900000000000000000000000000000000000000000000008152506029019050604051809103902060405180807f7365745472616e736665724c696d6974466f722875696e743235362cc2a0756981526020017f6e743235362900000000000000000000000000000000000000000000000000008152506026019050604051809103902060405180807f676574417070726f7665645472616e736665724c696d69742875696e7432353681526020017f2cc2a075696e7432353629000000000000000000000000000000000000000000815250602b019050604051809103902060405180807f617070726f76655472616e736665724c696d6974466f7228616464726573732c81526020017fc2a075696e743235362cc2a075696e74323536290000000000000000000000008152506034019050604051809103902060405180807f6973417070726f766564466f72416c6c28616464726573732cc2a0616464726581526020017f73732900000000000000000000000000000000000000000000000000000000008152506023019050604051809103902060405180807f736574417070726f76616c466f72416c6c28616464726573732cc2a0626f6f6c81526020017f29000000000000000000000000000000000000000000000000000000000000008152506021019050604051809103902060405180807f676574417070726f7665645472616e736665722875696e743235362cc2a0756981526020017f6e743235362900000000000000000000000000000000000000000000000000008152506026019050604051809103902060405180807f617070726f76655472616e7366657228616464726573732cc2a075696e74323581526020017f362cc2a075696e74323536290000000000000000000000000000000000000000815250602c019050604051809103902060405180807f736166655472616e7366657246726f6d28616464726573732cc2a0616464726581526020017f73732cc2a075696e743235362cc2a075696e743235362cc2a062797465732900815250603f019050604051809103902060405180807f736166655472616e7366657246726f6d28616464726573732cc2a0616464726581526020017f73732cc2a075696e743235362cc2a075696e74323536290000000000000000008152506037019050604051809103902060405180807f73757065724f662875696e743235362cc2a075696e7432353629000000000000815250601a019050604051809103902060405180807f6f776e65724f662875696e743235362cc2a075696e7432353629000000000000815250601a019050604051809103902060405180807f62616c616e63654f6628616464726573732cc2a075696e743235362900000000815250601c019050604051809103902018181818181818181818181862000597640100000000026401000000009004565b6200059160405180807f6974656d4279496e6465782875696e74323536290000000000000000000000008152506014019050604051809103902060405180807f6974656d4f664f776e65724279496e64657828616464726573732c75696e743281526020017f35362c75696e7432353629000000000000000000000000000000000000000000815250602b019050604051809103902060405180807f746f74616c4e756d6265724f664974656d73282900000000000000000000000081525060140190506040518091039020181862000597640100000000026401000000009004565b620006be565b63ffffffff7c010000000000000000000000000000000000000000000000000000000002817bffffffffffffffffffffffffffffffffffffffffffffffffffffffff19161415151562000652576040517f08c379a000000000000000000000000000000000000000000000000000000000815260040180806020018281038252601c8152602001807f4552433136353a20696e76616c696420696e746572666163652069640000000081525060200191505060405180910390fd5b6001600080837bffffffffffffffffffffffffffffffffffffffffffffffffffffffff19167bffffffffffffffffffffffffffffffffffffffffffffffffffffffff1916815260200190815260200160002060006101000a81548160ff02191690831515021790555050565b61222080620006ce6000396000f3fe6080604052600436106100f0576000357c0100000000000000000000000000000000000000000000000000000000900463ffffffff168062fdd58e146100f557806301ffc9a7146101645780630febdd49146101d6578063173cc5221461025b57806321d89132146102aa5780634eeb95991461032f5780636aeae0771461039457806370324f2b146103d95780639dc1c61614610404578063a22cb46514610449578063a4fdae9e146104a6578063b4f453eb1461050b578063befc6f9914610590578063c34e2af214610609578063d9dad80d1461068e578063e985e9c514610713578063f242432a1461079c575b600080fd5b34801561010157600080fd5b5061014e6004803603604081101561011857600080fd5b81019080803573ffffffffffffffffffffffffffffffffffffffff169060200190929190803590602001909291905050506108b8565b6040518082815260200191505060405180910390f35b34801561017057600080fd5b506101bc6004803603602081101561018757600080fd5b8101908080357bffffffffffffffffffffffffffffffffffffffffffffffffffffffff1916906020019092919050505061095b565b604051808215151515815260200191505060405180910390f35b3480156101e257600080fd5b50610259600480360360808110156101f957600080fd5b81019080803573ffffffffffffffffffffffffffffffffffffffff169060200190929190803573ffffffffffffffffffffffffffffffffffffffff16906020019092919080359060200190929190803590602001909291905050506109c2565b005b34801561026757600080fd5b506102946004803603602081101561027e57600080fd5b81019080803590602001909291905050506109e5565b6040518082815260200191505060405180910390f35b3480156102b657600080fd5b506102ed600480360360408110156102cd57600080fd5b810190808035906020019092919080359060200190929190505050610a1d565b604051808273ffffffffffffffffffffffffffffffffffffffff1673ffffffffffffffffffffffffffffffffffffffff16815260200191505060405180910390f35b34801561033b57600080fd5b506103926004803603606081101561035257600080fd5b81019080803573ffffffffffffffffffffffffffffffffffffffff1690602001909291908035906020019092919080359060200190929190505050610a81565b005b3480156103a057600080fd5b506103d7600480360360408110156103b757600080fd5b810190808035906020019092919080359060200190929190505050610c78565b005b3480156103e557600080fd5b506103ee610e09565b6040518082815260200191505060405180910390f35b34801561041057600080fd5b506104476004803603604081101561042757600080fd5b810190808035906020019092919080359060200190929190505050610e16565b005b34801561045557600080fd5b506104a46004803603604081101561046c57600080fd5b81019080803573ffffffffffffffffffffffffffffffffffffffff169060200190929190803515159060200190929190505050610faa565b005b3480156104b257600080fd5b50610509600480360360608110156104c957600080fd5b81019080803573ffffffffffffffffffffffffffffffffffffffff16906020019092919080359060200190929190803590602001909291905050506110e6565b005b34801561051757600080fd5b5061054e6004803603604081101561052e57600080fd5b810190808035906020019092919080359060200190929190505050611250565b604051808273ffffffffffffffffffffffffffffffffffffffff1673ffffffffffffffffffffffffffffffffffffffff16815260200191505060405180910390f35b34801561059c57600080fd5b506105f3600480360360608110156105b357600080fd5b81019080803573ffffffffffffffffffffffffffffffffffffffff1690602001909291908035906020019092919080359060200190929190505050611275565b6040518082815260200191505060405180910390f35b34801561061557600080fd5b5061064c6004803603604081101561062c57600080fd5b8101908080359060200190929190803590602001909291905050506112ff565b604051808273ffffffffffffffffffffffffffffffffffffffff1673ffffffffffffffffffffffffffffffffffffffff16815260200191505060405180910390f35b34801561069a57600080fd5b506106d1600480360360408110156106b157600080fd5b810190808035906020019092919080359060200190929190505050611363565b604051808273ffffffffffffffffffffffffffffffffffffffff1673ffffffffffffffffffffffffffffffffffffffff16815260200191505060405180910390f35b34801561071f57600080fd5b506107826004803603604081101561073657600080fd5b81019080803573ffffffffffffffffffffffffffffffffffffffff169060200190929190803573ffffffffffffffffffffffffffffffffffffffff1690602001909291905050506113f3565b604051808215151515815260200191505060405180910390f35b3480156107a857600080fd5b506108b6600480360360a08110156107bf57600080fd5b81019080803573ffffffffffffffffffffffffffffffffffffffff169060200190929190803573ffffffffffffffffffffffffffffffffffffffff16906020019092919080359060200190929190803590602001909291908035906020019064010000000081111561083057600080fd5b82018360208201111561084257600080fd5b8035906020019184600183028401116401000000008311171561086457600080fd5b91908080601f016020809104026020016040519081016040528093929190818152602001838380828437600081840152601f19601f820116905080830192505050505050509192919290505050611487565b005b60008073ffffffffffffffffffffffffffffffffffffffff168373ffffffffffffffffffffffffffffffffffffffff16141515156108f557600080fd5b600061094f600360008673ffffffffffffffffffffffffffffffffffffffff1673ffffffffffffffffffffffffffffffffffffffff16815260200190815260200160002060008581526020019081526020016000206114b1565b90508091505092915050565b6000806000837bffffffffffffffffffffffffffffffffffffffffffffffffffffffff19167bffffffffffffffffffffffffffffffffffffffffffffffffffffffff1916815260200190815260200160002060009054906101000a900460ff169050919050565b6109df848484846020604051908101604052806000815250611487565b50505050565b60006109ef610e09565b821015156109fc57600080fd5b600a82815481101515610a0b57fe5b90600052602060002001549050919050565b6000610a2983836114bf565b1515610a3457600080fd5b60026000848152602001908152602001600020600083815260200190815260200160002060009054906101000a900473ffffffffffffffffffffffffffffffffffffffff16905092915050565b6000610a8d8383611363565b90506000610a9b8484611250565b90508173ffffffffffffffffffffffffffffffffffffffff168573ffffffffffffffffffffffffffffffffffffffff16141580610b0457508073ffffffffffffffffffffffffffffffffffffffff168573ffffffffffffffffffffffffffffffffffffffff1614155b1515610b0f57600080fd5b8173ffffffffffffffffffffffffffffffffffffffff163373ffffffffffffffffffffffffffffffffffffffff161480610b7457508073ffffffffffffffffffffffffffffffffffffffff163373ffffffffffffffffffffffffffffffffffffffff16145b80610b855750610b8482336113f3565b5b80610b965750610b9581336113f3565b5b1515610ba157600080fd5b8460056000868152602001908152602001600020600085815260200190815260200160002060006101000a81548173ffffffffffffffffffffffffffffffffffffffff021916908373ffffffffffffffffffffffffffffffffffffffff1602179055508473ffffffffffffffffffffffffffffffffffffffff168273ffffffffffffffffffffffffffffffffffffffff167f8b1ad3e71a0ec93ec04e081864706fc2ec210a392f687c69eb6ef2b48a07475e8686604051808381526020018281526020019250505060405180910390a35050505050565b610c828282611543565b1515610c8d57600080fd5b6000610c998383611363565b90506000610ca78484611250565b9050610cb384846112ff565b73ffffffffffffffffffffffffffffffffffffffff163373ffffffffffffffffffffffffffffffffffffffff161480610cf25750610cf182336113f3565b5b80610d035750610d0281336113f3565b5b1515610d0e57600080fd5b600060066000868152602001908152602001600020600085815260200190815260200160002060006101000a81548160ff0219169083151502179055503360076000868152602001908152602001600020600085815260200190815260200160002060006101000a81548173ffffffffffffffffffffffffffffffffffffffff021916908373ffffffffffffffffffffffffffffffffffffffff16021790555082843373ffffffffffffffffffffffffffffffffffffffff167f2514331937ebcc84179b9aa52d73834b71963727fd1ea5d8234ee6da14e623686001604051808215151515815260200191505060405180910390a450505050565b6000600a80549050905090565b610e208282611543565b151515610e2c57600080fd5b600060076000848152602001908152602001600020600083815260200190815260200160002060009054906101000a900473ffffffffffffffffffffffffffffffffffffffff1690508073ffffffffffffffffffffffffffffffffffffffff163373ffffffffffffffffffffffffffffffffffffffff16141515610eaf57600080fd5b600160066000858152602001908152602001600020600084815260200190815260200160002060006101000a81548160ff021916908315150217905550600060076000858152602001908152602001600020600084815260200190815260200160002060006101000a81548173ffffffffffffffffffffffffffffffffffffffff021916908373ffffffffffffffffffffffffffffffffffffffff16021790555081833373ffffffffffffffffffffffffffffffffffffffff167f2514331937ebcc84179b9aa52d73834b71963727fd1ea5d8234ee6da14e623686000604051808215151515815260200191505060405180910390a4505050565b3373ffffffffffffffffffffffffffffffffffffffff168273ffffffffffffffffffffffffffffffffffffffff1614151515610fe557600080fd5b80600460003373ffffffffffffffffffffffffffffffffffffffff1673ffffffffffffffffffffffffffffffffffffffff16815260200190815260200160002060008473ffffffffffffffffffffffffffffffffffffffff1673ffffffffffffffffffffffffffffffffffffffff16815260200190815260200160002060006101000a81548160ff0219169083151502179055508173ffffffffffffffffffffffffffffffffffffffff163373ffffffffffffffffffffffffffffffffffffffff167f17307eab39ab6107e8899845ad3d59bd9653f200f220920489ca2b5937696c3183604051808215151515815260200191505060405180910390a35050565b60006110f28383611363565b90508073ffffffffffffffffffffffffffffffffffffffff168473ffffffffffffffffffffffffffffffffffffffff161415151561112f57600080fd5b8073ffffffffffffffffffffffffffffffffffffffff163373ffffffffffffffffffffffffffffffffffffffff16148061116f575061116e81336113f3565b5b151561117a57600080fd5b8360026000858152602001908152602001600020600084815260200190815260200160002060006101000a81548173ffffffffffffffffffffffffffffffffffffffff021916908373ffffffffffffffffffffffffffffffffffffffff1602179055508373ffffffffffffffffffffffffffffffffffffffff168173ffffffffffffffffffffffffffffffffffffffff167fe3d5109fb748529f5f25558d2ca2990867f9c97e6cd0038e06be2afe6538449c8585604051808381526020018281526020019250505060405180910390a350505050565b60008082806001019350905060006112688583611363565b9050809250505092915050565b600061128184846108b8565b8210151561128e57600080fd5b6008600084815260200190815260200160002060008573ffffffffffffffffffffffffffffffffffffffff1673ffffffffffffffffffffffffffffffffffffffff168152602001908152602001600020828154811015156112eb57fe5b906000526020600020015490509392505050565b600061130b83836114bf565b151561131657600080fd5b60056000848152602001908152602001600020600083815260200190815260200160002060009054906101000a900473ffffffffffffffffffffffffffffffffffffffff16905092915050565b60008060016000858152602001908152602001600020600084815260200190815260200160002060009054906101000a900473ffffffffffffffffffffffffffffffffffffffff169050600073ffffffffffffffffffffffffffffffffffffffff168173ffffffffffffffffffffffffffffffffffffffff16141515156113e957600080fd5b8091505092915050565b6000600460008473ffffffffffffffffffffffffffffffffffffffff1673ffffffffffffffffffffffffffffffffffffffff16815260200190815260200160002060008373ffffffffffffffffffffffffffffffffffffffff1673ffffffffffffffffffffffffffffffffffffffff16815260200190815260200160002060009054906101000a900460ff16905092915050565b611492338484611623565b151561149d57600080fd5b6114aa8585858585611727565b5050505050565b600081600001549050919050565b60008060016000858152602001908152602001600020600084815260200190815260200160002060009054906101000a900473ffffffffffffffffffffffffffffffffffffffff169050600073ffffffffffffffffffffffffffffffffffffffff168173ffffffffffffffffffffffffffffffffffffffff16141591505092915050565b600061154f83836114bf565b15156115e9576040517f08c379a00000000000000000000000000000000000000000000000000000000081526004018080602001828103825260298152602001807f455243583a206f70657261746f7220717565727920666f72206e6f6e6578697381526020017f74656e74206974656d000000000000000000000000000000000000000000000081525060400191505060405180910390fd5b60066000848152602001908152602001600020600083815260200190815260200160002060009054906101000a900460ff16905092915050565b600061162f83836114bf565b151561163a57600080fd5b60006116468484611363565b905060006116548585611250565b90508173ffffffffffffffffffffffffffffffffffffffff168673ffffffffffffffffffffffffffffffffffffffff1614806116bb57508073ffffffffffffffffffffffffffffffffffffffff168673ffffffffffffffffffffffffffffffffffffffff16145b806116fa57508573ffffffffffffffffffffffffffffffffffffffff166116e28686610a1d565b73ffffffffffffffffffffffffffffffffffffffff16145b8061170b575061170a82876113f3565b5b8061171c575061171b81876113f3565b5b925050509392505050565b61173385858585611752565b611740858585858561177a565b151561174b57600080fd5b5050505050565b61175e848484846119de565b611769848383611c04565b611774838383611e0f565b50505050565b600061179b8573ffffffffffffffffffffffffffffffffffffffff16611f0a565b15156117aa57600190506119d5565b60008573ffffffffffffffffffffffffffffffffffffffff16631c14516233898888886040518663ffffffff167c0100000000000000000000000000000000000000000000000000000000028152600401808673ffffffffffffffffffffffffffffffffffffffff1673ffffffffffffffffffffffffffffffffffffffff1681526020018573ffffffffffffffffffffffffffffffffffffffff1673ffffffffffffffffffffffffffffffffffffffff16815260200184815260200183815260200180602001828103825283818151815260200191508051906020019080838360005b838110156118a857808201518184015260208101905061188d565b50505050905090810190601f1680156118d55780820380516001836020036101000a031916815260200191505b509650505050505050602060405180830381600087803b1580156118f857600080fd5b505af115801561190c573d6000803e3d6000fd5b505050506040513d602081101561192257600080fd5b8101908080519060200190929190505050905060405180807f6f6e45524358526563656976656428616464726573732c616464726573732c7581526020017f696e743235362c62797465732900000000000000000000000000000000000000815250602d01905060405180910390207bffffffffffffffffffffffffffffffffffffffffffffffffffffffff1916817bffffffffffffffffffffffffffffffffffffffffffffffffffffffff1916149150505b95945050505050565b8373ffffffffffffffffffffffffffffffffffffffff166119ff8383611363565b73ffffffffffffffffffffffffffffffffffffffff16141515611a2157600080fd5b600073ffffffffffffffffffffffffffffffffffffffff168373ffffffffffffffffffffffffffffffffffffffff1614151515611a5d57600080fd5b611a678282611f1d565b611abf600360008673ffffffffffffffffffffffffffffffffffffffff1673ffffffffffffffffffffffffffffffffffffffff16815260200190815260200160002060008381526020019081526020016000206120df565b611b17600360008573ffffffffffffffffffffffffffffffffffffffff1673ffffffffffffffffffffffffffffffffffffffff1681526020019081526020016000206000838152602001908152602001600020612102565b8260016000848152602001908152602001600020600083815260200190815260200160002060006101000a81548173ffffffffffffffffffffffffffffffffffffffff021916908373ffffffffffffffffffffffffffffffffffffffff1602179055508273ffffffffffffffffffffffffffffffffffffffff168473ffffffffffffffffffffffffffffffffffffffff163373ffffffffffffffffffffffffffffffffffffffff167f1b3d7edb2e9c0b0e7c525b20aaaef0f5940d2ed71663c7d39266ecafac7288598585604051808381526020018281526020019250505060405180910390a450505050565b6000611c6d60016008600085815260200190815260200160002060008773ffffffffffffffffffffffffffffffffffffffff1673ffffffffffffffffffffffffffffffffffffffff1681526020019081526020016000208054905061211890919063ffffffff16565b905060006009600084815260200190815260200160002060008581526020019081526020016000205490508181141515611da45760006008600085815260200190815260200160002060008773ffffffffffffffffffffffffffffffffffffffff1673ffffffffffffffffffffffffffffffffffffffff16815260200190815260200160002083815481101515611d0057fe5b90600052602060002001549050806008600086815260200190815260200160002060008873ffffffffffffffffffffffffffffffffffffffff1673ffffffffffffffffffffffffffffffffffffffff16815260200190815260200160002083815481101515611d6b57fe5b90600052602060002001819055508160096000868152602001908152602001600020600083815260200190815260200160002081905550505b6008600084815260200190815260200160002060008673ffffffffffffffffffffffffffffffffffffffff1673ffffffffffffffffffffffffffffffffffffffff168152602001908152602001600020805480919060019003611e0791906121a3565b505050505050565b6008600082815260200190815260200160002060008473ffffffffffffffffffffffffffffffffffffffff1673ffffffffffffffffffffffffffffffffffffffff16815260200190815260200160002080549050600960008381526020019081526020016000206000848152602001908152602001600020819055506008600082815260200190815260200160002060008473ffffffffffffffffffffffffffffffffffffffff1673ffffffffffffffffffffffffffffffffffffffff168152602001908152602001600020829080600181540180825580915050906001820390600052602060002001600090919290919091505550505050565b600080823b905060008111915050919050565b600073ffffffffffffffffffffffffffffffffffffffff1660026000848152602001908152602001600020600083815260200190815260200160002060009054906101000a900473ffffffffffffffffffffffffffffffffffffffff1673ffffffffffffffffffffffffffffffffffffffff16141515611ffc57600060026000848152602001908152602001600020600083815260200190815260200160002060006101000a81548173ffffffffffffffffffffffffffffffffffffffff021916908373ffffffffffffffffffffffffffffffffffffffff1602179055505b600073ffffffffffffffffffffffffffffffffffffffff1660056000848152602001908152602001600020600083815260200190815260200160002060009054906101000a900473ffffffffffffffffffffffffffffffffffffffff1673ffffffffffffffffffffffffffffffffffffffff161415156120db57600060056000848152602001908152602001600020600083815260200190815260200160002060006101000a81548173ffffffffffffffffffffffffffffffffffffffff021916908373ffffffffffffffffffffffffffffffffffffffff1602179055505b5050565b6120f76001826000015461211890919063ffffffff16565b816000018190555050565b6001816000016000828254019250508190555050565b6000828211151515612192576040517f08c379a000000000000000000000000000000000000000000000000000000000815260040180806020018281038252601e8152602001807f536166654d6174683a207375627472616374696f6e206f766572666c6f77000081525060200191505060405180910390fd5b600082840390508091505092915050565b8154818355818111156121ca578183600052602060002091820191016121c991906121cf565b5b505050565b6121f191905b808211156121ed5760008160009055506001016121d5565b5090565b9056fea165627a7a72305820d1dae23c63ae86a0e0337380d19a5fe7f0efd30d9a32083f9d0729bf323742c70029",
  "source": "\npragma solidity ^0.5.0;\n\nimport './ERCX.sol';\nimport '../Interface/IERCXEnumerable.sol';\n\ncontract ERCXEnumerable is ERC165, ERCX, IERCXEnumerable {\n  // Mapping from layer to owner to list of owned item IDs\n  mapping(uint256 => mapping(address => uint256[])) private _ownedItems;\n\n  // Mapping from layer to item ID to index of the owner items list\n  mapping(uint256 => mapping(uint256 => uint256)) private _ownedItemsIndex;\n\n  // Array with all item ids, used for enumeration\n  uint256[] private _allItems;\n\n  // Mapping from item id to position in the allItems array\n  mapping(uint256 => uint256) private _allItemsIndex;\n\n  bytes4 private constant _InterfaceId_ERCXEnumerable = \n    bytes4(keccak256('totalNumberOfItems()')) ^\n    bytes4(keccak256('itemOfOwnerByIndex(address,uint256,uint256)')) ^\n    bytes4(keccak256('itemByIndex(uint256)'));\n  \n  /**\n   * @dev Constructor function\n   */\n  constructor() public {\n    // register the supported interface to conform to ERCX via ERC165\n    _registerInterface(_InterfaceId_ERCXEnumerable);\n  }\n\n  /**\n   * @dev Gets the item ID at a given index of the items list of the requested owner\n   * @param owner address owning the items list to be accessed\n   * @param layer uint256 number to specify the layer\n   * @param index uint256 representing the index to be accessed of the requested items list\n   * @return uint256 item ID at the given index of the items list owned by the requested address\n   */\n   \n  function itemOfOwnerByIndex(address owner, uint256 layer, uint256 index) public view returns (uint256){\n    require(index < balanceOf(owner,layer));\n    return _ownedItems[layer][owner][index];\n  }\n\n\n  /**\n   * @dev Gets the total amount of items stored by the contract\n   * @return uint256 representing the total amount of items\n   */\n  function totalNumberOfItems() public view returns (uint256) {\n    return _allItems.length;\n  }\n\n  /**\n   * @dev Gets the item ID at a given index of all the items in this contract\n   * Reverts if the index is greater or equal to the total number of items\n   * @param index uint256 representing the index to be accessed of the items list\n   * @return uint256 item ID at the given index of the items list\n   */\n  function itemByIndex(uint256 index) public view returns (uint256) {\n    require(index < totalNumberOfItems());\n    return _allItems[index];\n  }\n\n  /**\n    * @dev Internal function to transfer ownership of a given item ID to another address.\n    * As opposed to transferFrom, this imposes no restrictions on msg.sender.\n    * @param from current owner of the item\n    * @param to address to receive the ownership of the given item ID\n    * @param itemId uint256 ID of the item to be transferred\n    * @param layer uint256 number to specify the layer\n    */\n  function _transferFrom(address from, address to, uint256 itemId, uint256 layer) internal {\n      super._transferFrom(from, to, itemId, layer);\n      _removeItemFromOwnerEnumeration(from, itemId, layer);\n      _addItemToOwnerEnumeration(to, itemId, layer);\n  }\n\n  /**\n    * @dev Internal function to mint a new item.\n    * Reverts if the given item ID already exists.\n    * @param to address the beneficiary that will own the minted item\n    * @param itemId uint256 ID of the item to be minted\n    */\n  function _mint(address to, uint256 itemId) internal {\n      super._mint(to, itemId);\n\n      _addItemToOwnerEnumeration(to, itemId,1);\n      _addItemToOwnerEnumeration(to, itemId,2);\n      _addItemToOwnerEnumeration(to, itemId,3);\n\n      _addItemToAllItemsEnumeration(itemId);\n  }\n\n  /**\n    * @dev Internal function to burn a specific item.\n    * Reverts if the item does not exist.\n    * Deprecated, use {ERCX-_burn} instead.\n    * @param itemId uint256 ID of the item being burned\n    */\n  function _burn(uint256 itemId) internal {\n      super._burn(itemId);\n\n      address owner1 = ownerOf(itemId, 1);\n      address owner2 = ownerOf(itemId, 2);\n      address owner3 = ownerOf(itemId, 3);\n\n      _removeItemFromOwnerEnumeration(owner1, itemId, 1);\n      _removeItemFromOwnerEnumeration(owner2, itemId, 2);\n      _removeItemFromOwnerEnumeration(owner3, itemId, 3);\n      // Since itemId will be deleted, we can clear its slot in _ownedItemsIndex to trigger a gas refund\n      _ownedItemsIndex[1][itemId] = 0;\n      _ownedItemsIndex[2][itemId] = 0;\n      _ownedItemsIndex[3][itemId] = 0;\n\n      _removeItemFromAllItemsEnumeration(itemId);\n  }\n\n  /**\n    * @dev Private function to add a item to this extension's ownership-tracking data structures.\n    * @param to address representing the new owner of the given item ID\n    * @param itemId uint256 ID of the item to be added to the items list of the given address\n    */\n  function _addItemToOwnerEnumeration(address to, uint256 itemId,uint256 layer) private {\n      _ownedItemsIndex[layer][itemId] = _ownedItems[layer][to].length;\n      _ownedItems[layer][to].push(itemId);\n  }\n\n  /**\n    * @dev Private function to add a item to this extension's item tracking data structures.\n    * @param itemId uint256 ID of the item to be added to the items list\n    */\n  function _addItemToAllItemsEnumeration(uint256 itemId) private {\n      _allItemsIndex[itemId] = _allItems.length;\n      _allItems.push(itemId);\n  }\n\n  /**\n    * @dev Private function to remove a item from this extension's ownership-tracking data structures. Note that\n    * while the item is not assigned a new owner, the `_ownedItemsIndex` mapping is _not_ updated: this allows for\n    * gas optimizations e.g. when performing a transfer operation (avoiding double writes).\n    * This has O(1) time complexity, but alters the order of the _ownedItems array.\n    * @param from address representing the previous owner of the given item ID\n    * @param itemId uint256 ID of the item to be removed from the items list of the given address\n    */\n  function _removeItemFromOwnerEnumeration(address from, uint256 itemId, uint256 layer) private {\n      // To prevent a gap in from's items array, we store the last item in the index of the item to delete, and\n      // then delete the last slot (swap and pop).\n\n      uint256 lastItemIndex = _ownedItems[layer][from].length.sub(1);\n      uint256 itemIndex = _ownedItemsIndex[layer][itemId];\n\n      // When the item to delete is the last item, the swap operation is unnecessary\n      if (itemIndex != lastItemIndex) {\n          uint256 lastItemId = _ownedItems[layer][from][lastItemIndex];\n\n          _ownedItems[layer][from][itemIndex] = lastItemId; // Move the last item to the slot of the to-delete item\n          _ownedItemsIndex[layer][lastItemId] = itemIndex; // Update the moved item's index\n      }\n\n      // This also deletes the contents at the last position of the array\n      _ownedItems[layer][from].length--;\n\n      // Note that _ownedItemsIndex[itemId] hasn't been cleared: it still points to the old slot (now occupied by\n      // lastItemId, or just over the end of the array if the item was the last one).\n  }\n\n  /**\n    * @dev Private function to remove a item from this extension's item tracking data structures.\n    * This has O(1) time complexity, but alters the order of the _allItems array.\n    * @param itemId uint256 ID of the item to be removed from the items list\n    */\n  function _removeItemFromAllItemsEnumeration(uint256 itemId) private {\n      // To prevent a gap in the items array, we store the last item in the index of the item to delete, and\n      // then delete the last slot (swap and pop).\n\n      uint256 lastItemIndex = _allItems.length.sub(1);\n      uint256 itemIndex = _allItemsIndex[itemId];\n\n      // When the item to delete is the last item, the swap operation is unnecessary. However, since this occurs so\n      // rarely (when the last minted item is burnt) that we still do the swap here to avoid the gas cost of adding\n      // an 'if' statement (like in _removeItemFromOwnerEnumeration)\n      uint256 lastItemId = _allItems[lastItemIndex];\n\n      _allItems[itemIndex] = lastItemId; // Move the last item to the slot of the to-delete item\n      _allItemsIndex[lastItemId] = itemIndex; // Update the moved item's index\n\n      // This also deletes the contents at the last position of the array\n      _allItems.length--;\n      _allItemsIndex[itemId] = 0;\n  }\n}\n\n\n\n",
  "sourcePath": "/Users/kohshiba/Desktop/Deed/ERCX/contracts/ERCX/Contract/ERCXEnumerable.sol",
  "compiler": {
    "name": "solc",
    "version": "0.5.0+commit.1d4f565a.Emscripten.clang"
  },
  "schemaVersion": "3.0.1",
  "updatedAt": "2019-11-30T03:58:21.970Z",
  "devdoc": {
    "methods": {
      "approveTransfer(address,uint256,uint256)": {
        "details": "Approves another address to transfer the given item ID The zero address indicates there is no approved address. There can only be one approved address per item at a given time. Can only be called by the item owner or an approved operator.",
        "params": {
          "itemId": "uint256 ID of the item to be approved",
          "layer": "uint256 number to specify the layer",
          "to": "address to be approved for the given item ID"
        }
      },
      "approveTransferLimitFor(address,uint256,uint256)": {
        "details": "Approves another address to suspend the transfer right of the given item ID The zero address indicates there is no approved address. There can only be one approved address per item at a given time. Can only be called by the item owner or an approved operator.",
        "params": {
          "itemId": "uint256 ID of the item to be approved",
          "layer": "uint256 number to specify the layer",
          "to": "address to be approved for the given item ID"
        }
      },
      "balanceOf(address,uint256)": {
        "details": "Gets the balance of the specified address",
        "params": {
          "layer": "uint256 number to specify the layer",
          "owner": "address to query the balance of"
        },
        "return": "uint256 representing the amount of items owned by the passed address in the specified layer"
      },
      "constructor": {
        "details": "Constructor function"
      },
      "getApprovedTransfer(uint256,uint256)": {
        "details": "Gets the approved address for a item ID, or zero if no address set Reverts if the item ID does not exist.",
        "params": {
          "itemId": "uint256 ID of the item to query the approval of",
          "layer": "uint256 number to specify the layer"
        },
        "return": "address currently approved for the given item ID"
      },
      "getApprovedTransferLimit(uint256,uint256)": {
        "details": "Gets the approved address for suspension for transfer a item ID, or zero if no address set Reverts if the item ID does not exist.",
        "params": {
          "itemId": "uint256 ID of the item to query the approval of",
          "layer": "uint256 number to specify the layer"
        },
        "return": "address currently approved for the given item ID"
      },
      "isApprovedForAll(address,address)": {
        "details": "Tells whether an operator is approved by a given owner",
        "params": {
          "operator": "operator address which you want to query the approval of",
          "owner": "owner address which you want to query the approval of"
        },
        "return": "bool whether the given operator is approved by the given owner"
      },
      "itemByIndex(uint256)": {
        "details": "Gets the item ID at a given index of all the items in this contract Reverts if the index is greater or equal to the total number of items",
        "params": {
          "index": "uint256 representing the index to be accessed of the items list"
        },
        "return": "uint256 item ID at the given index of the items list"
      },
      "itemOfOwnerByIndex(address,uint256,uint256)": {
        "details": "Gets the item ID at a given index of the items list of the requested owner",
        "params": {
          "index": "uint256 representing the index to be accessed of the requested items list",
          "layer": "uint256 number to specify the layer",
          "owner": "address owning the items list to be accessed"
        },
        "return": "uint256 item ID at the given index of the items list owned by the requested address"
      },
      "ownerOf(uint256,uint256)": {
        "details": "Gets the owner of the specified item ID",
        "params": {
          "itemId": "uint256 ID of the item to query the owner of",
          "layer": "uint256 number to specify the layer"
        },
        "return": "owner address currently marked as the owner of the given item ID in the specified layer"
      },
      "revokeTransferLimitFor(uint256,uint256)": {
        "details": "Revole the limitation of transferability of the specified item.   * Requires the msg sender to be the setter of the limitation",
        "params": {
          "itemId": "uint256 ID of the item to be transferred",
          "layer": "uint256 number to specify the layer"
        }
      },
      "safeTransferFrom(address,address,uint256,uint256)": {
        "details": "Safely transfers the ownership of a given item ID to another address If the target address is a contract, it must implement `onERCXReceived`, which is called upon a safe transfer, and return the magic value `bytes4(keccak256(\"onERCXReceived(address,address,uint256,bytes)\"))`; otherwise, the transfer is reverted.   * Requires the msg sender to be the owner, approved, or operator",
        "params": {
          "from": "current owner of the item",
          "itemId": "uint256 ID of the item to be transferred",
          "layer": "uint256 number to specify the layer",
          "to": "address to receive the ownership of the given item ID"
        }
      },
      "safeTransferFrom(address,address,uint256,uint256,bytes)": {
        "details": "Safely transfers the ownership of a given item ID to another address If the target address is a contract, it must implement `onERCXReceived`, which is called upon a safe transfer, and return the magic value `bytes4(keccak256(\"onERCXReceived(address,address,uint256,bytes)\"))`; otherwise, the transfer is reverted. Requires the msg sender to be the owner, approved, or operator",
        "params": {
          "data": "bytes data to send along with a safe transfer check",
          "from": "current owner of the item",
          "itemId": "uint256 ID of the item to be transferred",
          "layer": "uint256 number to specify the layer",
          "to": "address to receive the ownership of the given item ID"
        }
      },
      "setApprovalForAll(address,bool)": {
        "details": "Sets or unsets the approval of a given operator An operator is allowed to transfer all items of the sender on their behalf",
        "params": {
          "approved": "representing the status of the approval to be set",
          "to": "operator address to set the approval"
        }
      },
      "setTransferLimitFor(uint256,uint256)": {
        "details": "Limit the transferability of the specified item. msg.sender should be permitted by either owner or so(super owner)",
        "params": {
          "itemId": "uint256 ID of the item to be transferred",
          "layer": "uint256 number to specify the layer"
        }
      },
      "superOf(uint256,uint256)": {
        "details": "Gets the upper layer address of the owner of the specified item ID",
        "params": {
          "itemId": "uint256 ID of the item to query the owner of",
          "layer": "uint256 number to specify the layer"
        },
        "return": "the upper layer address currently marked as the owner of the given item ID in the specified layer"
      },
      "supportsInterface(bytes4)": {
        "details": "See `IERC165.supportsInterface`.     * Time complexity O(1), guaranteed to always use less than 30 000 gas."
      },
      "totalNumberOfItems()": {
        "details": "Gets the total amount of items stored by the contract",
        "return": "uint256 representing the total amount of items"
      }
    }
  },
  "userdoc": {
    "methods": {}
  }
}