{
  "contractName": "ERCXMetadata",
  "abi": [
    {
      "constant": true,
      "inputs": [
        {
          "name": "owner",
          "type": "address"
        },
        {
          "name": "layer",
          "type": "uint256"
        }
      ],
      "name": "balanceOf",
      "outputs": [
        {
          "name": "",
          "type": "uint256"
        }
      ],
      "payable": false,
      "stateMutability": "view",
      "type": "function"
    },
    {
      "constant": true,
      "inputs": [
        {
          "name": "interfaceId",
          "type": "bytes4"
        }
      ],
      "name": "supportsInterface",
      "outputs": [
        {
          "name": "",
          "type": "bool"
        }
      ],
      "payable": false,
      "stateMutability": "view",
      "type": "function"
    },
    {
      "constant": false,
      "inputs": [
        {
          "name": "from",
          "type": "address"
        },
        {
          "name": "to",
          "type": "address"
        },
        {
          "name": "itemId",
          "type": "uint256"
        },
        {
          "name": "layer",
          "type": "uint256"
        }
      ],
      "name": "safeTransferFrom",
      "outputs": [],
      "payable": false,
      "stateMutability": "nonpayable",
      "type": "function"
    },
    {
      "constant": true,
      "inputs": [
        {
          "name": "itemId",
          "type": "uint256"
        },
        {
          "name": "layer",
          "type": "uint256"
        }
      ],
      "name": "getApprovedTransfer",
      "outputs": [
        {
          "name": "",
          "type": "address"
        }
      ],
      "payable": false,
      "stateMutability": "view",
      "type": "function"
    },
    {
      "constant": false,
      "inputs": [
        {
          "name": "to",
          "type": "address"
        },
        {
          "name": "itemId",
          "type": "uint256"
        },
        {
          "name": "layer",
          "type": "uint256"
        }
      ],
      "name": "approveTransferLimitFor",
      "outputs": [],
      "payable": false,
      "stateMutability": "nonpayable",
      "type": "function"
    },
    {
      "constant": false,
      "inputs": [
        {
          "name": "itemId",
          "type": "uint256"
        },
        {
          "name": "layer",
          "type": "uint256"
        }
      ],
      "name": "setTransferLimitFor",
      "outputs": [],
      "payable": false,
      "stateMutability": "nonpayable",
      "type": "function"
    },
    {
      "constant": false,
      "inputs": [
        {
          "name": "itemId",
          "type": "uint256"
        },
        {
          "name": "layer",
          "type": "uint256"
        }
      ],
      "name": "revokeTransferLimitFor",
      "outputs": [],
      "payable": false,
      "stateMutability": "nonpayable",
      "type": "function"
    },
    {
      "constant": false,
      "inputs": [
        {
          "name": "to",
          "type": "address"
        },
        {
          "name": "approved",
          "type": "bool"
        }
      ],
      "name": "setApprovalForAll",
      "outputs": [],
      "payable": false,
      "stateMutability": "nonpayable",
      "type": "function"
    },
    {
      "constant": false,
      "inputs": [
        {
          "name": "to",
          "type": "address"
        },
        {
          "name": "itemId",
          "type": "uint256"
        },
        {
          "name": "layer",
          "type": "uint256"
        }
      ],
      "name": "approveTransfer",
      "outputs": [],
      "payable": false,
      "stateMutability": "nonpayable",
      "type": "function"
    },
    {
      "constant": true,
      "inputs": [
        {
          "name": "itemId",
          "type": "uint256"
        },
        {
          "name": "layer",
          "type": "uint256"
        }
      ],
      "name": "superOf",
      "outputs": [
        {
          "name": "",
          "type": "address"
        }
      ],
      "payable": false,
      "stateMutability": "view",
      "type": "function"
    },
    {
      "constant": true,
      "inputs": [
        {
          "name": "itemId",
          "type": "uint256"
        },
        {
          "name": "layer",
          "type": "uint256"
        }
      ],
      "name": "getApprovedTransferLimit",
      "outputs": [
        {
          "name": "",
          "type": "address"
        }
      ],
      "payable": false,
      "stateMutability": "view",
      "type": "function"
    },
    {
      "constant": true,
      "inputs": [
        {
          "name": "itemId",
          "type": "uint256"
        },
        {
          "name": "layer",
          "type": "uint256"
        }
      ],
      "name": "ownerOf",
      "outputs": [
        {
          "name": "",
          "type": "address"
        }
      ],
      "payable": false,
      "stateMutability": "view",
      "type": "function"
    },
    {
      "constant": true,
      "inputs": [
        {
          "name": "owner",
          "type": "address"
        },
        {
          "name": "operator",
          "type": "address"
        }
      ],
      "name": "isApprovedForAll",
      "outputs": [
        {
          "name": "",
          "type": "bool"
        }
      ],
      "payable": false,
      "stateMutability": "view",
      "type": "function"
    },
    {
      "constant": false,
      "inputs": [
        {
          "name": "from",
          "type": "address"
        },
        {
          "name": "to",
          "type": "address"
        },
        {
          "name": "itemId",
          "type": "uint256"
        },
        {
          "name": "layer",
          "type": "uint256"
        },
        {
          "name": "data",
          "type": "bytes"
        }
      ],
      "name": "safeTransferFrom",
      "outputs": [],
      "payable": false,
      "stateMutability": "nonpayable",
      "type": "function"
    },
    {
      "inputs": [
        {
          "name": "name",
          "type": "string"
        },
        {
          "name": "symbol",
          "type": "string"
        }
      ],
      "payable": false,
      "stateMutability": "nonpayable",
      "type": "constructor"
    },
    {
      "anonymous": false,
      "inputs": [
        {
          "indexed": true,
          "name": "operator",
          "type": "address"
        },
        {
          "indexed": true,
          "name": "from",
          "type": "address"
        },
        {
          "indexed": true,
          "name": "to",
          "type": "address"
        },
        {
          "indexed": false,
          "name": "itemId",
          "type": "uint256"
        },
        {
          "indexed": false,
          "name": "layer",
          "type": "uint256"
        }
      ],
      "name": "Transfer",
      "type": "event"
    },
    {
      "anonymous": false,
      "inputs": [
        {
          "indexed": true,
          "name": "operator",
          "type": "address"
        },
        {
          "indexed": true,
          "name": "itemId",
          "type": "uint256"
        },
        {
          "indexed": true,
          "name": "layer",
          "type": "uint256"
        },
        {
          "indexed": false,
          "name": "satus",
          "type": "bool"
        }
      ],
      "name": "TransferLimitSet",
      "type": "event"
    },
    {
      "anonymous": false,
      "inputs": [
        {
          "indexed": true,
          "name": "owner",
          "type": "address"
        },
        {
          "indexed": true,
          "name": "approved",
          "type": "address"
        },
        {
          "indexed": false,
          "name": "itemId",
          "type": "uint256"
        },
        {
          "indexed": false,
          "name": "layer",
          "type": "uint256"
        }
      ],
      "name": "ApprovalTransfer",
      "type": "event"
    },
    {
      "anonymous": false,
      "inputs": [
        {
          "indexed": true,
          "name": "owner",
          "type": "address"
        },
        {
          "indexed": true,
          "name": "operator",
          "type": "address"
        },
        {
          "indexed": false,
          "name": "approved",
          "type": "bool"
        }
      ],
      "name": "ApprovalForAll",
      "type": "event"
    },
    {
      "anonymous": false,
      "inputs": [
        {
          "indexed": true,
          "name": "owner",
          "type": "address"
        },
        {
          "indexed": true,
          "name": "approved",
          "type": "address"
        },
        {
          "indexed": false,
          "name": "itemId",
          "type": "uint256"
        },
        {
          "indexed": false,
          "name": "layer",
          "type": "uint256"
        }
      ],
      "name": "ApprovalTransferLimit",
      "type": "event"
    },
    {
      "constant": true,
      "inputs": [],
      "name": "name",
      "outputs": [
        {
          "name": "",
          "type": "string"
        }
      ],
      "payable": false,
      "stateMutability": "view",
      "type": "function"
    },
    {
      "constant": true,
      "inputs": [],
      "name": "symbol",
      "outputs": [
        {
          "name": "",
          "type": "string"
        }
      ],
      "payable": false,
      "stateMutability": "view",
      "type": "function"
    },
    {
      "constant": true,
      "inputs": [
        {
          "name": "itemId",
          "type": "uint256"
        }
      ],
      "name": "itemURI",
      "outputs": [
        {
          "name": "",
          "type": "string"
        }
      ],
      "payable": false,
      "stateMutability": "view",
      "type": "function"
    }
  ],
  "bytecode": "0x60806040523480156200001157600080fd5b506040516200291a3803806200291a833981018060405260408110156200003757600080fd5b8101908080516401000000008111156200005057600080fd5b828101905060208101848111156200006757600080fd5b81518560018202830111640100000000821117156200008557600080fd5b50509291906020018051640100000000811115620000a257600080fd5b82810190506020810184811115620000b957600080fd5b8151856001820283011164010000000082111715620000d757600080fd5b50509291905050506200011c6301ffc9a77c01000000000000000000000000000000000000000000000000000000000262000672640100000000026401000000009004565b6200057b60405180807f7265766f6b655472616e736665724c696d6974466f722875696e743235362cc281526020017fa075696e743235362900000000000000000000000000000000000000000000008152506029019050604051809103902060405180807f7365745472616e736665724c696d6974466f722875696e743235362cc2a0756981526020017f6e743235362900000000000000000000000000000000000000000000000000008152506026019050604051809103902060405180807f676574417070726f7665645472616e736665724c696d69742875696e7432353681526020017f2cc2a075696e7432353629000000000000000000000000000000000000000000815250602b019050604051809103902060405180807f617070726f76655472616e736665724c696d6974466f7228616464726573732c81526020017fc2a075696e743235362cc2a075696e74323536290000000000000000000000008152506034019050604051809103902060405180807f6973417070726f766564466f72416c6c28616464726573732cc2a0616464726581526020017f73732900000000000000000000000000000000000000000000000000000000008152506023019050604051809103902060405180807f736574417070726f76616c466f72416c6c28616464726573732cc2a0626f6f6c81526020017f29000000000000000000000000000000000000000000000000000000000000008152506021019050604051809103902060405180807f676574417070726f7665645472616e736665722875696e743235362cc2a0756981526020017f6e743235362900000000000000000000000000000000000000000000000000008152506026019050604051809103902060405180807f617070726f76655472616e7366657228616464726573732cc2a075696e74323581526020017f362cc2a075696e74323536290000000000000000000000000000000000000000815250602c019050604051809103902060405180807f736166655472616e7366657246726f6d28616464726573732cc2a0616464726581526020017f73732cc2a075696e743235362cc2a075696e743235362cc2a062797465732900815250603f019050604051809103902060405180807f736166655472616e7366657246726f6d28616464726573732cc2a0616464726581526020017f73732cc2a075696e743235362cc2a075696e74323536290000000000000000008152506037019050604051809103902060405180807f73757065724f662875696e743235362cc2a075696e7432353629000000000000815250601a019050604051809103902060405180807f6f776e65724f662875696e743235362cc2a075696e7432353629000000000000815250601a019050604051809103902060405180807f62616c616e63654f6628616464726573732cc2a075696e743235362900000000815250601c019050604051809103902018181818181818181818181862000672640100000000026401000000009004565b81600890805190602001906200059392919062000799565b508060099080519060200190620005ac92919062000799565b506200066a60405180807f6974656d5552492875696e7432353629000000000000000000000000000000008152506010019050604051809103902060405180807f73796d626f6c28290000000000000000000000000000000000000000000000008152506008019050604051809103902060405180807f6e616d652829000000000000000000000000000000000000000000000000000081525060060190506040518091039020181862000672640100000000026401000000009004565b505062000848565b63ffffffff7c010000000000000000000000000000000000000000000000000000000002817bffffffffffffffffffffffffffffffffffffffffffffffffffffffff1916141515156200072d576040517f08c379a000000000000000000000000000000000000000000000000000000000815260040180806020018281038252601c8152602001807f4552433136353a20696e76616c696420696e746572666163652069640000000081525060200191505060405180910390fd5b6001600080837bffffffffffffffffffffffffffffffffffffffffffffffffffffffff19167bffffffffffffffffffffffffffffffffffffffffffffffffffffffff1916815260200190815260200160002060006101000a81548160ff02191690831515021790555050565b828054600181600116156101000203166002900490600052602060002090601f016020900481019282601f10620007dc57805160ff19168380011785556200080d565b828001600101855582156200080d579182015b828111156200080c578251825591602001919060010190620007ef565b5b5090506200081c919062000820565b5090565b6200084591905b808211156200084157600081600090555060010162000827565b5090565b90565b6120c280620008586000396000f3fe6080604052600436106100f0576000357c0100000000000000000000000000000000000000000000000000000000900463ffffffff168062fdd58e146100f557806301ffc9a71461016457806306fdde03146101d65780630febdd491461026657806321d89132146102eb5780634eeb9599146103705780636aeae077146103d557806395d89b411461041a5780639dc1c616146104aa578063a22cb465146104ef578063a4fdae9e1461054c578063acb35dc7146105b1578063b4f453eb14610665578063c34e2af2146106ea578063d9dad80d1461076f578063e985e9c5146107f4578063f242432a1461087d575b600080fd5b34801561010157600080fd5b5061014e6004803603604081101561011857600080fd5b81019080803573ffffffffffffffffffffffffffffffffffffffff16906020019092919080359060200190929190505050610999565b6040518082815260200191505060405180910390f35b34801561017057600080fd5b506101bc6004803603602081101561018757600080fd5b8101908080357bffffffffffffffffffffffffffffffffffffffffffffffffffffffff19169060200190929190505050610a3c565b604051808215151515815260200191505060405180910390f35b3480156101e257600080fd5b506101eb610aa3565b6040518080602001828103825283818151815260200191508051906020019080838360005b8381101561022b578082015181840152602081019050610210565b50505050905090810190601f1680156102585780820380516001836020036101000a031916815260200191505b509250505060405180910390f35b34801561027257600080fd5b506102e96004803603608081101561028957600080fd5b81019080803573ffffffffffffffffffffffffffffffffffffffff169060200190929190803573ffffffffffffffffffffffffffffffffffffffff1690602001909291908035906020019092919080359060200190929190505050610b45565b005b3480156102f757600080fd5b5061032e6004803603604081101561030e57600080fd5b810190808035906020019092919080359060200190929190505050610b68565b604051808273ffffffffffffffffffffffffffffffffffffffff1673ffffffffffffffffffffffffffffffffffffffff16815260200191505060405180910390f35b34801561037c57600080fd5b506103d36004803603606081101561039357600080fd5b81019080803573ffffffffffffffffffffffffffffffffffffffff1690602001909291908035906020019092919080359060200190929190505050610bcc565b005b3480156103e157600080fd5b50610418600480360360408110156103f857600080fd5b810190808035906020019092919080359060200190929190505050610dc3565b005b34801561042657600080fd5b5061042f610f54565b6040518080602001828103825283818151815260200191508051906020019080838360005b8381101561046f578082015181840152602081019050610454565b50505050905090810190601f16801561049c5780820380516001836020036101000a031916815260200191505b509250505060405180910390f35b3480156104b657600080fd5b506104ed600480360360408110156104cd57600080fd5b810190808035906020019092919080359060200190929190505050610ff6565b005b3480156104fb57600080fd5b5061054a6004803603604081101561051257600080fd5b81019080803573ffffffffffffffffffffffffffffffffffffffff16906020019092919080351515906020019092919050505061118a565b005b34801561055857600080fd5b506105af6004803603606081101561056f57600080fd5b81019080803573ffffffffffffffffffffffffffffffffffffffff16906020019092919080359060200190929190803590602001909291905050506112c6565b005b3480156105bd57600080fd5b506105ea600480360360208110156105d457600080fd5b8101908080359060200190929190505050611430565b6040518080602001828103825283818151815260200191508051906020019080838360005b8381101561062a57808201518184015260208101905061060f565b50505050905090810190601f1680156106575780820380516001836020036101000a031916815260200191505b509250505060405180910390f35b34801561067157600080fd5b506106a86004803603604081101561068857600080fd5b8101908080359060200190929190803590602001909291905050506114fb565b604051808273ffffffffffffffffffffffffffffffffffffffff1673ffffffffffffffffffffffffffffffffffffffff16815260200191505060405180910390f35b3480156106f657600080fd5b5061072d6004803603604081101561070d57600080fd5b810190808035906020019092919080359060200190929190505050611520565b604051808273ffffffffffffffffffffffffffffffffffffffff1673ffffffffffffffffffffffffffffffffffffffff16815260200191505060405180910390f35b34801561077b57600080fd5b506107b26004803603604081101561079257600080fd5b810190808035906020019092919080359060200190929190505050611584565b604051808273ffffffffffffffffffffffffffffffffffffffff1673ffffffffffffffffffffffffffffffffffffffff16815260200191505060405180910390f35b34801561080057600080fd5b506108636004803603604081101561081757600080fd5b81019080803573ffffffffffffffffffffffffffffffffffffffff169060200190929190803573ffffffffffffffffffffffffffffffffffffffff169060200190929190505050611614565b604051808215151515815260200191505060405180910390f35b34801561088957600080fd5b50610997600480360360a08110156108a057600080fd5b81019080803573ffffffffffffffffffffffffffffffffffffffff169060200190929190803573ffffffffffffffffffffffffffffffffffffffff16906020019092919080359060200190929190803590602001909291908035906020019064010000000081111561091157600080fd5b82018360208201111561092357600080fd5b8035906020019184600183028401116401000000008311171561094557600080fd5b91908080601f016020809104026020016040519081016040528093929190818152602001838380828437600081840152601f19601f8201169050808301925050505050505091929192905050506116a8565b005b60008073ffffffffffffffffffffffffffffffffffffffff168373ffffffffffffffffffffffffffffffffffffffff16141515156109d657600080fd5b6000610a30600360008673ffffffffffffffffffffffffffffffffffffffff1673ffffffffffffffffffffffffffffffffffffffff16815260200190815260200160002060008581526020019081526020016000206116d2565b90508091505092915050565b6000806000837bffffffffffffffffffffffffffffffffffffffffffffffffffffffff19167bffffffffffffffffffffffffffffffffffffffffffffffffffffffff1916815260200190815260200160002060009054906101000a900460ff169050919050565b606060088054600181600116156101000203166002900480601f016020809104026020016040519081016040528092919081815260200182805460018160011615610100020316600290048015610b3b5780601f10610b1057610100808354040283529160200191610b3b565b820191906000526020600020905b815481529060010190602001808311610b1e57829003601f168201915b5050505050905090565b610b628484848460206040519081016040528060008152506116a8565b50505050565b6000610b7483836116e0565b1515610b7f57600080fd5b60026000848152602001908152602001600020600083815260200190815260200160002060009054906101000a900473ffffffffffffffffffffffffffffffffffffffff16905092915050565b6000610bd88383611584565b90506000610be684846114fb565b90508173ffffffffffffffffffffffffffffffffffffffff168573ffffffffffffffffffffffffffffffffffffffff16141580610c4f57508073ffffffffffffffffffffffffffffffffffffffff168573ffffffffffffffffffffffffffffffffffffffff1614155b1515610c5a57600080fd5b8173ffffffffffffffffffffffffffffffffffffffff163373ffffffffffffffffffffffffffffffffffffffff161480610cbf57508073ffffffffffffffffffffffffffffffffffffffff163373ffffffffffffffffffffffffffffffffffffffff16145b80610cd05750610ccf8233611614565b5b80610ce15750610ce08133611614565b5b1515610cec57600080fd5b8460056000868152602001908152602001600020600085815260200190815260200160002060006101000a81548173ffffffffffffffffffffffffffffffffffffffff021916908373ffffffffffffffffffffffffffffffffffffffff1602179055508473ffffffffffffffffffffffffffffffffffffffff168273ffffffffffffffffffffffffffffffffffffffff167f8b1ad3e71a0ec93ec04e081864706fc2ec210a392f687c69eb6ef2b48a07475e8686604051808381526020018281526020019250505060405180910390a35050505050565b610dcd8282611764565b1515610dd857600080fd5b6000610de48383611584565b90506000610df284846114fb565b9050610dfe8484611520565b73ffffffffffffffffffffffffffffffffffffffff163373ffffffffffffffffffffffffffffffffffffffff161480610e3d5750610e3c8233611614565b5b80610e4e5750610e4d8133611614565b5b1515610e5957600080fd5b600060066000868152602001908152602001600020600085815260200190815260200160002060006101000a81548160ff0219169083151502179055503360076000868152602001908152602001600020600085815260200190815260200160002060006101000a81548173ffffffffffffffffffffffffffffffffffffffff021916908373ffffffffffffffffffffffffffffffffffffffff16021790555082843373ffffffffffffffffffffffffffffffffffffffff167f2514331937ebcc84179b9aa52d73834b71963727fd1ea5d8234ee6da14e623686001604051808215151515815260200191505060405180910390a450505050565b606060098054600181600116156101000203166002900480601f016020809104026020016040519081016040528092919081815260200182805460018160011615610100020316600290048015610fec5780601f10610fc157610100808354040283529160200191610fec565b820191906000526020600020905b815481529060010190602001808311610fcf57829003601f168201915b5050505050905090565b6110008282611764565b15151561100c57600080fd5b600060076000848152602001908152602001600020600083815260200190815260200160002060009054906101000a900473ffffffffffffffffffffffffffffffffffffffff1690508073ffffffffffffffffffffffffffffffffffffffff163373ffffffffffffffffffffffffffffffffffffffff1614151561108f57600080fd5b600160066000858152602001908152602001600020600084815260200190815260200160002060006101000a81548160ff021916908315150217905550600060076000858152602001908152602001600020600084815260200190815260200160002060006101000a81548173ffffffffffffffffffffffffffffffffffffffff021916908373ffffffffffffffffffffffffffffffffffffffff16021790555081833373ffffffffffffffffffffffffffffffffffffffff167f2514331937ebcc84179b9aa52d73834b71963727fd1ea5d8234ee6da14e623686000604051808215151515815260200191505060405180910390a4505050565b3373ffffffffffffffffffffffffffffffffffffffff168273ffffffffffffffffffffffffffffffffffffffff16141515156111c557600080fd5b80600460003373ffffffffffffffffffffffffffffffffffffffff1673ffffffffffffffffffffffffffffffffffffffff16815260200190815260200160002060008473ffffffffffffffffffffffffffffffffffffffff1673ffffffffffffffffffffffffffffffffffffffff16815260200190815260200160002060006101000a81548160ff0219169083151502179055508173ffffffffffffffffffffffffffffffffffffffff163373ffffffffffffffffffffffffffffffffffffffff167f17307eab39ab6107e8899845ad3d59bd9653f200f220920489ca2b5937696c3183604051808215151515815260200191505060405180910390a35050565b60006112d28383611584565b90508073ffffffffffffffffffffffffffffffffffffffff168473ffffffffffffffffffffffffffffffffffffffff161415151561130f57600080fd5b8073ffffffffffffffffffffffffffffffffffffffff163373ffffffffffffffffffffffffffffffffffffffff16148061134f575061134e8133611614565b5b151561135a57600080fd5b8360026000858152602001908152602001600020600084815260200190815260200160002060006101000a81548173ffffffffffffffffffffffffffffffffffffffff021916908373ffffffffffffffffffffffffffffffffffffffff1602179055508373ffffffffffffffffffffffffffffffffffffffff168173ffffffffffffffffffffffffffffffffffffffff167fe3d5109fb748529f5f25558d2ca2990867f9c97e6cd0038e06be2afe6538449c8585604051808381526020018281526020019250505060405180910390a350505050565b606061143d8260016116e0565b151561144857600080fd5b600a60008381526020019081526020016000208054600181600116156101000203166002900480601f0160208091040260200160405190810160405280929190818152602001828054600181600116156101000203166002900480156114ef5780601f106114c4576101008083540402835291602001916114ef565b820191906000526020600020905b8154815290600101906020018083116114d257829003601f168201915b50505050509050919050565b60008082806001019350905060006115138583611584565b9050809250505092915050565b600061152c83836116e0565b151561153757600080fd5b60056000848152602001908152602001600020600083815260200190815260200160002060009054906101000a900473ffffffffffffffffffffffffffffffffffffffff16905092915050565b60008060016000858152602001908152602001600020600084815260200190815260200160002060009054906101000a900473ffffffffffffffffffffffffffffffffffffffff169050600073ffffffffffffffffffffffffffffffffffffffff168173ffffffffffffffffffffffffffffffffffffffff161415151561160a57600080fd5b8091505092915050565b6000600460008473ffffffffffffffffffffffffffffffffffffffff1673ffffffffffffffffffffffffffffffffffffffff16815260200190815260200160002060008373ffffffffffffffffffffffffffffffffffffffff1673ffffffffffffffffffffffffffffffffffffffff16815260200190815260200160002060009054906101000a900460ff16905092915050565b6116b3338484611844565b15156116be57600080fd5b6116cb8585858585611948565b5050505050565b600081600001549050919050565b60008060016000858152602001908152602001600020600084815260200190815260200160002060009054906101000a900473ffffffffffffffffffffffffffffffffffffffff169050600073ffffffffffffffffffffffffffffffffffffffff168173ffffffffffffffffffffffffffffffffffffffff16141591505092915050565b600061177083836116e0565b151561180a576040517f08c379a00000000000000000000000000000000000000000000000000000000081526004018080602001828103825260298152602001807f455243583a206f70657261746f7220717565727920666f72206e6f6e6578697381526020017f74656e74206974656d000000000000000000000000000000000000000000000081525060400191505060405180910390fd5b60066000848152602001908152602001600020600083815260200190815260200160002060009054906101000a900460ff16905092915050565b600061185083836116e0565b151561185b57600080fd5b60006118678484611584565b9050600061187585856114fb565b90508173ffffffffffffffffffffffffffffffffffffffff168673ffffffffffffffffffffffffffffffffffffffff1614806118dc57508073ffffffffffffffffffffffffffffffffffffffff168673ffffffffffffffffffffffffffffffffffffffff16145b8061191b57508573ffffffffffffffffffffffffffffffffffffffff166119038686610b68565b73ffffffffffffffffffffffffffffffffffffffff16145b8061192c575061192b8287611614565b5b8061193d575061193c8187611614565b5b925050509392505050565b61195485858585611973565b6119618585858585611b99565b151561196c57600080fd5b5050505050565b8373ffffffffffffffffffffffffffffffffffffffff166119948383611584565b73ffffffffffffffffffffffffffffffffffffffff161415156119b657600080fd5b600073ffffffffffffffffffffffffffffffffffffffff168373ffffffffffffffffffffffffffffffffffffffff16141515156119f257600080fd5b6119fc8282611dfd565b611a54600360008673ffffffffffffffffffffffffffffffffffffffff1673ffffffffffffffffffffffffffffffffffffffff1681526020019081526020016000206000838152602001908152602001600020611fbf565b611aac600360008573ffffffffffffffffffffffffffffffffffffffff1673ffffffffffffffffffffffffffffffffffffffff1681526020019081526020016000206000838152602001908152602001600020611fe2565b8260016000848152602001908152602001600020600083815260200190815260200160002060006101000a81548173ffffffffffffffffffffffffffffffffffffffff021916908373ffffffffffffffffffffffffffffffffffffffff1602179055508273ffffffffffffffffffffffffffffffffffffffff168473ffffffffffffffffffffffffffffffffffffffff163373ffffffffffffffffffffffffffffffffffffffff167f1b3d7edb2e9c0b0e7c525b20aaaef0f5940d2ed71663c7d39266ecafac7288598585604051808381526020018281526020019250505060405180910390a450505050565b6000611bba8573ffffffffffffffffffffffffffffffffffffffff16611ff8565b1515611bc95760019050611df4565b60008573ffffffffffffffffffffffffffffffffffffffff16631c14516233898888886040518663ffffffff167c0100000000000000000000000000000000000000000000000000000000028152600401808673ffffffffffffffffffffffffffffffffffffffff1673ffffffffffffffffffffffffffffffffffffffff1681526020018573ffffffffffffffffffffffffffffffffffffffff1673ffffffffffffffffffffffffffffffffffffffff16815260200184815260200183815260200180602001828103825283818151815260200191508051906020019080838360005b83811015611cc7578082015181840152602081019050611cac565b50505050905090810190601f168015611cf45780820380516001836020036101000a031916815260200191505b509650505050505050602060405180830381600087803b158015611d1757600080fd5b505af1158015611d2b573d6000803e3d6000fd5b505050506040513d6020811015611d4157600080fd5b8101908080519060200190929190505050905060405180807f6f6e45524358526563656976656428616464726573732c616464726573732c7581526020017f696e743235362c62797465732900000000000000000000000000000000000000815250602d01905060405180910390207bffffffffffffffffffffffffffffffffffffffffffffffffffffffff1916817bffffffffffffffffffffffffffffffffffffffffffffffffffffffff1916149150505b95945050505050565b600073ffffffffffffffffffffffffffffffffffffffff1660026000848152602001908152602001600020600083815260200190815260200160002060009054906101000a900473ffffffffffffffffffffffffffffffffffffffff1673ffffffffffffffffffffffffffffffffffffffff16141515611edc57600060026000848152602001908152602001600020600083815260200190815260200160002060006101000a81548173ffffffffffffffffffffffffffffffffffffffff021916908373ffffffffffffffffffffffffffffffffffffffff1602179055505b600073ffffffffffffffffffffffffffffffffffffffff1660056000848152602001908152602001600020600083815260200190815260200160002060009054906101000a900473ffffffffffffffffffffffffffffffffffffffff1673ffffffffffffffffffffffffffffffffffffffff16141515611fbb57600060056000848152602001908152602001600020600083815260200190815260200160002060006101000a81548173ffffffffffffffffffffffffffffffffffffffff021916908373ffffffffffffffffffffffffffffffffffffffff1602179055505b5050565b611fd76001826000015461200b90919063ffffffff16565b816000018190555050565b6001816000016000828254019250508190555050565b600080823b905060008111915050919050565b6000828211151515612085576040517f08c379a000000000000000000000000000000000000000000000000000000000815260040180806020018281038252601e8152602001807f536166654d6174683a207375627472616374696f6e206f766572666c6f77000081525060200191505060405180910390fd5b60008284039050809150509291505056fea165627a7a72305820ba5f0b31ce4d658354883765750a6c4105be688cd6be51443bbef75b5fdfea150029",
  "source": "pragma solidity ^0.5.0;\n\nimport './ERCX.sol';\nimport '../Interface/IERCXMetadata.sol';\n\ncontract ERCXMetadata is ERC165, ERCX, IERCXMetadata {\n  // item name\n  string internal _name;\n\n  // item symbol\n  string internal _symbol;\n\n  // Optional mapping for item URIs\n  mapping(uint256 => string) private _itemURIs;\n\n  bytes4 private constant InterfaceId_ERCXMetadata =\n    bytes4(keccak256('name()')) ^\n    bytes4(keccak256('symbol()')) ^\n    bytes4(keccak256('itemURI(uint256)'));\n\n  /**\n   * @dev Constructor function\n   */\n  constructor(string memory name, string memory symbol) public {\n    _name = name;\n    _symbol = symbol;\n\n    // register the supported interfaces to conform to ERCX via ERC165\n    _registerInterface(InterfaceId_ERCXMetadata);\n  }\n\n  /**\n   * @dev Gets the item name\n   * @return string representing the item name\n   */\n  function name() external view returns (string memory) {\n    return _name;\n  }\n\n  /**\n   * @dev Gets the item symbol\n   * @return string representing the item symbol\n   */\n  function symbol() external view returns (string memory) {\n    return _symbol;\n  }\n\n  /**\n   * @dev Returns an URI for a given item ID\n   * Throws if the item ID does not exist. May return an empty string.\n   * @param itemId uint256 ID of the item to query\n   */\n  function itemURI(uint256 itemId) public view returns (string memory) {\n    require(_exists(itemId,1));\n    return _itemURIs[itemId];\n  }\n\n  /**\n   * @dev Internal function to set the item URI for a given item\n   * Reverts if the item ID does not exist\n   * @param itemId uint256 ID of the item to set its URI\n   * @param uri string URI to assign\n   */\n  function _setItemURI(uint256 itemId, string memory uri) internal {\n    require(_exists(itemId,1));\n    _itemURIs[itemId] = uri;\n  }\n\n  /**\n   * @dev Internal function to burn a specific item\n   * Reverts if the item does not exist\n   * @param itemId uint256 ID of the item being burned by the msg.sender\n   */\n  function _burn(uint256 itemId) internal {\n    super._burn(itemId);\n\n    // Clear metadata (if any)\n    if (bytes(_itemURIs[itemId]).length != 0) {\n      delete _itemURIs[itemId];\n    }\n  }\n}\n\n\n\n\n",
  "sourcePath": "/Users/kohshiba/Desktop/Deed/ERCX/contracts/ERCX/Contract/ERCXMetadata.sol",
  "compiler": {
    "name": "solc",
    "version": "0.5.0+commit.1d4f565a.Emscripten.clang"
  },
  "schemaVersion": "3.0.1",
  "updatedAt": "2019-11-30T03:58:21.972Z",
  "devdoc": {
    "methods": {
      "approveTransfer(address,uint256,uint256)": {
        "details": "Approves another address to transfer the given item ID The zero address indicates there is no approved address. There can only be one approved address per item at a given time. Can only be called by the item owner or an approved operator.",
        "params": {
          "itemId": "uint256 ID of the item to be approved",
          "layer": "uint256 number to specify the layer",
          "to": "address to be approved for the given item ID"
        }
      },
      "approveTransferLimitFor(address,uint256,uint256)": {
        "details": "Approves another address to suspend the transfer right of the given item ID The zero address indicates there is no approved address. There can only be one approved address per item at a given time. Can only be called by the item owner or an approved operator.",
        "params": {
          "itemId": "uint256 ID of the item to be approved",
          "layer": "uint256 number to specify the layer",
          "to": "address to be approved for the given item ID"
        }
      },
      "balanceOf(address,uint256)": {
        "details": "Gets the balance of the specified address",
        "params": {
          "layer": "uint256 number to specify the layer",
          "owner": "address to query the balance of"
        },
        "return": "uint256 representing the amount of items owned by the passed address in the specified layer"
      },
      "constructor": {
        "details": "Constructor function"
      },
      "getApprovedTransfer(uint256,uint256)": {
        "details": "Gets the approved address for a item ID, or zero if no address set Reverts if the item ID does not exist.",
        "params": {
          "itemId": "uint256 ID of the item to query the approval of",
          "layer": "uint256 number to specify the layer"
        },
        "return": "address currently approved for the given item ID"
      },
      "getApprovedTransferLimit(uint256,uint256)": {
        "details": "Gets the approved address for suspension for transfer a item ID, or zero if no address set Reverts if the item ID does not exist.",
        "params": {
          "itemId": "uint256 ID of the item to query the approval of",
          "layer": "uint256 number to specify the layer"
        },
        "return": "address currently approved for the given item ID"
      },
      "isApprovedForAll(address,address)": {
        "details": "Tells whether an operator is approved by a given owner",
        "params": {
          "operator": "operator address which you want to query the approval of",
          "owner": "owner address which you want to query the approval of"
        },
        "return": "bool whether the given operator is approved by the given owner"
      },
      "itemURI(uint256)": {
        "details": "Returns an URI for a given item ID Throws if the item ID does not exist. May return an empty string.",
        "params": {
          "itemId": "uint256 ID of the item to query"
        }
      },
      "name()": {
        "details": "Gets the item name",
        "return": "string representing the item name"
      },
      "ownerOf(uint256,uint256)": {
        "details": "Gets the owner of the specified item ID",
        "params": {
          "itemId": "uint256 ID of the item to query the owner of",
          "layer": "uint256 number to specify the layer"
        },
        "return": "owner address currently marked as the owner of the given item ID in the specified layer"
      },
      "revokeTransferLimitFor(uint256,uint256)": {
        "details": "Revole the limitation of transferability of the specified item.   * Requires the msg sender to be the setter of the limitation",
        "params": {
          "itemId": "uint256 ID of the item to be transferred",
          "layer": "uint256 number to specify the layer"
        }
      },
      "safeTransferFrom(address,address,uint256,uint256)": {
        "details": "Safely transfers the ownership of a given item ID to another address If the target address is a contract, it must implement `onERCXReceived`, which is called upon a safe transfer, and return the magic value `bytes4(keccak256(\"onERCXReceived(address,address,uint256,bytes)\"))`; otherwise, the transfer is reverted.   * Requires the msg sender to be the owner, approved, or operator",
        "params": {
          "from": "current owner of the item",
          "itemId": "uint256 ID of the item to be transferred",
          "layer": "uint256 number to specify the layer",
          "to": "address to receive the ownership of the given item ID"
        }
      },
      "safeTransferFrom(address,address,uint256,uint256,bytes)": {
        "details": "Safely transfers the ownership of a given item ID to another address If the target address is a contract, it must implement `onERCXReceived`, which is called upon a safe transfer, and return the magic value `bytes4(keccak256(\"onERCXReceived(address,address,uint256,bytes)\"))`; otherwise, the transfer is reverted. Requires the msg sender to be the owner, approved, or operator",
        "params": {
          "data": "bytes data to send along with a safe transfer check",
          "from": "current owner of the item",
          "itemId": "uint256 ID of the item to be transferred",
          "layer": "uint256 number to specify the layer",
          "to": "address to receive the ownership of the given item ID"
        }
      },
      "setApprovalForAll(address,bool)": {
        "details": "Sets or unsets the approval of a given operator An operator is allowed to transfer all items of the sender on their behalf",
        "params": {
          "approved": "representing the status of the approval to be set",
          "to": "operator address to set the approval"
        }
      },
      "setTransferLimitFor(uint256,uint256)": {
        "details": "Limit the transferability of the specified item. msg.sender should be permitted by either owner or so(super owner)",
        "params": {
          "itemId": "uint256 ID of the item to be transferred",
          "layer": "uint256 number to specify the layer"
        }
      },
      "superOf(uint256,uint256)": {
        "details": "Gets the upper layer address of the owner of the specified item ID",
        "params": {
          "itemId": "uint256 ID of the item to query the owner of",
          "layer": "uint256 number to specify the layer"
        },
        "return": "the upper layer address currently marked as the owner of the given item ID in the specified layer"
      },
      "supportsInterface(bytes4)": {
        "details": "See `IERC165.supportsInterface`.     * Time complexity O(1), guaranteed to always use less than 30 000 gas."
      },
      "symbol()": {
        "details": "Gets the item symbol",
        "return": "string representing the item symbol"
      }
    }
  },
  "userdoc": {
    "methods": {}
  }
}