{
  "contractName": "ERCX",
  "abi": [
    {
      "constant": true,
      "inputs": [
        {
          "name": "interfaceId",
          "type": "bytes4"
        }
      ],
      "name": "supportsInterface",
      "outputs": [
        {
          "name": "",
          "type": "bool"
        }
      ],
      "payable": false,
      "stateMutability": "view",
      "type": "function"
    },
    {
      "inputs": [],
      "payable": false,
      "stateMutability": "nonpayable",
      "type": "constructor"
    },
    {
      "anonymous": false,
      "inputs": [
        {
          "indexed": true,
          "name": "operator",
          "type": "address"
        },
        {
          "indexed": true,
          "name": "from",
          "type": "address"
        },
        {
          "indexed": true,
          "name": "to",
          "type": "address"
        },
        {
          "indexed": false,
          "name": "itemId",
          "type": "uint256"
        },
        {
          "indexed": false,
          "name": "layer",
          "type": "uint256"
        }
      ],
      "name": "Transfer",
      "type": "event"
    },
    {
      "anonymous": false,
      "inputs": [
        {
          "indexed": true,
          "name": "operator",
          "type": "address"
        },
        {
          "indexed": true,
          "name": "itemId",
          "type": "uint256"
        },
        {
          "indexed": true,
          "name": "layer",
          "type": "uint256"
        },
        {
          "indexed": false,
          "name": "satus",
          "type": "bool"
        }
      ],
      "name": "TransferLimitSet",
      "type": "event"
    },
    {
      "anonymous": false,
      "inputs": [
        {
          "indexed": true,
          "name": "owner",
          "type": "address"
        },
        {
          "indexed": true,
          "name": "approved",
          "type": "address"
        },
        {
          "indexed": false,
          "name": "itemId",
          "type": "uint256"
        },
        {
          "indexed": false,
          "name": "layer",
          "type": "uint256"
        }
      ],
      "name": "ApprovalTransfer",
      "type": "event"
    },
    {
      "anonymous": false,
      "inputs": [
        {
          "indexed": true,
          "name": "owner",
          "type": "address"
        },
        {
          "indexed": true,
          "name": "operator",
          "type": "address"
        },
        {
          "indexed": false,
          "name": "approved",
          "type": "bool"
        }
      ],
      "name": "ApprovalForAll",
      "type": "event"
    },
    {
      "anonymous": false,
      "inputs": [
        {
          "indexed": true,
          "name": "owner",
          "type": "address"
        },
        {
          "indexed": true,
          "name": "approved",
          "type": "address"
        },
        {
          "indexed": false,
          "name": "itemId",
          "type": "uint256"
        },
        {
          "indexed": false,
          "name": "layer",
          "type": "uint256"
        }
      ],
      "name": "ApprovalTransferLimit",
      "type": "event"
    },
    {
      "constant": true,
      "inputs": [
        {
          "name": "owner",
          "type": "address"
        },
        {
          "name": "layer",
          "type": "uint256"
        }
      ],
      "name": "balanceOf",
      "outputs": [
        {
          "name": "",
          "type": "uint256"
        }
      ],
      "payable": false,
      "stateMutability": "view",
      "type": "function"
    },
    {
      "constant": true,
      "inputs": [
        {
          "name": "itemId",
          "type": "uint256"
        },
        {
          "name": "layer",
          "type": "uint256"
        }
      ],
      "name": "ownerOf",
      "outputs": [
        {
          "name": "",
          "type": "address"
        }
      ],
      "payable": false,
      "stateMutability": "view",
      "type": "function"
    },
    {
      "constant": true,
      "inputs": [
        {
          "name": "itemId",
          "type": "uint256"
        },
        {
          "name": "layer",
          "type": "uint256"
        }
      ],
      "name": "superOf",
      "outputs": [
        {
          "name": "",
          "type": "address"
        }
      ],
      "payable": false,
      "stateMutability": "view",
      "type": "function"
    },
    {
      "constant": false,
      "inputs": [
        {
          "name": "to",
          "type": "address"
        },
        {
          "name": "itemId",
          "type": "uint256"
        },
        {
          "name": "layer",
          "type": "uint256"
        }
      ],
      "name": "approveTransfer",
      "outputs": [],
      "payable": false,
      "stateMutability": "nonpayable",
      "type": "function"
    },
    {
      "constant": true,
      "inputs": [
        {
          "name": "itemId",
          "type": "uint256"
        },
        {
          "name": "layer",
          "type": "uint256"
        }
      ],
      "name": "getApprovedTransfer",
      "outputs": [
        {
          "name": "",
          "type": "address"
        }
      ],
      "payable": false,
      "stateMutability": "view",
      "type": "function"
    },
    {
      "constant": false,
      "inputs": [
        {
          "name": "to",
          "type": "address"
        },
        {
          "name": "itemId",
          "type": "uint256"
        },
        {
          "name": "layer",
          "type": "uint256"
        }
      ],
      "name": "approveTransferLimitFor",
      "outputs": [],
      "payable": false,
      "stateMutability": "nonpayable",
      "type": "function"
    },
    {
      "constant": true,
      "inputs": [
        {
          "name": "itemId",
          "type": "uint256"
        },
        {
          "name": "layer",
          "type": "uint256"
        }
      ],
      "name": "getApprovedTransferLimit",
      "outputs": [
        {
          "name": "",
          "type": "address"
        }
      ],
      "payable": false,
      "stateMutability": "view",
      "type": "function"
    },
    {
      "constant": false,
      "inputs": [
        {
          "name": "to",
          "type": "address"
        },
        {
          "name": "approved",
          "type": "bool"
        }
      ],
      "name": "setApprovalForAll",
      "outputs": [],
      "payable": false,
      "stateMutability": "nonpayable",
      "type": "function"
    },
    {
      "constant": true,
      "inputs": [
        {
          "name": "owner",
          "type": "address"
        },
        {
          "name": "operator",
          "type": "address"
        }
      ],
      "name": "isApprovedForAll",
      "outputs": [
        {
          "name": "",
          "type": "bool"
        }
      ],
      "payable": false,
      "stateMutability": "view",
      "type": "function"
    },
    {
      "constant": false,
      "inputs": [
        {
          "name": "itemId",
          "type": "uint256"
        },
        {
          "name": "layer",
          "type": "uint256"
        }
      ],
      "name": "setTransferLimitFor",
      "outputs": [],
      "payable": false,
      "stateMutability": "nonpayable",
      "type": "function"
    },
    {
      "constant": false,
      "inputs": [
        {
          "name": "itemId",
          "type": "uint256"
        },
        {
          "name": "layer",
          "type": "uint256"
        }
      ],
      "name": "revokeTransferLimitFor",
      "outputs": [],
      "payable": false,
      "stateMutability": "nonpayable",
      "type": "function"
    },
    {
      "constant": false,
      "inputs": [
        {
          "name": "from",
          "type": "address"
        },
        {
          "name": "to",
          "type": "address"
        },
        {
          "name": "itemId",
          "type": "uint256"
        },
        {
          "name": "layer",
          "type": "uint256"
        }
      ],
      "name": "safeTransferFrom",
      "outputs": [],
      "payable": false,
      "stateMutability": "nonpayable",
      "type": "function"
    },
    {
      "constant": false,
      "inputs": [
        {
          "name": "from",
          "type": "address"
        },
        {
          "name": "to",
          "type": "address"
        },
        {
          "name": "itemId",
          "type": "uint256"
        },
        {
          "name": "layer",
          "type": "uint256"
        },
        {
          "name": "data",
          "type": "bytes"
        }
      ],
      "name": "safeTransferFrom",
      "outputs": [],
      "payable": false,
      "stateMutability": "nonpayable",
      "type": "function"
    }
  ],
  "bytecode": "0x608060405234801561001057600080fd5b5061004c6301ffc9a77c0100000000000000000000000000000000000000000000000000000000026104ae640100000000026401000000009004565b6104a960405180807f7265766f6b655472616e736665724c696d6974466f722875696e743235362cc281526020017fa075696e743235362900000000000000000000000000000000000000000000008152506029019050604051809103902060405180807f7365745472616e736665724c696d6974466f722875696e743235362cc2a0756981526020017f6e743235362900000000000000000000000000000000000000000000000000008152506026019050604051809103902060405180807f676574417070726f7665645472616e736665724c696d69742875696e7432353681526020017f2cc2a075696e7432353629000000000000000000000000000000000000000000815250602b019050604051809103902060405180807f617070726f76655472616e736665724c696d6974466f7228616464726573732c81526020017fc2a075696e743235362cc2a075696e74323536290000000000000000000000008152506034019050604051809103902060405180807f6973417070726f766564466f72416c6c28616464726573732cc2a0616464726581526020017f73732900000000000000000000000000000000000000000000000000000000008152506023019050604051809103902060405180807f736574417070726f76616c466f72416c6c28616464726573732cc2a0626f6f6c81526020017f29000000000000000000000000000000000000000000000000000000000000008152506021019050604051809103902060405180807f676574417070726f7665645472616e736665722875696e743235362cc2a0756981526020017f6e743235362900000000000000000000000000000000000000000000000000008152506026019050604051809103902060405180807f617070726f76655472616e7366657228616464726573732cc2a075696e74323581526020017f362cc2a075696e74323536290000000000000000000000000000000000000000815250602c019050604051809103902060405180807f736166655472616e7366657246726f6d28616464726573732cc2a0616464726581526020017f73732cc2a075696e743235362cc2a075696e743235362cc2a062797465732900815250603f019050604051809103902060405180807f736166655472616e7366657246726f6d28616464726573732cc2a0616464726581526020017f73732cc2a075696e743235362cc2a075696e74323536290000000000000000008152506037019050604051809103902060405180807f73757065724f662875696e743235362cc2a075696e7432353629000000000000815250601a019050604051809103902060405180807f6f776e65724f662875696e743235362cc2a075696e7432353629000000000000815250601a019050604051809103902060405180807f62616c616e63654f6628616464726573732cc2a075696e743235362900000000815250601c01905060405180910390201818181818181818181818186104ae640100000000026401000000009004565b6105d4565b63ffffffff7c010000000000000000000000000000000000000000000000000000000002817bffffffffffffffffffffffffffffffffffffffffffffffffffffffff191614151515610568576040517f08c379a000000000000000000000000000000000000000000000000000000000815260040180806020018281038252601c8152602001807f4552433136353a20696e76616c696420696e746572666163652069640000000081525060200191505060405180910390fd5b6001600080837bffffffffffffffffffffffffffffffffffffffffffffffffffffffff19167bffffffffffffffffffffffffffffffffffffffffffffffffffffffff1916815260200190815260200160002060006101000a81548160ff02191690831515021790555050565b611cbe80620005e46000396000f3fe6080604052600436106100cf576000357c0100000000000000000000000000000000000000000000000000000000900463ffffffff168062fdd58e146100d457806301ffc9a7146101435780630febdd49146101b557806321d891321461023a5780634eeb9599146102bf5780636aeae077146103245780639dc1c61614610369578063a22cb465146103ae578063a4fdae9e1461040b578063b4f453eb14610470578063c34e2af2146104f5578063d9dad80d1461057a578063e985e9c5146105ff578063f242432a14610688575b600080fd5b3480156100e057600080fd5b5061012d600480360360408110156100f757600080fd5b81019080803573ffffffffffffffffffffffffffffffffffffffff169060200190929190803590602001909291905050506107a4565b6040518082815260200191505060405180910390f35b34801561014f57600080fd5b5061019b6004803603602081101561016657600080fd5b8101908080357bffffffffffffffffffffffffffffffffffffffffffffffffffffffff19169060200190929190505050610847565b604051808215151515815260200191505060405180910390f35b3480156101c157600080fd5b50610238600480360360808110156101d857600080fd5b81019080803573ffffffffffffffffffffffffffffffffffffffff169060200190929190803573ffffffffffffffffffffffffffffffffffffffff16906020019092919080359060200190929190803590602001909291905050506108ae565b005b34801561024657600080fd5b5061027d6004803603604081101561025d57600080fd5b8101908080359060200190929190803590602001909291905050506108d1565b604051808273ffffffffffffffffffffffffffffffffffffffff1673ffffffffffffffffffffffffffffffffffffffff16815260200191505060405180910390f35b3480156102cb57600080fd5b50610322600480360360608110156102e257600080fd5b81019080803573ffffffffffffffffffffffffffffffffffffffff1690602001909291908035906020019092919080359060200190929190505050610935565b005b34801561033057600080fd5b506103676004803603604081101561034757600080fd5b810190808035906020019092919080359060200190929190505050610b2c565b005b34801561037557600080fd5b506103ac6004803603604081101561038c57600080fd5b810190808035906020019092919080359060200190929190505050610cbd565b005b3480156103ba57600080fd5b50610409600480360360408110156103d157600080fd5b81019080803573ffffffffffffffffffffffffffffffffffffffff169060200190929190803515159060200190929190505050610e51565b005b34801561041757600080fd5b5061046e6004803603606081101561042e57600080fd5b81019080803573ffffffffffffffffffffffffffffffffffffffff1690602001909291908035906020019092919080359060200190929190505050610f8d565b005b34801561047c57600080fd5b506104b36004803603604081101561049357600080fd5b8101908080359060200190929190803590602001909291905050506110f7565b604051808273ffffffffffffffffffffffffffffffffffffffff1673ffffffffffffffffffffffffffffffffffffffff16815260200191505060405180910390f35b34801561050157600080fd5b506105386004803603604081101561051857600080fd5b81019080803590602001909291908035906020019092919050505061111c565b604051808273ffffffffffffffffffffffffffffffffffffffff1673ffffffffffffffffffffffffffffffffffffffff16815260200191505060405180910390f35b34801561058657600080fd5b506105bd6004803603604081101561059d57600080fd5b810190808035906020019092919080359060200190929190505050611180565b604051808273ffffffffffffffffffffffffffffffffffffffff1673ffffffffffffffffffffffffffffffffffffffff16815260200191505060405180910390f35b34801561060b57600080fd5b5061066e6004803603604081101561062257600080fd5b81019080803573ffffffffffffffffffffffffffffffffffffffff169060200190929190803573ffffffffffffffffffffffffffffffffffffffff169060200190929190505050611210565b604051808215151515815260200191505060405180910390f35b34801561069457600080fd5b506107a2600480360360a08110156106ab57600080fd5b81019080803573ffffffffffffffffffffffffffffffffffffffff169060200190929190803573ffffffffffffffffffffffffffffffffffffffff16906020019092919080359060200190929190803590602001909291908035906020019064010000000081111561071c57600080fd5b82018360208201111561072e57600080fd5b8035906020019184600183028401116401000000008311171561075057600080fd5b91908080601f016020809104026020016040519081016040528093929190818152602001838380828437600081840152601f19601f8201169050808301925050505050505091929192905050506112a4565b005b60008073ffffffffffffffffffffffffffffffffffffffff168373ffffffffffffffffffffffffffffffffffffffff16141515156107e157600080fd5b600061083b600360008673ffffffffffffffffffffffffffffffffffffffff1673ffffffffffffffffffffffffffffffffffffffff16815260200190815260200160002060008581526020019081526020016000206112ce565b90508091505092915050565b6000806000837bffffffffffffffffffffffffffffffffffffffffffffffffffffffff19167bffffffffffffffffffffffffffffffffffffffffffffffffffffffff1916815260200190815260200160002060009054906101000a900460ff169050919050565b6108cb8484848460206040519081016040528060008152506112a4565b50505050565b60006108dd83836112dc565b15156108e857600080fd5b60026000848152602001908152602001600020600083815260200190815260200160002060009054906101000a900473ffffffffffffffffffffffffffffffffffffffff16905092915050565b60006109418383611180565b9050600061094f84846110f7565b90508173ffffffffffffffffffffffffffffffffffffffff168573ffffffffffffffffffffffffffffffffffffffff161415806109b857508073ffffffffffffffffffffffffffffffffffffffff168573ffffffffffffffffffffffffffffffffffffffff1614155b15156109c357600080fd5b8173ffffffffffffffffffffffffffffffffffffffff163373ffffffffffffffffffffffffffffffffffffffff161480610a2857508073ffffffffffffffffffffffffffffffffffffffff163373ffffffffffffffffffffffffffffffffffffffff16145b80610a395750610a388233611210565b5b80610a4a5750610a498133611210565b5b1515610a5557600080fd5b8460056000868152602001908152602001600020600085815260200190815260200160002060006101000a81548173ffffffffffffffffffffffffffffffffffffffff021916908373ffffffffffffffffffffffffffffffffffffffff1602179055508473ffffffffffffffffffffffffffffffffffffffff168273ffffffffffffffffffffffffffffffffffffffff167f8b1ad3e71a0ec93ec04e081864706fc2ec210a392f687c69eb6ef2b48a07475e8686604051808381526020018281526020019250505060405180910390a35050505050565b610b368282611360565b1515610b4157600080fd5b6000610b4d8383611180565b90506000610b5b84846110f7565b9050610b67848461111c565b73ffffffffffffffffffffffffffffffffffffffff163373ffffffffffffffffffffffffffffffffffffffff161480610ba65750610ba58233611210565b5b80610bb75750610bb68133611210565b5b1515610bc257600080fd5b600060066000868152602001908152602001600020600085815260200190815260200160002060006101000a81548160ff0219169083151502179055503360076000868152602001908152602001600020600085815260200190815260200160002060006101000a81548173ffffffffffffffffffffffffffffffffffffffff021916908373ffffffffffffffffffffffffffffffffffffffff16021790555082843373ffffffffffffffffffffffffffffffffffffffff167f2514331937ebcc84179b9aa52d73834b71963727fd1ea5d8234ee6da14e623686001604051808215151515815260200191505060405180910390a450505050565b610cc78282611360565b151515610cd357600080fd5b600060076000848152602001908152602001600020600083815260200190815260200160002060009054906101000a900473ffffffffffffffffffffffffffffffffffffffff1690508073ffffffffffffffffffffffffffffffffffffffff163373ffffffffffffffffffffffffffffffffffffffff16141515610d5657600080fd5b600160066000858152602001908152602001600020600084815260200190815260200160002060006101000a81548160ff021916908315150217905550600060076000858152602001908152602001600020600084815260200190815260200160002060006101000a81548173ffffffffffffffffffffffffffffffffffffffff021916908373ffffffffffffffffffffffffffffffffffffffff16021790555081833373ffffffffffffffffffffffffffffffffffffffff167f2514331937ebcc84179b9aa52d73834b71963727fd1ea5d8234ee6da14e623686000604051808215151515815260200191505060405180910390a4505050565b3373ffffffffffffffffffffffffffffffffffffffff168273ffffffffffffffffffffffffffffffffffffffff1614151515610e8c57600080fd5b80600460003373ffffffffffffffffffffffffffffffffffffffff1673ffffffffffffffffffffffffffffffffffffffff16815260200190815260200160002060008473ffffffffffffffffffffffffffffffffffffffff1673ffffffffffffffffffffffffffffffffffffffff16815260200190815260200160002060006101000a81548160ff0219169083151502179055508173ffffffffffffffffffffffffffffffffffffffff163373ffffffffffffffffffffffffffffffffffffffff167f17307eab39ab6107e8899845ad3d59bd9653f200f220920489ca2b5937696c3183604051808215151515815260200191505060405180910390a35050565b6000610f998383611180565b90508073ffffffffffffffffffffffffffffffffffffffff168473ffffffffffffffffffffffffffffffffffffffff1614151515610fd657600080fd5b8073ffffffffffffffffffffffffffffffffffffffff163373ffffffffffffffffffffffffffffffffffffffff16148061101657506110158133611210565b5b151561102157600080fd5b8360026000858152602001908152602001600020600084815260200190815260200160002060006101000a81548173ffffffffffffffffffffffffffffffffffffffff021916908373ffffffffffffffffffffffffffffffffffffffff1602179055508373ffffffffffffffffffffffffffffffffffffffff168173ffffffffffffffffffffffffffffffffffffffff167fe3d5109fb748529f5f25558d2ca2990867f9c97e6cd0038e06be2afe6538449c8585604051808381526020018281526020019250505060405180910390a350505050565b600080828060010193509050600061110f8583611180565b9050809250505092915050565b600061112883836112dc565b151561113357600080fd5b60056000848152602001908152602001600020600083815260200190815260200160002060009054906101000a900473ffffffffffffffffffffffffffffffffffffffff16905092915050565b60008060016000858152602001908152602001600020600084815260200190815260200160002060009054906101000a900473ffffffffffffffffffffffffffffffffffffffff169050600073ffffffffffffffffffffffffffffffffffffffff168173ffffffffffffffffffffffffffffffffffffffff161415151561120657600080fd5b8091505092915050565b6000600460008473ffffffffffffffffffffffffffffffffffffffff1673ffffffffffffffffffffffffffffffffffffffff16815260200190815260200160002060008373ffffffffffffffffffffffffffffffffffffffff1673ffffffffffffffffffffffffffffffffffffffff16815260200190815260200160002060009054906101000a900460ff16905092915050565b6112af338484611440565b15156112ba57600080fd5b6112c78585858585611544565b5050505050565b600081600001549050919050565b60008060016000858152602001908152602001600020600084815260200190815260200160002060009054906101000a900473ffffffffffffffffffffffffffffffffffffffff169050600073ffffffffffffffffffffffffffffffffffffffff168173ffffffffffffffffffffffffffffffffffffffff16141591505092915050565b600061136c83836112dc565b1515611406576040517f08c379a00000000000000000000000000000000000000000000000000000000081526004018080602001828103825260298152602001807f455243583a206f70657261746f7220717565727920666f72206e6f6e6578697381526020017f74656e74206974656d000000000000000000000000000000000000000000000081525060400191505060405180910390fd5b60066000848152602001908152602001600020600083815260200190815260200160002060009054906101000a900460ff16905092915050565b600061144c83836112dc565b151561145757600080fd5b60006114638484611180565b9050600061147185856110f7565b90508173ffffffffffffffffffffffffffffffffffffffff168673ffffffffffffffffffffffffffffffffffffffff1614806114d857508073ffffffffffffffffffffffffffffffffffffffff168673ffffffffffffffffffffffffffffffffffffffff16145b8061151757508573ffffffffffffffffffffffffffffffffffffffff166114ff86866108d1565b73ffffffffffffffffffffffffffffffffffffffff16145b8061152857506115278287611210565b5b8061153957506115388187611210565b5b925050509392505050565b6115508585858561156f565b61155d8585858585611795565b151561156857600080fd5b5050505050565b8373ffffffffffffffffffffffffffffffffffffffff166115908383611180565b73ffffffffffffffffffffffffffffffffffffffff161415156115b257600080fd5b600073ffffffffffffffffffffffffffffffffffffffff168373ffffffffffffffffffffffffffffffffffffffff16141515156115ee57600080fd5b6115f882826119f9565b611650600360008673ffffffffffffffffffffffffffffffffffffffff1673ffffffffffffffffffffffffffffffffffffffff1681526020019081526020016000206000838152602001908152602001600020611bbb565b6116a8600360008573ffffffffffffffffffffffffffffffffffffffff1673ffffffffffffffffffffffffffffffffffffffff1681526020019081526020016000206000838152602001908152602001600020611bde565b8260016000848152602001908152602001600020600083815260200190815260200160002060006101000a81548173ffffffffffffffffffffffffffffffffffffffff021916908373ffffffffffffffffffffffffffffffffffffffff1602179055508273ffffffffffffffffffffffffffffffffffffffff168473ffffffffffffffffffffffffffffffffffffffff163373ffffffffffffffffffffffffffffffffffffffff167f1b3d7edb2e9c0b0e7c525b20aaaef0f5940d2ed71663c7d39266ecafac7288598585604051808381526020018281526020019250505060405180910390a450505050565b60006117b68573ffffffffffffffffffffffffffffffffffffffff16611bf4565b15156117c557600190506119f0565b60008573ffffffffffffffffffffffffffffffffffffffff16631c14516233898888886040518663ffffffff167c0100000000000000000000000000000000000000000000000000000000028152600401808673ffffffffffffffffffffffffffffffffffffffff1673ffffffffffffffffffffffffffffffffffffffff1681526020018573ffffffffffffffffffffffffffffffffffffffff1673ffffffffffffffffffffffffffffffffffffffff16815260200184815260200183815260200180602001828103825283818151815260200191508051906020019080838360005b838110156118c35780820151818401526020810190506118a8565b50505050905090810190601f1680156118f05780820380516001836020036101000a031916815260200191505b509650505050505050602060405180830381600087803b15801561191357600080fd5b505af1158015611927573d6000803e3d6000fd5b505050506040513d602081101561193d57600080fd5b8101908080519060200190929190505050905060405180807f6f6e45524358526563656976656428616464726573732c616464726573732c7581526020017f696e743235362c62797465732900000000000000000000000000000000000000815250602d01905060405180910390207bffffffffffffffffffffffffffffffffffffffffffffffffffffffff1916817bffffffffffffffffffffffffffffffffffffffffffffffffffffffff1916149150505b95945050505050565b600073ffffffffffffffffffffffffffffffffffffffff1660026000848152602001908152602001600020600083815260200190815260200160002060009054906101000a900473ffffffffffffffffffffffffffffffffffffffff1673ffffffffffffffffffffffffffffffffffffffff16141515611ad857600060026000848152602001908152602001600020600083815260200190815260200160002060006101000a81548173ffffffffffffffffffffffffffffffffffffffff021916908373ffffffffffffffffffffffffffffffffffffffff1602179055505b600073ffffffffffffffffffffffffffffffffffffffff1660056000848152602001908152602001600020600083815260200190815260200160002060009054906101000a900473ffffffffffffffffffffffffffffffffffffffff1673ffffffffffffffffffffffffffffffffffffffff16141515611bb757600060056000848152602001908152602001600020600083815260200190815260200160002060006101000a81548173ffffffffffffffffffffffffffffffffffffffff021916908373ffffffffffffffffffffffffffffffffffffffff1602179055505b5050565b611bd360018260000154611c0790919063ffffffff16565b816000018190555050565b6001816000016000828254019250508190555050565b600080823b905060008111915050919050565b6000828211151515611c81576040517f08c379a000000000000000000000000000000000000000000000000000000000815260040180806020018281038252601e8152602001807f536166654d6174683a207375627472616374696f6e206f766572666c6f77000081525060200191505060405180910390fd5b60008284039050809150509291505056fea165627a7a72305820c85ace1d2da98342214d2dd57d76a41d25b5c356c372d8ab71f5b3c4ee3861ab0029",
  "source": "\npragma solidity ^0.5.0;\n\nimport '../../Libraries/introspection/ERC165.sol';\nimport '../Interface/IERCX.sol';\nimport '../../Libraries/utils/Address.sol';\nimport '../../Libraries/math/SafeMath.sol';\nimport \"../../Libraries/drafts/Counters.sol\";\nimport '../Interface/IERCXReceiver.sol';\n\ncontract ERCX is ERC165, IERCX {\n\n  using SafeMath for uint256;\n  using Address for address;\n  using Counters for Counters.Counter;\n\n  bytes4 private constant _ERCX_RECEIVED = bytes4(keccak256(\"onERCXReceived(address,address,uint256,bytes)\"));\n\n  // Mapping from item ID to layer to owner\n  mapping (uint256 => mapping (uint256 => address)) private _itemOwner;\n\n  // Mapping from item ID to layer to approved address\n  mapping (uint256 => mapping (uint256 => address)) private _transferApprovals;\n\n  // Mapping from owner to layer to number of owned item\n  mapping (address => mapping(uint256 => Counters.Counter)) private _ownedItemsCount;\n\n  // Mapping from owner to operator approvals\n  mapping (address => mapping (address => bool)) private _operatorApprovals;\n\n  // Mapping from item ID to layer to approved address of suspension\n  mapping (uint256 => mapping (uint256 => address)) private _transferLimitApprovals;\n\n  // Mapping from item iD to layer to transferrable status\n  mapping (uint256 => mapping (uint256 => bool)) private _transferLimitStatus;\n\n  // Mapping from item id to layer to limitter address\n  mapping (uint256 => mapping (uint256 => address)) private _transferLimitters;\n\n  bytes4 private constant _InterfaceId_ERCX = \n    bytes4(keccak256(\"balanceOf(address,uint256)\")) ^\n    bytes4(keccak256(\"ownerOf(uint256,uint256)\")) ^\n    bytes4(keccak256(\"superOf(uint256,uint256)\")) ^\n    bytes4(keccak256(\"safeTransferFrom(address,address,uint256,uint256)\")) ^\n    bytes4(keccak256(\"safeTransferFrom(address,address,uint256,uint256,bytes)\")) ^\n    bytes4(keccak256(\"approveTransfer(address,uint256,uint256)\")) ^\n    bytes4(keccak256(\"getApprovedTransfer(uint256,uint256)\")) ^\n    bytes4(keccak256(\"setApprovalForAll(address,bool)\")) ^\n    bytes4(keccak256(\"isApprovedForAll(address,address)\")) ^\n    bytes4(keccak256(\"approveTransferLimitFor(address,uint256,uint256)\")) ^\n    bytes4(keccak256(\"getApprovedTransferLimit(uint256,uint256)\")) ^\n    bytes4(keccak256(\"setTransferLimitFor(uint256,uint256)\")) ^\n    bytes4(keccak256(\"revokeTransferLimitFor(uint256,uint256)\"));\n\n  constructor()\n    public\n  {\n    // register the supported interfaces to conform to ERCX via ERC165\n    _registerInterface(_InterfaceId_ERCX);\n  }\n\n  /**\n   * @dev Gets the balance of the specified address\n   * @param owner address to query the balance of\n   * @param layer uint256 number to specify the layer\n   * @return uint256 representing the amount of items owned by the passed address in the specified layer\n   */\n  function balanceOf(address owner, uint256 layer) public view returns (uint256) {\n    require(owner != address(0));\n    uint256 balance = _ownedItemsCount[owner][layer].current();\n    return balance;\n  }\n\n  /**\n   * @dev Gets the owner of the specified item ID\n   * @param itemId uint256 ID of the item to query the owner of\n   * @param layer uint256 number to specify the layer\n   * @return owner address currently marked as the owner of the given item ID in the specified layer\n   */\n  function ownerOf(uint256 itemId, uint256 layer) public view returns (address) {\n    address owner = _itemOwner[itemId][layer];\n    require(owner != address(0));\n    return owner;\n  }\n\n  /**\n   * @dev Gets the upper layer address of the owner of the specified item ID\n   * @param itemId uint256 ID of the item to query the owner of\n   * @param layer uint256 number to specify the layer\n   * @return the upper layer address currently marked as the owner of the given item ID in the specified layer\n   */\n  function superOf(uint256 itemId, uint256 layer) public view returns (address) {\n    uint256 upperLayer = layer ++;\n    address owner = ownerOf(itemId, upperLayer);\n    return owner;\n  }\n\n  /**\n   * @dev Approves another address to transfer the given item ID\n   * The zero address indicates there is no approved address.\n   * There can only be one approved address per item at a given time.\n   * Can only be called by the item owner or an approved operator.\n   * @param to address to be approved for the given item ID\n   * @param itemId uint256 ID of the item to be approved\n   * @param layer uint256 number to specify the layer\n   */\n  function approveTransfer(address to, uint256 itemId, uint256 layer) public {\n    \n    address owner = ownerOf(itemId, layer);\n    require(to != owner);\n    require(msg.sender == owner || isApprovedForAll(owner, msg.sender));\n\n    _transferApprovals[itemId][layer] = to;\n    emit ApprovalTransfer(owner, to, itemId, layer);\n  }\n\n  /**\n   * @dev Gets the approved address for a item ID, or zero if no address set\n   * Reverts if the item ID does not exist.\n   * @param itemId uint256 ID of the item to query the approval of\n   * @param layer uint256 number to specify the layer\n   * @return address currently approved for the given item ID\n   */\n  function getApprovedTransfer(uint256 itemId, uint256 layer) public view returns (address) {\n    require(_exists(itemId, layer));\n    return _transferApprovals[itemId][layer];\n  }\n\n  /**\n   * @dev Approves another address to suspend the transfer right of the given item ID\n   * The zero address indicates there is no approved address.\n   * There can only be one approved address per item at a given time.\n   * Can only be called by the item owner or an approved operator.\n   * @param to address to be approved for the given item ID\n   * @param itemId uint256 ID of the item to be approved\n   * @param layer uint256 number to specify the layer\n   */\n  function approveTransferLimitFor(address to, uint256 itemId, uint256 layer) public {\n    \n    address owner = ownerOf(itemId, layer);\n    address so = superOf(itemId, layer);\n    require(to != owner || to != so );\n    require(msg.sender == owner || msg.sender == so || isApprovedForAll(owner, msg.sender) || isApprovedForAll(so, msg.sender));\n\n    _transferLimitApprovals[itemId][layer] = to;\n     emit ApprovalTransferLimit(owner, to, itemId, layer);\n\n  }\n\n  /**\n   * @dev Gets the approved address for suspension for transfer a item ID, or zero if no address set\n   * Reverts if the item ID does not exist.\n   * @param itemId uint256 ID of the item to query the approval of\n   * @param layer uint256 number to specify the layer\n   * @return address currently approved for the given item ID\n   */\n  function getApprovedTransferLimit(uint256 itemId, uint256 layer) public view returns (address) {\n    require(_exists(itemId, layer));\n    return _transferLimitApprovals[itemId][layer];\n  }\n\n  /**\n   * @dev Sets or unsets the approval of a given operator\n   * An operator is allowed to transfer all items of the sender on their behalf\n   * @param to operator address to set the approval\n   * @param approved representing the status of the approval to be set\n   */\n  function setApprovalForAll(address to, bool approved) public {\n    require(to != msg.sender);\n    _operatorApprovals[msg.sender][to] = approved;\n    emit ApprovalForAll(msg.sender, to, approved);\n  }\n\n  /**\n   * @dev Tells whether an operator is approved by a given owner\n   * @param owner owner address which you want to query the approval of\n   * @param operator operator address which you want to query the approval of\n   * @return bool whether the given operator is approved by the given owner\n   */\n  function isApprovedForAll(address owner, address operator) public view returns (bool){\n    return _operatorApprovals[owner][operator];\n  }\n\n  /**\n   * @dev Limit the transferability of the specified item.\n   * msg.sender should be permitted by either owner or so(super owner)\n   * @param itemId uint256 ID of the item to be transferred\n   * @param layer uint256 number to specify the layer\n  */\n  function setTransferLimitFor(uint256 itemId, uint256 layer) public {\n    \n    require(_isTransferrable(itemId, layer));\n    address owner = ownerOf(itemId, layer);\n    address so = superOf(itemId, layer);\n    require(msg.sender == getApprovedTransferLimit(itemId, layer) || isApprovedForAll(owner, msg.sender) || isApprovedForAll(so, msg.sender));\n\n    _transferLimitStatus[itemId][layer] = false;\n    _transferLimitters[itemId][layer] = msg.sender;\n    emit TransferLimitSet(msg.sender, itemId, layer, true);\n\n  }\n\n  /**\n   * @dev Revole the limitation of transferability of the specified item.\n   *\n   * Requires the msg sender to be the setter of the limitation\n   * @param itemId uint256 ID of the item to be transferred\n   * @param layer uint256 number to specify the layer\n  */\n  function revokeTransferLimitFor(uint256 itemId, uint256 layer) public {\n    \n    require(!_isTransferrable(itemId, layer));\n    address limitter = _transferLimitters[itemId][layer];\n    require(msg.sender == limitter);\n\n    _transferLimitStatus[itemId][layer] = true;\n    _transferLimitters[itemId][layer] = address(0);\n    emit TransferLimitSet(msg.sender, itemId, layer, false);\n\n  }\n\n  /**\n   * @dev Safely transfers the ownership of a given item ID to another address\n   * If the target address is a contract, it must implement `onERCXReceived`,\n   * which is called upon a safe transfer, and return the magic value\n   * `bytes4(keccak256(\"onERCXReceived(address,address,uint256,bytes)\"))`; otherwise,\n   * the transfer is reverted.\n   *\n   * Requires the msg sender to be the owner, approved, or operator\n   * @param from current owner of the item\n   * @param to address to receive the ownership of the given item ID\n   * @param itemId uint256 ID of the item to be transferred\n   * @param layer uint256 number to specify the layer\n  */\n  function safeTransferFrom(\n    address from,\n    address to,\n    uint256 itemId,\n    uint256 layer\n  )\n    public\n  {\n    // solium-disable-next-line arg-overflow\n    safeTransferFrom(from, to, itemId, layer, \"\");\n  }\n\n  /**\n   * @dev Safely transfers the ownership of a given item ID to another address\n   * If the target address is a contract, it must implement `onERCXReceived`,\n   * which is called upon a safe transfer, and return the magic value\n   * `bytes4(keccak256(\"onERCXReceived(address,address,uint256,bytes)\"))`; otherwise,\n   * the transfer is reverted.\n   * Requires the msg sender to be the owner, approved, or operator\n   * @param from current owner of the item\n   * @param to address to receive the ownership of the given item ID\n   * @param itemId uint256 ID of the item to be transferred\n   * @param layer uint256 number to specify the layer\n   * @param data bytes data to send along with a safe transfer check\n   */\n  function safeTransferFrom(\n    address from,\n    address to,\n    uint256 itemId,\n    uint256 layer,\n    bytes memory data\n  )\n    public\n  {\n    require(_isEligibleForTransfer(msg.sender, itemId, layer));\n    _safeTransferFrom(from, to, itemId, layer, data);\n  }\n\n  /**\n    * @dev Safely transfers the ownership of a given item ID to another address\n    * If the target address is a contract, it must implement `onERCXReceived`,\n    * which is called upon a safe transfer, and return the magic value\n    * `bytes4(keccak256(\"onERCXReceived(address,address,uint256,bytes)\"))`; otherwise,\n    * the transfer is reverted.\n    * Requires the msg.sender to be the owner, approved, or operator\n    * @param from current owner of the item\n    * @param to address to receive the ownership of the given item ID\n    * @param itemId uint256 ID of the item to be transferred\n    * @param layer uint256 number to specify the layer\n    * @param data bytes data to send along with a safe transfer check\n    */\n  function _safeTransferFrom(address from, address to, uint256 itemId, uint256 layer, bytes memory data) internal {\n      _transferFrom(from, to, itemId, layer);\n      require(_checkOnERCXReceived(from, to, itemId, layer, data));\n  }\n\n  /**\n    * @dev Returns whether the given spender can transfer a given item ID.\n    * @param spender address of the spender to query\n    * @param itemId uint256 ID of the item to be transferred\n    * @param layer uint256 number to specify the layer\n    * @return bool whether the msg.sender is approved for the given item ID,\n    * is an operator of the owner, or is the owner of the item\n    */\n  function _isEligibleForTransfer(address spender, uint256 itemId, uint256 layer) internal view returns (bool) {\n      require(_exists(itemId, layer));\n      address owner = ownerOf(itemId, layer);\n      address so = superOf(itemId, layer);\n      return (spender == owner || spender == so || getApprovedTransfer(itemId, layer) == spender || isApprovedForAll(owner, spender) || isApprovedForAll(so, spender));\n  }\n\n  /**\n    * @dev Returns whether the given item can be transferred.\n    * @param itemId uint256 ID of the item to be transferred\n    * @param layer uint256 number to specify the layer\n    * @return bool whether he given item can be transferred.\n    */\n  function _isTransferrable(uint256 itemId, uint256 layer) internal view returns (bool) {\n      require(_exists(itemId, layer), \"ERCX: operator query for nonexistent item\");\n      return _transferLimitStatus[itemId][layer];\n  }\n\n  /**\n   * @dev Returns whether the specified item exists\n   * @param itemId uint256 ID of the item to query the existence of\n   * @param layer uint256 number to specify the layer\n   * @return whether the item exists\n   */\n  function _exists(uint256 itemId, uint256 layer) internal view returns (bool) {\n    address owner = _itemOwner[itemId][layer];\n    return owner != address(0);\n  }\n\n  /**\n    * @dev Internal function to safely mint a new item.\n    * Reverts if the given item ID already exists.\n    * If the target address is a contract, it must implement `onERCXReceived`,\n    * which is called upon a safe transfer, and return the magic value\n    * `bytes4(keccak256(\"onERCXReceived(address,address,uint256,bytes)\"))`; otherwise,\n    * the transfer is reverted.\n    * @param to The address that will own the minted item\n    * @param itemId uint256 ID of the item to be minted\n    */\n  function _safeMint(address to, uint256 itemId) internal {\n      _safeMint(to, itemId, \"\");\n  }\n\n  /**\n    * @dev Internal function to safely mint a new item.\n    * Reverts if the given item ID already exists.\n    * If the target address is a contract, it must implement `onERCXReceived`,\n    * which is called upon a safe transfer, and return the magic value\n    * `bytes4(keccak256(\"onERCXReceived(address,address,uint256,bytes)\"))`; otherwise,\n    * the transfer is reverted.\n    * @param to The address that will own the minted item\n    * @param itemId uint256 ID of the item to be minted\n    * @param data bytes data to send along with a safe transfer check\n    */\n  function _safeMint(address to, uint256 itemId, bytes memory data) internal {\n      _mint(to, itemId);\n      require(_checkOnERCXReceived(address(0), to, itemId, 1, data));\n      require(_checkOnERCXReceived(address(0), to, itemId, 2, data));\n      require(_checkOnERCXReceived(address(0), to, itemId, 3, data));\n  }\n\n  /**\n    * @dev Internal function to mint a new item.\n    * Reverts if the given item ID already exists.\n    * A new item iss minted with all three layers.\n    * @param to The address that will own the minted item\n    * @param itemId uint256 ID of the item to be minted\n    */\n  function _mint(address to, uint256 itemId) internal {\n      require(to != address(0), \"ERCX: mint to the zero address\");\n      require(!_exists(itemId,1), \"ERCX: item already minted\");\n\n      _itemOwner[itemId][1] = to;\n      _itemOwner[itemId][2] = to;\n      _itemOwner[itemId][3] = to;\n      _ownedItemsCount[to][1].increment();\n      _ownedItemsCount[to][2].increment();\n      _ownedItemsCount[to][3].increment();\n\n      emit Transfer(msg.sender, address(0), to, itemId,1);\n      emit Transfer(msg.sender, address(0), to, itemId,2);\n      emit Transfer(msg.sender, address(0), to, itemId,3);\n  }\n\n  /**\n    * @dev Internal function to burn a specific item.\n    * Reverts if the item does not exist.\n    * @param itemId uint256 ID of the item being burned\n    */\n  function _burn(uint256 itemId) internal {\n      \n    address owner1 = ownerOf(itemId, 1);\n    address owner2 = ownerOf(itemId, 2);\n    address owner3 = ownerOf(itemId, 3);\n\n      _clearApproval(itemId,1);\n      _clearApproval(itemId,2);\n      _clearApproval(itemId,3);\n\n      _ownedItemsCount[owner1][1].decrement();\n      _ownedItemsCount[owner2][2].decrement();\n      _ownedItemsCount[owner3][3].decrement();\n      _itemOwner[itemId][1] = address(0);\n      _itemOwner[itemId][2] = address(0);\n      _itemOwner[itemId][3] = address(0);\n\n      emit Transfer(msg.sender, owner1, address(0), itemId,1);\n      emit Transfer(msg.sender, owner2, address(0), itemId,2);\n      emit Transfer(msg.sender, owner3, address(0), itemId,3);\n  }\n\n  /**\n    * @dev Internal function to transfer ownership of a given item ID to another address.\n    * As opposed to {transferFrom}, this imposes no restrictions on msg.sender.\n    * @param from current owner of the item\n    * @param to address to receive the ownership of the given item ID\n    * @param itemId uint256 ID of the item to be transferred\n    * @param layer uint256 number to specify the layer\n    */\n  function _transferFrom(address from, address to, uint256 itemId, uint256 layer) internal {\n      require( ownerOf(itemId,layer) == from );\n      require(to != address(0));\n\n      _clearApproval(itemId, layer);\n\n      _ownedItemsCount[from][layer].decrement();\n      _ownedItemsCount[to][layer].increment();\n\n      _itemOwner[itemId][layer] = to;\n\n      emit Transfer(msg.sender, from, to, itemId, layer);\n  }\n\n  /**\n    * @dev Internal function to invoke {IERCXReceiver-onERCXReceived} on a target address.\n    * The call is not executed if the target address is not a contract.\n    *\n    * This is an internal detail of the `ERCX` contract and its use is deprecated.\n    * @param from address representing the previous owner of the given item ID\n    * @param to target address that will receive the items\n    * @param itemId uint256 ID of the item to be transferred\n    * @param layer uint256 number to specify the layer\n    * @param data bytes optional data to send along with the call\n    * @return bool whether the call correctly returned the expected magic value\n    */\n  function _checkOnERCXReceived(address from, address to, uint256 itemId,uint256 layer, bytes memory data)\n      internal returns (bool)\n  {\n      if (!to.isContract()) {\n          return true;\n      }\n\n      bytes4 retval = IERCXReceiver(to).onERCXReceived(msg.sender, from, itemId, layer, data);\n      return (retval == _ERCX_RECEIVED);\n  }\n\n  /**\n    * @dev Private function to clear current approval of a given item ID.\n    * @param itemId uint256 ID of the item to be transferred\n    * @param layer uint256 number to specify the layer\n    */\n  function _clearApproval(uint256 itemId, uint256 layer) private {\n      if (_transferApprovals[itemId][layer] != address(0)) {\n          _transferApprovals[itemId][layer] = address(0);\n      }\n      if (_transferLimitApprovals[itemId][layer] != address(0)) {\n          _transferLimitApprovals[itemId][layer] = address(0);\n      }\n  }\n\n}\n",
  "sourcePath": "/Users/kohshiba/Desktop/Deed/ERCX/contracts/ERCX/Contract/ERCX.sol",
  "compiler": {
    "name": "solc",
    "version": "0.5.0+commit.1d4f565a.Emscripten.clang"
  },
  "schemaVersion": "3.0.1",
  "updatedAt": "2019-11-30T03:58:21.961Z",
  "devdoc": {
    "methods": {
      "approveTransfer(address,uint256,uint256)": {
        "details": "Approves another address to transfer the given item ID The zero address indicates there is no approved address. There can only be one approved address per item at a given time. Can only be called by the item owner or an approved operator.",
        "params": {
          "itemId": "uint256 ID of the item to be approved",
          "layer": "uint256 number to specify the layer",
          "to": "address to be approved for the given item ID"
        }
      },
      "approveTransferLimitFor(address,uint256,uint256)": {
        "details": "Approves another address to suspend the transfer right of the given item ID The zero address indicates there is no approved address. There can only be one approved address per item at a given time. Can only be called by the item owner or an approved operator.",
        "params": {
          "itemId": "uint256 ID of the item to be approved",
          "layer": "uint256 number to specify the layer",
          "to": "address to be approved for the given item ID"
        }
      },
      "balanceOf(address,uint256)": {
        "details": "Gets the balance of the specified address",
        "params": {
          "layer": "uint256 number to specify the layer",
          "owner": "address to query the balance of"
        },
        "return": "uint256 representing the amount of items owned by the passed address in the specified layer"
      },
      "getApprovedTransfer(uint256,uint256)": {
        "details": "Gets the approved address for a item ID, or zero if no address set Reverts if the item ID does not exist.",
        "params": {
          "itemId": "uint256 ID of the item to query the approval of",
          "layer": "uint256 number to specify the layer"
        },
        "return": "address currently approved for the given item ID"
      },
      "getApprovedTransferLimit(uint256,uint256)": {
        "details": "Gets the approved address for suspension for transfer a item ID, or zero if no address set Reverts if the item ID does not exist.",
        "params": {
          "itemId": "uint256 ID of the item to query the approval of",
          "layer": "uint256 number to specify the layer"
        },
        "return": "address currently approved for the given item ID"
      },
      "isApprovedForAll(address,address)": {
        "details": "Tells whether an operator is approved by a given owner",
        "params": {
          "operator": "operator address which you want to query the approval of",
          "owner": "owner address which you want to query the approval of"
        },
        "return": "bool whether the given operator is approved by the given owner"
      },
      "ownerOf(uint256,uint256)": {
        "details": "Gets the owner of the specified item ID",
        "params": {
          "itemId": "uint256 ID of the item to query the owner of",
          "layer": "uint256 number to specify the layer"
        },
        "return": "owner address currently marked as the owner of the given item ID in the specified layer"
      },
      "revokeTransferLimitFor(uint256,uint256)": {
        "details": "Revole the limitation of transferability of the specified item.   * Requires the msg sender to be the setter of the limitation",
        "params": {
          "itemId": "uint256 ID of the item to be transferred",
          "layer": "uint256 number to specify the layer"
        }
      },
      "safeTransferFrom(address,address,uint256,uint256)": {
        "details": "Safely transfers the ownership of a given item ID to another address If the target address is a contract, it must implement `onERCXReceived`, which is called upon a safe transfer, and return the magic value `bytes4(keccak256(\"onERCXReceived(address,address,uint256,bytes)\"))`; otherwise, the transfer is reverted.   * Requires the msg sender to be the owner, approved, or operator",
        "params": {
          "from": "current owner of the item",
          "itemId": "uint256 ID of the item to be transferred",
          "layer": "uint256 number to specify the layer",
          "to": "address to receive the ownership of the given item ID"
        }
      },
      "safeTransferFrom(address,address,uint256,uint256,bytes)": {
        "details": "Safely transfers the ownership of a given item ID to another address If the target address is a contract, it must implement `onERCXReceived`, which is called upon a safe transfer, and return the magic value `bytes4(keccak256(\"onERCXReceived(address,address,uint256,bytes)\"))`; otherwise, the transfer is reverted. Requires the msg sender to be the owner, approved, or operator",
        "params": {
          "data": "bytes data to send along with a safe transfer check",
          "from": "current owner of the item",
          "itemId": "uint256 ID of the item to be transferred",
          "layer": "uint256 number to specify the layer",
          "to": "address to receive the ownership of the given item ID"
        }
      },
      "setApprovalForAll(address,bool)": {
        "details": "Sets or unsets the approval of a given operator An operator is allowed to transfer all items of the sender on their behalf",
        "params": {
          "approved": "representing the status of the approval to be set",
          "to": "operator address to set the approval"
        }
      },
      "setTransferLimitFor(uint256,uint256)": {
        "details": "Limit the transferability of the specified item. msg.sender should be permitted by either owner or so(super owner)",
        "params": {
          "itemId": "uint256 ID of the item to be transferred",
          "layer": "uint256 number to specify the layer"
        }
      },
      "superOf(uint256,uint256)": {
        "details": "Gets the upper layer address of the owner of the specified item ID",
        "params": {
          "itemId": "uint256 ID of the item to query the owner of",
          "layer": "uint256 number to specify the layer"
        },
        "return": "the upper layer address currently marked as the owner of the given item ID in the specified layer"
      },
      "supportsInterface(bytes4)": {
        "details": "See `IERC165.supportsInterface`.     * Time complexity O(1), guaranteed to always use less than 30 000 gas."
      }
    }
  },
  "userdoc": {
    "methods": {}
  }
}