{
  "contractName": "ERCXFull",
  "abi": [
    {
      "constant": true,
      "inputs": [
        {
          "name": "owner",
          "type": "address"
        },
        {
          "name": "layer",
          "type": "uint256"
        }
      ],
      "name": "balanceOf",
      "outputs": [
        {
          "name": "",
          "type": "uint256"
        }
      ],
      "payable": false,
      "stateMutability": "view",
      "type": "function"
    },
    {
      "constant": true,
      "inputs": [
        {
          "name": "interfaceId",
          "type": "bytes4"
        }
      ],
      "name": "supportsInterface",
      "outputs": [
        {
          "name": "",
          "type": "bool"
        }
      ],
      "payable": false,
      "stateMutability": "view",
      "type": "function"
    },
    {
      "constant": true,
      "inputs": [],
      "name": "name",
      "outputs": [
        {
          "name": "",
          "type": "string"
        }
      ],
      "payable": false,
      "stateMutability": "view",
      "type": "function"
    },
    {
      "constant": true,
      "inputs": [
        {
          "name": "itemId",
          "type": "uint256"
        }
      ],
      "name": "getApproved",
      "outputs": [
        {
          "name": "",
          "type": "address"
        }
      ],
      "payable": false,
      "stateMutability": "view",
      "type": "function"
    },
    {
      "constant": false,
      "inputs": [
        {
          "name": "to",
          "type": "address"
        },
        {
          "name": "itemId",
          "type": "uint256"
        }
      ],
      "name": "approve",
      "outputs": [],
      "payable": false,
      "stateMutability": "nonpayable",
      "type": "function"
    },
    {
      "constant": false,
      "inputs": [
        {
          "name": "from",
          "type": "address"
        },
        {
          "name": "to",
          "type": "address"
        },
        {
          "name": "itemId",
          "type": "uint256"
        },
        {
          "name": "layer",
          "type": "uint256"
        }
      ],
      "name": "safeTransferFrom",
      "outputs": [],
      "payable": false,
      "stateMutability": "nonpayable",
      "type": "function"
    },
    {
      "constant": true,
      "inputs": [
        {
          "name": "index",
          "type": "uint256"
        }
      ],
      "name": "itemByIndex",
      "outputs": [
        {
          "name": "",
          "type": "uint256"
        }
      ],
      "payable": false,
      "stateMutability": "view",
      "type": "function"
    },
    {
      "constant": true,
      "inputs": [
        {
          "name": "itemId",
          "type": "uint256"
        },
        {
          "name": "layer",
          "type": "uint256"
        }
      ],
      "name": "getApprovedTransfer",
      "outputs": [
        {
          "name": "",
          "type": "address"
        }
      ],
      "payable": false,
      "stateMutability": "view",
      "type": "function"
    },
    {
      "constant": false,
      "inputs": [
        {
          "name": "from",
          "type": "address"
        },
        {
          "name": "to",
          "type": "address"
        },
        {
          "name": "itemId",
          "type": "uint256"
        }
      ],
      "name": "transferFrom",
      "outputs": [],
      "payable": false,
      "stateMutability": "nonpayable",
      "type": "function"
    },
    {
      "constant": false,
      "inputs": [
        {
          "name": "from",
          "type": "address"
        },
        {
          "name": "to",
          "type": "address"
        },
        {
          "name": "itemId",
          "type": "uint256"
        }
      ],
      "name": "safeTransferFrom",
      "outputs": [],
      "payable": false,
      "stateMutability": "nonpayable",
      "type": "function"
    },
    {
      "constant": false,
      "inputs": [
        {
          "name": "to",
          "type": "address"
        },
        {
          "name": "itemId",
          "type": "uint256"
        },
        {
          "name": "layer",
          "type": "uint256"
        }
      ],
      "name": "approveTransferLimitFor",
      "outputs": [],
      "payable": false,
      "stateMutability": "nonpayable",
      "type": "function"
    },
    {
      "constant": true,
      "inputs": [
        {
          "name": "itemId",
          "type": "uint256"
        }
      ],
      "name": "ownerOf",
      "outputs": [
        {
          "name": "",
          "type": "address"
        }
      ],
      "payable": false,
      "stateMutability": "view",
      "type": "function"
    },
    {
      "constant": false,
      "inputs": [
        {
          "name": "itemId",
          "type": "uint256"
        },
        {
          "name": "layer",
          "type": "uint256"
        }
      ],
      "name": "setTransferLimitFor",
      "outputs": [],
      "payable": false,
      "stateMutability": "nonpayable",
      "type": "function"
    },
    {
      "constant": true,
      "inputs": [],
      "name": "totalNumberOfItems",
      "outputs": [
        {
          "name": "",
          "type": "uint256"
        }
      ],
      "payable": false,
      "stateMutability": "view",
      "type": "function"
    },
    {
      "constant": true,
      "inputs": [
        {
          "name": "owner",
          "type": "address"
        }
      ],
      "name": "balanceOf",
      "outputs": [
        {
          "name": "",
          "type": "uint256"
        }
      ],
      "payable": false,
      "stateMutability": "view",
      "type": "function"
    },
    {
      "constant": true,
      "inputs": [],
      "name": "symbol",
      "outputs": [
        {
          "name": "",
          "type": "string"
        }
      ],
      "payable": false,
      "stateMutability": "view",
      "type": "function"
    },
    {
      "constant": false,
      "inputs": [
        {
          "name": "itemId",
          "type": "uint256"
        },
        {
          "name": "layer",
          "type": "uint256"
        }
      ],
      "name": "revokeTransferLimitFor",
      "outputs": [],
      "payable": false,
      "stateMutability": "nonpayable",
      "type": "function"
    },
    {
      "constant": false,
      "inputs": [
        {
          "name": "to",
          "type": "address"
        },
        {
          "name": "approved",
          "type": "bool"
        }
      ],
      "name": "setApprovalForAll",
      "outputs": [],
      "payable": false,
      "stateMutability": "nonpayable",
      "type": "function"
    },
    {
      "constant": false,
      "inputs": [
        {
          "name": "to",
          "type": "address"
        },
        {
          "name": "itemId",
          "type": "uint256"
        },
        {
          "name": "layer",
          "type": "uint256"
        }
      ],
      "name": "approveTransfer",
      "outputs": [],
      "payable": false,
      "stateMutability": "nonpayable",
      "type": "function"
    },
    {
      "constant": true,
      "inputs": [
        {
          "name": "itemId",
          "type": "uint256"
        }
      ],
      "name": "itemURI",
      "outputs": [
        {
          "name": "",
          "type": "string"
        }
      ],
      "payable": false,
      "stateMutability": "view",
      "type": "function"
    },
    {
      "constant": true,
      "inputs": [
        {
          "name": "itemId",
          "type": "uint256"
        },
        {
          "name": "layer",
          "type": "uint256"
        }
      ],
      "name": "superOf",
      "outputs": [
        {
          "name": "",
          "type": "address"
        }
      ],
      "payable": false,
      "stateMutability": "view",
      "type": "function"
    },
    {
      "constant": false,
      "inputs": [
        {
          "name": "from",
          "type": "address"
        },
        {
          "name": "to",
          "type": "address"
        },
        {
          "name": "itemId",
          "type": "uint256"
        },
        {
          "name": "data",
          "type": "bytes"
        }
      ],
      "name": "safeTransferFrom",
      "outputs": [],
      "payable": false,
      "stateMutability": "nonpayable",
      "type": "function"
    },
    {
      "constant": true,
      "inputs": [
        {
          "name": "owner",
          "type": "address"
        },
        {
          "name": "layer",
          "type": "uint256"
        },
        {
          "name": "index",
          "type": "uint256"
        }
      ],
      "name": "itemOfOwnerByIndex",
      "outputs": [
        {
          "name": "",
          "type": "uint256"
        }
      ],
      "payable": false,
      "stateMutability": "view",
      "type": "function"
    },
    {
      "constant": true,
      "inputs": [
        {
          "name": "itemId",
          "type": "uint256"
        },
        {
          "name": "layer",
          "type": "uint256"
        }
      ],
      "name": "getApprovedTransferLimit",
      "outputs": [
        {
          "name": "",
          "type": "address"
        }
      ],
      "payable": false,
      "stateMutability": "view",
      "type": "function"
    },
    {
      "constant": true,
      "inputs": [
        {
          "name": "itemId",
          "type": "uint256"
        },
        {
          "name": "layer",
          "type": "uint256"
        }
      ],
      "name": "ownerOf",
      "outputs": [
        {
          "name": "",
          "type": "address"
        }
      ],
      "payable": false,
      "stateMutability": "view",
      "type": "function"
    },
    {
      "constant": true,
      "inputs": [
        {
          "name": "owner",
          "type": "address"
        },
        {
          "name": "operator",
          "type": "address"
        }
      ],
      "name": "isApprovedForAll",
      "outputs": [
        {
          "name": "",
          "type": "bool"
        }
      ],
      "payable": false,
      "stateMutability": "view",
      "type": "function"
    },
    {
      "constant": false,
      "inputs": [
        {
          "name": "from",
          "type": "address"
        },
        {
          "name": "to",
          "type": "address"
        },
        {
          "name": "itemId",
          "type": "uint256"
        },
        {
          "name": "layer",
          "type": "uint256"
        },
        {
          "name": "data",
          "type": "bytes"
        }
      ],
      "name": "safeTransferFrom",
      "outputs": [],
      "payable": false,
      "stateMutability": "nonpayable",
      "type": "function"
    },
    {
      "inputs": [
        {
          "name": "name",
          "type": "string"
        },
        {
          "name": "symbol",
          "type": "string"
        }
      ],
      "payable": false,
      "stateMutability": "nonpayable",
      "type": "constructor"
    },
    {
      "anonymous": false,
      "inputs": [
        {
          "indexed": true,
          "name": "operator",
          "type": "address"
        },
        {
          "indexed": true,
          "name": "from",
          "type": "address"
        },
        {
          "indexed": true,
          "name": "to",
          "type": "address"
        },
        {
          "indexed": false,
          "name": "itemId",
          "type": "uint256"
        },
        {
          "indexed": false,
          "name": "layer",
          "type": "uint256"
        }
      ],
      "name": "Transfer",
      "type": "event"
    },
    {
      "anonymous": false,
      "inputs": [
        {
          "indexed": true,
          "name": "operator",
          "type": "address"
        },
        {
          "indexed": true,
          "name": "itemId",
          "type": "uint256"
        },
        {
          "indexed": true,
          "name": "layer",
          "type": "uint256"
        },
        {
          "indexed": false,
          "name": "satus",
          "type": "bool"
        }
      ],
      "name": "TransferLimitSet",
      "type": "event"
    },
    {
      "anonymous": false,
      "inputs": [
        {
          "indexed": true,
          "name": "owner",
          "type": "address"
        },
        {
          "indexed": true,
          "name": "approved",
          "type": "address"
        },
        {
          "indexed": false,
          "name": "itemId",
          "type": "uint256"
        },
        {
          "indexed": false,
          "name": "layer",
          "type": "uint256"
        }
      ],
      "name": "ApprovalTransfer",
      "type": "event"
    },
    {
      "anonymous": false,
      "inputs": [
        {
          "indexed": true,
          "name": "owner",
          "type": "address"
        },
        {
          "indexed": true,
          "name": "operator",
          "type": "address"
        },
        {
          "indexed": false,
          "name": "approved",
          "type": "bool"
        }
      ],
      "name": "ApprovalForAll",
      "type": "event"
    },
    {
      "anonymous": false,
      "inputs": [
        {
          "indexed": true,
          "name": "owner",
          "type": "address"
        },
        {
          "indexed": true,
          "name": "approved",
          "type": "address"
        },
        {
          "indexed": false,
          "name": "itemId",
          "type": "uint256"
        },
        {
          "indexed": false,
          "name": "layer",
          "type": "uint256"
        }
      ],
      "name": "ApprovalTransferLimit",
      "type": "event"
    },
    {
      "anonymous": false,
      "inputs": [
        {
          "indexed": true,
          "name": "from",
          "type": "address"
        },
        {
          "indexed": true,
          "name": "to",
          "type": "address"
        },
        {
          "indexed": true,
          "name": "tokenId",
          "type": "uint256"
        }
      ],
      "name": "Transfer",
      "type": "event"
    },
    {
      "anonymous": false,
      "inputs": [
        {
          "indexed": true,
          "name": "owner",
          "type": "address"
        },
        {
          "indexed": true,
          "name": "approved",
          "type": "address"
        },
        {
          "indexed": true,
          "name": "tokenId",
          "type": "uint256"
        }
      ],
      "name": "Approval",
      "type": "event"
    }
  ],
  "bytecode": "0x60806040523480156200001157600080fd5b506040516200376d3803806200376d833981018060405260408110156200003757600080fd5b8101908080516401000000008111156200005057600080fd5b828101905060208101848111156200006757600080fd5b81518560018202830111640100000000821117156200008557600080fd5b50509291906020018051640100000000811115620000a257600080fd5b82810190506020810184811115620000b957600080fd5b8151856001820283011164010000000082111715620000d757600080fd5b505092919050505081816200011e6301ffc9a77c01000000000000000000000000000000000000000000000000000000000262000796640100000000026401000000009004565b6200057d60405180807f7265766f6b655472616e736665724c696d6974466f722875696e743235362cc281526020017fa075696e743235362900000000000000000000000000000000000000000000008152506029019050604051809103902060405180807f7365745472616e736665724c696d6974466f722875696e743235362cc2a0756981526020017f6e743235362900000000000000000000000000000000000000000000000000008152506026019050604051809103902060405180807f676574417070726f7665645472616e736665724c696d69742875696e7432353681526020017f2cc2a075696e7432353629000000000000000000000000000000000000000000815250602b019050604051809103902060405180807f617070726f76655472616e736665724c696d6974466f7228616464726573732c81526020017fc2a075696e743235362cc2a075696e74323536290000000000000000000000008152506034019050604051809103902060405180807f6973417070726f766564466f72416c6c28616464726573732cc2a0616464726581526020017f73732900000000000000000000000000000000000000000000000000000000008152506023019050604051809103902060405180807f736574417070726f76616c466f72416c6c28616464726573732cc2a0626f6f6c81526020017f29000000000000000000000000000000000000000000000000000000000000008152506021019050604051809103902060405180807f676574417070726f7665645472616e736665722875696e743235362cc2a0756981526020017f6e743235362900000000000000000000000000000000000000000000000000008152506026019050604051809103902060405180807f617070726f76655472616e7366657228616464726573732cc2a075696e74323581526020017f362cc2a075696e74323536290000000000000000000000000000000000000000815250602c019050604051809103902060405180807f736166655472616e7366657246726f6d28616464726573732cc2a0616464726581526020017f73732cc2a075696e743235362cc2a075696e743235362cc2a062797465732900815250603f019050604051809103902060405180807f736166655472616e7366657246726f6d28616464726573732cc2a0616464726581526020017f73732cc2a075696e743235362cc2a075696e74323536290000000000000000008152506037019050604051809103902060405180807f73757065724f662875696e743235362cc2a075696e7432353629000000000000815250601a019050604051809103902060405180807f6f776e65724f662875696e743235362cc2a075696e7432353629000000000000815250601a019050604051809103902060405180807f62616c616e63654f6628616464726573732cc2a075696e743235362900000000815250601c019050604051809103902018181818181818181818181862000796640100000000026401000000009004565b6200066060405180807f6974656d4279496e6465782875696e74323536290000000000000000000000008152506014019050604051809103902060405180807f6974656d4f664f776e65724279496e64657828616464726573732c75696e743281526020017f35362c75696e7432353629000000000000000000000000000000000000000000815250602b019050604051809103902060405180807f746f74616c4e756d6265724f664974656d73282900000000000000000000000081525060140190506040518091039020181862000796640100000000026401000000009004565b81600c908051906020019062000678929190620008bd565b5080600d908051906020019062000691929190620008bd565b506200074f60405180807f6974656d5552492875696e7432353629000000000000000000000000000000008152506010019050604051809103902060405180807f73796d626f6c28290000000000000000000000000000000000000000000000008152506008019050604051809103902060405180807f6e616d652829000000000000000000000000000000000000000000000000000081525060060190506040518091039020181862000796640100000000026401000000009004565b50506200078e6380ac58cd7c01000000000000000000000000000000000000000000000000000000000262000796640100000000026401000000009004565b50506200096c565b63ffffffff7c010000000000000000000000000000000000000000000000000000000002817bffffffffffffffffffffffffffffffffffffffffffffffffffffffff19161415151562000851576040517f08c379a000000000000000000000000000000000000000000000000000000000815260040180806020018281038252601c8152602001807f4552433136353a20696e76616c696420696e746572666163652069640000000081525060200191505060405180910390fd5b6001600080837bffffffffffffffffffffffffffffffffffffffffffffffffffffffff19167bffffffffffffffffffffffffffffffffffffffffffffffffffffffff1916815260200190815260200160002060006101000a81548160ff02191690831515021790555050565b828054600181600116156101000203166002900490600052602060002090601f016020900481019282601f106200090057805160ff191683800117855562000931565b8280016001018555821562000931579182015b828111156200093057825182559160200191906001019062000913565b5b50905062000940919062000944565b5090565b6200096991905b80821115620009655760008160009055506001016200094b565b5090565b90565b612df1806200097c6000396000f3fe60806040526004361061015e576000357c0100000000000000000000000000000000000000000000000000000000900463ffffffff168062fdd58e1461016357806301ffc9a7146101d257806306fdde0314610244578063081812fc146102d4578063095ea7b31461034f5780630febdd49146103aa578063173cc5221461042f57806321d891321461047e57806323b872dd1461050357806342842e0e1461057e5780634eeb9599146105f95780636352211e1461065e5780636aeae077146106d957806370324f2b1461071e57806370a082311461074957806395d89b41146107ae5780639dc1c6161461083e578063a22cb46514610883578063a4fdae9e146108e0578063acb35dc714610945578063b4f453eb146109f9578063b88d4fde14610a7e578063befc6f9914610b90578063c34e2af214610c09578063d9dad80d14610c8e578063e985e9c514610d13578063f242432a14610d9c575b600080fd5b34801561016f57600080fd5b506101bc6004803603604081101561018657600080fd5b81019080803573ffffffffffffffffffffffffffffffffffffffff16906020019092919080359060200190929190505050610eb8565b6040518082815260200191505060405180910390f35b3480156101de57600080fd5b5061022a600480360360208110156101f557600080fd5b8101908080357bffffffffffffffffffffffffffffffffffffffffffffffffffffffff19169060200190929190505050610f5b565b604051808215151515815260200191505060405180910390f35b34801561025057600080fd5b50610259610fc2565b6040518080602001828103825283818151815260200191508051906020019080838360005b8381101561029957808201518184015260208101905061027e565b50505050905090810190601f1680156102c65780820380516001836020036101000a031916815260200191505b509250505060405180910390f35b3480156102e057600080fd5b5061030d600480360360208110156102f757600080fd5b8101908080359060200190929190505050611064565b604051808273ffffffffffffffffffffffffffffffffffffffff1673ffffffffffffffffffffffffffffffffffffffff16815260200191505060405180910390f35b34801561035b57600080fd5b506103a86004803603604081101561037257600080fd5b81019080803573ffffffffffffffffffffffffffffffffffffffff16906020019092919080359060200190929190505050611078565b005b3480156103b657600080fd5b5061042d600480360360808110156103cd57600080fd5b81019080803573ffffffffffffffffffffffffffffffffffffffff169060200190929190803573ffffffffffffffffffffffffffffffffffffffff16906020019092919080359060200190929190803590602001909291905050506110f1565b005b34801561043b57600080fd5b506104686004803603602081101561045257600080fd5b8101908080359060200190929190505050611114565b6040518082815260200191505060405180910390f35b34801561048a57600080fd5b506104c1600480360360408110156104a157600080fd5b81019080803590602001909291908035906020019092919050505061114c565b604051808273ffffffffffffffffffffffffffffffffffffffff1673ffffffffffffffffffffffffffffffffffffffff16815260200191505060405180910390f35b34801561050f57600080fd5b5061057c6004803603606081101561052657600080fd5b81019080803573ffffffffffffffffffffffffffffffffffffffff169060200190929190803573ffffffffffffffffffffffffffffffffffffffff169060200190929190803590602001909291905050506111b0565b005b34801561058a57600080fd5b506105f7600480360360608110156105a157600080fd5b81019080803573ffffffffffffffffffffffffffffffffffffffff169060200190929190803573ffffffffffffffffffffffffffffffffffffffff169060200190929190803590602001909291905050506111c2565b005b34801561060557600080fd5b5061065c6004803603606081101561061c57600080fd5b81019080803573ffffffffffffffffffffffffffffffffffffffff16906020019092919080359060200190929190803590602001909291905050506111e3565b005b34801561066a57600080fd5b506106976004803603602081101561068157600080fd5b81019080803590602001909291905050506113da565b604051808273ffffffffffffffffffffffffffffffffffffffff1673ffffffffffffffffffffffffffffffffffffffff16815260200191505060405180910390f35b3480156106e557600080fd5b5061071c600480360360408110156106fc57600080fd5b8101908080359060200190929190803590602001909291905050506113ee565b005b34801561072a57600080fd5b5061073361157f565b6040518082815260200191505060405180910390f35b34801561075557600080fd5b506107986004803603602081101561076c57600080fd5b81019080803573ffffffffffffffffffffffffffffffffffffffff16906020019092919050505061158c565b6040518082815260200191505060405180910390f35b3480156107ba57600080fd5b506107c36115a0565b6040518080602001828103825283818151815260200191508051906020019080838360005b838110156108035780820151818401526020810190506107e8565b50505050905090810190601f1680156108305780820380516001836020036101000a031916815260200191505b509250505060405180910390f35b34801561084a57600080fd5b506108816004803603604081101561086157600080fd5b810190808035906020019092919080359060200190929190505050611642565b005b34801561088f57600080fd5b506108de600480360360408110156108a657600080fd5b81019080803573ffffffffffffffffffffffffffffffffffffffff1690602001909291908035151590602001909291905050506117d6565b005b3480156108ec57600080fd5b506109436004803603606081101561090357600080fd5b81019080803573ffffffffffffffffffffffffffffffffffffffff1690602001909291908035906020019092919080359060200190929190505050611912565b005b34801561095157600080fd5b5061097e6004803603602081101561096857600080fd5b8101908080359060200190929190505050611a7c565b6040518080602001828103825283818151815260200191508051906020019080838360005b838110156109be5780820151818401526020810190506109a3565b50505050905090810190601f1680156109eb5780820380516001836020036101000a031916815260200191505b509250505060405180910390f35b348015610a0557600080fd5b50610a3c60048036036040811015610a1c57600080fd5b810190808035906020019092919080359060200190929190505050611b47565b604051808273ffffffffffffffffffffffffffffffffffffffff1673ffffffffffffffffffffffffffffffffffffffff16815260200191505060405180910390f35b348015610a8a57600080fd5b50610b8e60048036036080811015610aa157600080fd5b81019080803573ffffffffffffffffffffffffffffffffffffffff169060200190929190803573ffffffffffffffffffffffffffffffffffffffff1690602001909291908035906020019092919080359060200190640100000000811115610b0857600080fd5b820183602082011115610b1a57600080fd5b80359060200191846001830284011164010000000083111715610b3c57600080fd5b91908080601f016020809104026020016040519081016040528093929190818152602001838380828437600081840152601f19601f820116905080830192505050505050509192919290505050611b6c565b005b348015610b9c57600080fd5b50610bf360048036036060811015610bb357600080fd5b81019080803573ffffffffffffffffffffffffffffffffffffffff1690602001909291908035906020019092919080359060200190929190505050611c23565b6040518082815260200191505060405180910390f35b348015610c1557600080fd5b50610c4c60048036036040811015610c2c57600080fd5b810190808035906020019092919080359060200190929190505050611cad565b604051808273ffffffffffffffffffffffffffffffffffffffff1673ffffffffffffffffffffffffffffffffffffffff16815260200191505060405180910390f35b348015610c9a57600080fd5b50610cd160048036036040811015610cb157600080fd5b810190808035906020019092919080359060200190929190505050611d11565b604051808273ffffffffffffffffffffffffffffffffffffffff1673ffffffffffffffffffffffffffffffffffffffff16815260200191505060405180910390f35b348015610d1f57600080fd5b50610d8260048036036040811015610d3657600080fd5b81019080803573ffffffffffffffffffffffffffffffffffffffff169060200190929190803573ffffffffffffffffffffffffffffffffffffffff169060200190929190505050611da1565b604051808215151515815260200191505060405180910390f35b348015610da857600080fd5b50610eb6600480360360a0811015610dbf57600080fd5b81019080803573ffffffffffffffffffffffffffffffffffffffff169060200190929190803573ffffffffffffffffffffffffffffffffffffffff169060200190929190803590602001909291908035906020019092919080359060200190640100000000811115610e3057600080fd5b820183602082011115610e4257600080fd5b80359060200191846001830284011164010000000083111715610e6457600080fd5b91908080601f016020809104026020016040519081016040528093929190818152602001838380828437600081840152601f19601f820116905080830192505050505050509192919290505050611e35565b005b60008073ffffffffffffffffffffffffffffffffffffffff168373ffffffffffffffffffffffffffffffffffffffff1614151515610ef557600080fd5b6000610f4f600360008673ffffffffffffffffffffffffffffffffffffffff1673ffffffffffffffffffffffffffffffffffffffff1681526020019081526020016000206000858152602001908152602001600020611e5f565b90508091505092915050565b6000806000837bffffffffffffffffffffffffffffffffffffffffffffffffffffffff19167bffffffffffffffffffffffffffffffffffffffffffffffffffffffff1916815260200190815260200160002060009054906101000a900460ff169050919050565b6060600c8054600181600116156101000203166002900480601f01602080910402602001604051908101604052809291908181526020018280546001816001161561010002031660029004801561105a5780601f1061102f5761010080835404028352916020019161105a565b820191906000526020600020905b81548152906001019060200180831161103d57829003601f168201915b5050505050905090565b600061107182600161114c565b9050919050565b6000611083826113da565b905061109183836001611912565b818373ffffffffffffffffffffffffffffffffffffffff168273ffffffffffffffffffffffffffffffffffffffff167f8c5be1e5ebec7d5bd14f71427d1e84f3dd0314c0f7b2291e5b200ac8c7c3b92560405160405180910390a4505050565b61110e848484846020604051908101604052806000815250611e35565b50505050565b600061111e61157f565b8210151561112b57600080fd5b600a8281548110151561113a57fe5b90600052602060002001549050919050565b60006111588383611e6d565b151561116357600080fd5b60026000848152602001908152602001600020600083815260200190815260200160002060009054906101000a900473ffffffffffffffffffffffffffffffffffffffff16905092915050565b6111bd8383836001611ef1565b505050565b6111de8383836020604051908101604052806000815250611b6c565b505050565b60006111ef8383611d11565b905060006111fd8484611b47565b90508173ffffffffffffffffffffffffffffffffffffffff168573ffffffffffffffffffffffffffffffffffffffff1614158061126657508073ffffffffffffffffffffffffffffffffffffffff168573ffffffffffffffffffffffffffffffffffffffff1614155b151561127157600080fd5b8173ffffffffffffffffffffffffffffffffffffffff163373ffffffffffffffffffffffffffffffffffffffff1614806112d657508073ffffffffffffffffffffffffffffffffffffffff163373ffffffffffffffffffffffffffffffffffffffff16145b806112e757506112e68233611da1565b5b806112f857506112f78133611da1565b5b151561130357600080fd5b8460056000868152602001908152602001600020600085815260200190815260200160002060006101000a81548173ffffffffffffffffffffffffffffffffffffffff021916908373ffffffffffffffffffffffffffffffffffffffff1602179055508473ffffffffffffffffffffffffffffffffffffffff168273ffffffffffffffffffffffffffffffffffffffff167f8b1ad3e71a0ec93ec04e081864706fc2ec210a392f687c69eb6ef2b48a07475e8686604051808381526020018281526020019250505060405180910390a35050505050565b60006113e7826001611d11565b9050919050565b6113f88282611f19565b151561140357600080fd5b600061140f8383611d11565b9050600061141d8484611b47565b90506114298484611cad565b73ffffffffffffffffffffffffffffffffffffffff163373ffffffffffffffffffffffffffffffffffffffff16148061146857506114678233611da1565b5b8061147957506114788133611da1565b5b151561148457600080fd5b600060066000868152602001908152602001600020600085815260200190815260200160002060006101000a81548160ff0219169083151502179055503360076000868152602001908152602001600020600085815260200190815260200160002060006101000a81548173ffffffffffffffffffffffffffffffffffffffff021916908373ffffffffffffffffffffffffffffffffffffffff16021790555082843373ffffffffffffffffffffffffffffffffffffffff167f2514331937ebcc84179b9aa52d73834b71963727fd1ea5d8234ee6da14e623686001604051808215151515815260200191505060405180910390a450505050565b6000600a80549050905090565b6000611599826001610eb8565b9050919050565b6060600d8054600181600116156101000203166002900480601f0160208091040260200160405190810160405280929190818152602001828054600181600116156101000203166002900480156116385780601f1061160d57610100808354040283529160200191611638565b820191906000526020600020905b81548152906001019060200180831161161b57829003601f168201915b5050505050905090565b61164c8282611f19565b15151561165857600080fd5b600060076000848152602001908152602001600020600083815260200190815260200160002060009054906101000a900473ffffffffffffffffffffffffffffffffffffffff1690508073ffffffffffffffffffffffffffffffffffffffff163373ffffffffffffffffffffffffffffffffffffffff161415156116db57600080fd5b600160066000858152602001908152602001600020600084815260200190815260200160002060006101000a81548160ff021916908315150217905550600060076000858152602001908152602001600020600084815260200190815260200160002060006101000a81548173ffffffffffffffffffffffffffffffffffffffff021916908373ffffffffffffffffffffffffffffffffffffffff16021790555081833373ffffffffffffffffffffffffffffffffffffffff167f2514331937ebcc84179b9aa52d73834b71963727fd1ea5d8234ee6da14e623686000604051808215151515815260200191505060405180910390a4505050565b3373ffffffffffffffffffffffffffffffffffffffff168273ffffffffffffffffffffffffffffffffffffffff161415151561181157600080fd5b80600460003373ffffffffffffffffffffffffffffffffffffffff1673ffffffffffffffffffffffffffffffffffffffff16815260200190815260200160002060008473ffffffffffffffffffffffffffffffffffffffff1673ffffffffffffffffffffffffffffffffffffffff16815260200190815260200160002060006101000a81548160ff0219169083151502179055508173ffffffffffffffffffffffffffffffffffffffff163373ffffffffffffffffffffffffffffffffffffffff167f17307eab39ab6107e8899845ad3d59bd9653f200f220920489ca2b5937696c3183604051808215151515815260200191505060405180910390a35050565b600061191e8383611d11565b90508073ffffffffffffffffffffffffffffffffffffffff168473ffffffffffffffffffffffffffffffffffffffff161415151561195b57600080fd5b8073ffffffffffffffffffffffffffffffffffffffff163373ffffffffffffffffffffffffffffffffffffffff16148061199b575061199a8133611da1565b5b15156119a657600080fd5b8360026000858152602001908152602001600020600084815260200190815260200160002060006101000a81548173ffffffffffffffffffffffffffffffffffffffff021916908373ffffffffffffffffffffffffffffffffffffffff1602179055508373ffffffffffffffffffffffffffffffffffffffff168173ffffffffffffffffffffffffffffffffffffffff167fe3d5109fb748529f5f25558d2ca2990867f9c97e6cd0038e06be2afe6538449c8585604051808381526020018281526020019250505060405180910390a350505050565b6060611a89826001611e6d565b1515611a9457600080fd5b600e60008381526020019081526020016000208054600181600116156101000203166002900480601f016020809104026020016040519081016040528092919081815260200182805460018160011615610100020316600290048015611b3b5780601f10611b1057610100808354040283529160200191611b3b565b820191906000526020600020905b815481529060010190602001808311611b1e57829003601f168201915b50505050509050919050565b6000808280600101935090506000611b5f8583611d11565b9050809250505092915050565b611b778484846111b0565b611b8384848484611ff9565b1515611c1d576040517f08c379a00000000000000000000000000000000000000000000000000000000081526004018080602001828103825260328152602001807f4552433732313a207472616e7366657220746f206e6f6e20455243373231526581526020017f63656976657220696d706c656d656e746572000000000000000000000000000081525060400191505060405180910390fd5b50505050565b6000611c2f8484610eb8565b82101515611c3c57600080fd5b6008600084815260200190815260200160002060008573ffffffffffffffffffffffffffffffffffffffff1673ffffffffffffffffffffffffffffffffffffffff16815260200190815260200160002082815481101515611c9957fe5b906000526020600020015490509392505050565b6000611cb98383611e6d565b1515611cc457600080fd5b60056000848152602001908152602001600020600083815260200190815260200160002060009054906101000a900473ffffffffffffffffffffffffffffffffffffffff16905092915050565b60008060016000858152602001908152602001600020600084815260200190815260200160002060009054906101000a900473ffffffffffffffffffffffffffffffffffffffff169050600073ffffffffffffffffffffffffffffffffffffffff168173ffffffffffffffffffffffffffffffffffffffff1614151515611d9757600080fd5b8091505092915050565b6000600460008473ffffffffffffffffffffffffffffffffffffffff1673ffffffffffffffffffffffffffffffffffffffff16815260200190815260200160002060008373ffffffffffffffffffffffffffffffffffffffff1673ffffffffffffffffffffffffffffffffffffffff16815260200190815260200160002060009054906101000a900460ff16905092915050565b611e4033848461221c565b1515611e4b57600080fd5b611e588585858585612320565b5050505050565b600081600001549050919050565b60008060016000858152602001908152602001600020600084815260200190815260200160002060009054906101000a900473ffffffffffffffffffffffffffffffffffffffff169050600073ffffffffffffffffffffffffffffffffffffffff168173ffffffffffffffffffffffffffffffffffffffff16141591505092915050565b611efd8484848461234b565b611f08848383612571565b611f1383838361277c565b50505050565b6000611f258383611e6d565b1515611fbf576040517f08c379a00000000000000000000000000000000000000000000000000000000081526004018080602001828103825260298152602001807f455243583a206f70657261746f7220717565727920666f72206e6f6e6578697381526020017f74656e74206974656d000000000000000000000000000000000000000000000081525060400191505060405180910390fd5b60066000848152602001908152602001600020600083815260200190815260200160002060009054906101000a900460ff16905092915050565b600061201a8473ffffffffffffffffffffffffffffffffffffffff16612877565b15156120295760019050612214565b60008473ffffffffffffffffffffffffffffffffffffffff1663150b7a02338887876040518563ffffffff167c0100000000000000000000000000000000000000000000000000000000028152600401808573ffffffffffffffffffffffffffffffffffffffff1673ffffffffffffffffffffffffffffffffffffffff1681526020018473ffffffffffffffffffffffffffffffffffffffff1673ffffffffffffffffffffffffffffffffffffffff16815260200183815260200180602001828103825283818151815260200191508051906020019080838360005b83811015612120578082015181840152602081019050612105565b50505050905090810190601f16801561214d5780820380516001836020036101000a031916815260200191505b5095505050505050602060405180830381600087803b15801561216f57600080fd5b505af1158015612183573d6000803e3d6000fd5b505050506040513d602081101561219957600080fd5b8101908080519060200190929190505050905063150b7a027c0100000000000000000000000000000000000000000000000000000000027bffffffffffffffffffffffffffffffffffffffffffffffffffffffff1916817bffffffffffffffffffffffffffffffffffffffffffffffffffffffff1916149150505b949350505050565b60006122288383611e6d565b151561223357600080fd5b600061223f8484611d11565b9050600061224d8585611b47565b90508173ffffffffffffffffffffffffffffffffffffffff168673ffffffffffffffffffffffffffffffffffffffff1614806122b457508073ffffffffffffffffffffffffffffffffffffffff168673ffffffffffffffffffffffffffffffffffffffff16145b806122f357508573ffffffffffffffffffffffffffffffffffffffff166122db868661114c565b73ffffffffffffffffffffffffffffffffffffffff16145b8061230457506123038287611da1565b5b8061231557506123148187611da1565b5b925050509392505050565b61232c85858585611ef1565b612339858585858561288a565b151561234457600080fd5b5050505050565b8373ffffffffffffffffffffffffffffffffffffffff1661236c8383611d11565b73ffffffffffffffffffffffffffffffffffffffff1614151561238e57600080fd5b600073ffffffffffffffffffffffffffffffffffffffff168373ffffffffffffffffffffffffffffffffffffffff16141515156123ca57600080fd5b6123d48282612aee565b61242c600360008673ffffffffffffffffffffffffffffffffffffffff1673ffffffffffffffffffffffffffffffffffffffff1681526020019081526020016000206000838152602001908152602001600020612cb0565b612484600360008573ffffffffffffffffffffffffffffffffffffffff1673ffffffffffffffffffffffffffffffffffffffff1681526020019081526020016000206000838152602001908152602001600020612cd3565b8260016000848152602001908152602001600020600083815260200190815260200160002060006101000a81548173ffffffffffffffffffffffffffffffffffffffff021916908373ffffffffffffffffffffffffffffffffffffffff1602179055508273ffffffffffffffffffffffffffffffffffffffff168473ffffffffffffffffffffffffffffffffffffffff163373ffffffffffffffffffffffffffffffffffffffff167f1b3d7edb2e9c0b0e7c525b20aaaef0f5940d2ed71663c7d39266ecafac7288598585604051808381526020018281526020019250505060405180910390a450505050565b60006125da60016008600085815260200190815260200160002060008773ffffffffffffffffffffffffffffffffffffffff1673ffffffffffffffffffffffffffffffffffffffff16815260200190815260200160002080549050612ce990919063ffffffff16565b9050600060096000848152602001908152602001600020600085815260200190815260200160002054905081811415156127115760006008600085815260200190815260200160002060008773ffffffffffffffffffffffffffffffffffffffff1673ffffffffffffffffffffffffffffffffffffffff1681526020019081526020016000208381548110151561266d57fe5b90600052602060002001549050806008600086815260200190815260200160002060008873ffffffffffffffffffffffffffffffffffffffff1673ffffffffffffffffffffffffffffffffffffffff168152602001908152602001600020838154811015156126d857fe5b90600052602060002001819055508160096000868152602001908152602001600020600083815260200190815260200160002081905550505b6008600084815260200190815260200160002060008673ffffffffffffffffffffffffffffffffffffffff1673ffffffffffffffffffffffffffffffffffffffff1681526020019081526020016000208054809190600190036127749190612d74565b505050505050565b6008600082815260200190815260200160002060008473ffffffffffffffffffffffffffffffffffffffff1673ffffffffffffffffffffffffffffffffffffffff16815260200190815260200160002080549050600960008381526020019081526020016000206000848152602001908152602001600020819055506008600082815260200190815260200160002060008473ffffffffffffffffffffffffffffffffffffffff1673ffffffffffffffffffffffffffffffffffffffff168152602001908152602001600020829080600181540180825580915050906001820390600052602060002001600090919290919091505550505050565b600080823b905060008111915050919050565b60006128ab8573ffffffffffffffffffffffffffffffffffffffff16612877565b15156128ba5760019050612ae5565b60008573ffffffffffffffffffffffffffffffffffffffff16631c14516233898888886040518663ffffffff167c0100000000000000000000000000000000000000000000000000000000028152600401808673ffffffffffffffffffffffffffffffffffffffff1673ffffffffffffffffffffffffffffffffffffffff1681526020018573ffffffffffffffffffffffffffffffffffffffff1673ffffffffffffffffffffffffffffffffffffffff16815260200184815260200183815260200180602001828103825283818151815260200191508051906020019080838360005b838110156129b857808201518184015260208101905061299d565b50505050905090810190601f1680156129e55780820380516001836020036101000a031916815260200191505b509650505050505050602060405180830381600087803b158015612a0857600080fd5b505af1158015612a1c573d6000803e3d6000fd5b505050506040513d6020811015612a3257600080fd5b8101908080519060200190929190505050905060405180807f6f6e45524358526563656976656428616464726573732c616464726573732c7581526020017f696e743235362c62797465732900000000000000000000000000000000000000815250602d01905060405180910390207bffffffffffffffffffffffffffffffffffffffffffffffffffffffff1916817bffffffffffffffffffffffffffffffffffffffffffffffffffffffff1916149150505b95945050505050565b600073ffffffffffffffffffffffffffffffffffffffff1660026000848152602001908152602001600020600083815260200190815260200160002060009054906101000a900473ffffffffffffffffffffffffffffffffffffffff1673ffffffffffffffffffffffffffffffffffffffff16141515612bcd57600060026000848152602001908152602001600020600083815260200190815260200160002060006101000a81548173ffffffffffffffffffffffffffffffffffffffff021916908373ffffffffffffffffffffffffffffffffffffffff1602179055505b600073ffffffffffffffffffffffffffffffffffffffff1660056000848152602001908152602001600020600083815260200190815260200160002060009054906101000a900473ffffffffffffffffffffffffffffffffffffffff1673ffffffffffffffffffffffffffffffffffffffff16141515612cac57600060056000848152602001908152602001600020600083815260200190815260200160002060006101000a81548173ffffffffffffffffffffffffffffffffffffffff021916908373ffffffffffffffffffffffffffffffffffffffff1602179055505b5050565b612cc860018260000154612ce990919063ffffffff16565b816000018190555050565b6001816000016000828254019250508190555050565b6000828211151515612d63576040517f08c379a000000000000000000000000000000000000000000000000000000000815260040180806020018281038252601e8152602001807f536166654d6174683a207375627472616374696f6e206f766572666c6f77000081525060200191505060405180910390fd5b600082840390508091505092915050565b815481835581811115612d9b57818360005260206000209182019101612d9a9190612da0565b5b505050565b612dc291905b80821115612dbe576000816000905550600101612da6565b5090565b9056fea165627a7a72305820f861e9de9e5380af37f061de1e6f5364e7316763db40ab40ec39dc98f7b6a5620029",
  "source": "\npragma solidity ^0.5.0;\n\nimport './ERCXEnumerable.sol';\nimport './ERCXMetadata.sol';\nimport './ERCX721fier.sol';\n\ncontract ERCXFull is ERCX, ERCXEnumerable, ERCXMetadata, ERCX721fier {\n  constructor(string memory name, string memory symbol) ERCXMetadata(name, symbol)\n    public\n  {\n  }\n}\n\n",
  "sourcePath": "/Users/kohshiba/Desktop/Deed/ERCX/contracts/ERCX/Contract/ERCXFull.sol",
  "compiler": {
    "name": "solc",
    "version": "0.5.0+commit.1d4f565a.Emscripten.clang"
  },
  "schemaVersion": "3.0.1",
  "updatedAt": "2019-11-30T03:58:21.972Z",
  "devdoc": {
    "methods": {
      "approveTransfer(address,uint256,uint256)": {
        "details": "Approves another address to transfer the given item ID The zero address indicates there is no approved address. There can only be one approved address per item at a given time. Can only be called by the item owner or an approved operator.",
        "params": {
          "itemId": "uint256 ID of the item to be approved",
          "layer": "uint256 number to specify the layer",
          "to": "address to be approved for the given item ID"
        }
      },
      "approveTransferLimitFor(address,uint256,uint256)": {
        "details": "Approves another address to suspend the transfer right of the given item ID The zero address indicates there is no approved address. There can only be one approved address per item at a given time. Can only be called by the item owner or an approved operator.",
        "params": {
          "itemId": "uint256 ID of the item to be approved",
          "layer": "uint256 number to specify the layer",
          "to": "address to be approved for the given item ID"
        }
      },
      "balanceOf(address,uint256)": {
        "details": "Gets the balance of the specified address",
        "params": {
          "layer": "uint256 number to specify the layer",
          "owner": "address to query the balance of"
        },
        "return": "uint256 representing the amount of items owned by the passed address in the specified layer"
      },
      "getApprovedTransfer(uint256,uint256)": {
        "details": "Gets the approved address for a item ID, or zero if no address set Reverts if the item ID does not exist.",
        "params": {
          "itemId": "uint256 ID of the item to query the approval of",
          "layer": "uint256 number to specify the layer"
        },
        "return": "address currently approved for the given item ID"
      },
      "getApprovedTransferLimit(uint256,uint256)": {
        "details": "Gets the approved address for suspension for transfer a item ID, or zero if no address set Reverts if the item ID does not exist.",
        "params": {
          "itemId": "uint256 ID of the item to query the approval of",
          "layer": "uint256 number to specify the layer"
        },
        "return": "address currently approved for the given item ID"
      },
      "isApprovedForAll(address,address)": {
        "details": "Tells whether an operator is approved by a given owner",
        "params": {
          "operator": "operator address which you want to query the approval of",
          "owner": "owner address which you want to query the approval of"
        },
        "return": "bool whether the given operator is approved by the given owner"
      },
      "itemByIndex(uint256)": {
        "details": "Gets the item ID at a given index of all the items in this contract Reverts if the index is greater or equal to the total number of items",
        "params": {
          "index": "uint256 representing the index to be accessed of the items list"
        },
        "return": "uint256 item ID at the given index of the items list"
      },
      "itemOfOwnerByIndex(address,uint256,uint256)": {
        "details": "Gets the item ID at a given index of the items list of the requested owner",
        "params": {
          "index": "uint256 representing the index to be accessed of the requested items list",
          "layer": "uint256 number to specify the layer",
          "owner": "address owning the items list to be accessed"
        },
        "return": "uint256 item ID at the given index of the items list owned by the requested address"
      },
      "itemURI(uint256)": {
        "details": "Returns an URI for a given item ID Throws if the item ID does not exist. May return an empty string.",
        "params": {
          "itemId": "uint256 ID of the item to query"
        }
      },
      "name()": {
        "details": "Gets the item name",
        "return": "string representing the item name"
      },
      "ownerOf(uint256,uint256)": {
        "details": "Gets the owner of the specified item ID",
        "params": {
          "itemId": "uint256 ID of the item to query the owner of",
          "layer": "uint256 number to specify the layer"
        },
        "return": "owner address currently marked as the owner of the given item ID in the specified layer"
      },
      "revokeTransferLimitFor(uint256,uint256)": {
        "details": "Revole the limitation of transferability of the specified item.   * Requires the msg sender to be the setter of the limitation",
        "params": {
          "itemId": "uint256 ID of the item to be transferred",
          "layer": "uint256 number to specify the layer"
        }
      },
      "safeTransferFrom(address,address,uint256,uint256)": {
        "details": "Safely transfers the ownership of a given item ID to another address If the target address is a contract, it must implement `onERCXReceived`, which is called upon a safe transfer, and return the magic value `bytes4(keccak256(\"onERCXReceived(address,address,uint256,bytes)\"))`; otherwise, the transfer is reverted.   * Requires the msg sender to be the owner, approved, or operator",
        "params": {
          "from": "current owner of the item",
          "itemId": "uint256 ID of the item to be transferred",
          "layer": "uint256 number to specify the layer",
          "to": "address to receive the ownership of the given item ID"
        }
      },
      "safeTransferFrom(address,address,uint256,uint256,bytes)": {
        "details": "Safely transfers the ownership of a given item ID to another address If the target address is a contract, it must implement `onERCXReceived`, which is called upon a safe transfer, and return the magic value `bytes4(keccak256(\"onERCXReceived(address,address,uint256,bytes)\"))`; otherwise, the transfer is reverted. Requires the msg sender to be the owner, approved, or operator",
        "params": {
          "data": "bytes data to send along with a safe transfer check",
          "from": "current owner of the item",
          "itemId": "uint256 ID of the item to be transferred",
          "layer": "uint256 number to specify the layer",
          "to": "address to receive the ownership of the given item ID"
        }
      },
      "setApprovalForAll(address,bool)": {
        "details": "Sets or unsets the approval of a given operator An operator is allowed to transfer all items of the sender on their behalf",
        "params": {
          "approved": "representing the status of the approval to be set",
          "to": "operator address to set the approval"
        }
      },
      "setTransferLimitFor(uint256,uint256)": {
        "details": "Limit the transferability of the specified item. msg.sender should be permitted by either owner or so(super owner)",
        "params": {
          "itemId": "uint256 ID of the item to be transferred",
          "layer": "uint256 number to specify the layer"
        }
      },
      "superOf(uint256,uint256)": {
        "details": "Gets the upper layer address of the owner of the specified item ID",
        "params": {
          "itemId": "uint256 ID of the item to query the owner of",
          "layer": "uint256 number to specify the layer"
        },
        "return": "the upper layer address currently marked as the owner of the given item ID in the specified layer"
      },
      "supportsInterface(bytes4)": {
        "details": "See `IERC165.supportsInterface`.     * Time complexity O(1), guaranteed to always use less than 30 000 gas."
      },
      "symbol()": {
        "details": "Gets the item symbol",
        "return": "string representing the item symbol"
      },
      "totalNumberOfItems()": {
        "details": "Gets the total amount of items stored by the contract",
        "return": "uint256 representing the total amount of items"
      }
    }
  },
  "userdoc": {
    "methods": {}
  }
}