{
  "contractName": "Sample",
  "abi": [
    {
      "constant": true,
      "inputs": [
        {
          "name": "owner",
          "type": "address"
        },
        {
          "name": "layer",
          "type": "uint256"
        }
      ],
      "name": "balanceOf",
      "outputs": [
        {
          "name": "",
          "type": "uint256"
        }
      ],
      "payable": false,
      "stateMutability": "view",
      "type": "function"
    },
    {
      "constant": true,
      "inputs": [
        {
          "name": "interfaceId",
          "type": "bytes4"
        }
      ],
      "name": "supportsInterface",
      "outputs": [
        {
          "name": "",
          "type": "bool"
        }
      ],
      "payable": false,
      "stateMutability": "view",
      "type": "function"
    },
    {
      "constant": true,
      "inputs": [],
      "name": "mintingFinished",
      "outputs": [
        {
          "name": "",
          "type": "bool"
        }
      ],
      "payable": false,
      "stateMutability": "view",
      "type": "function"
    },
    {
      "constant": true,
      "inputs": [],
      "name": "name",
      "outputs": [
        {
          "name": "",
          "type": "string"
        }
      ],
      "payable": false,
      "stateMutability": "view",
      "type": "function"
    },
    {
      "constant": true,
      "inputs": [
        {
          "name": "itemId",
          "type": "uint256"
        }
      ],
      "name": "getApproved",
      "outputs": [
        {
          "name": "",
          "type": "address"
        }
      ],
      "payable": false,
      "stateMutability": "view",
      "type": "function"
    },
    {
      "constant": false,
      "inputs": [
        {
          "name": "to",
          "type": "address"
        },
        {
          "name": "itemId",
          "type": "uint256"
        }
      ],
      "name": "approve",
      "outputs": [],
      "payable": false,
      "stateMutability": "nonpayable",
      "type": "function"
    },
    {
      "constant": false,
      "inputs": [
        {
          "name": "from",
          "type": "address"
        },
        {
          "name": "to",
          "type": "address"
        },
        {
          "name": "itemId",
          "type": "uint256"
        },
        {
          "name": "layer",
          "type": "uint256"
        }
      ],
      "name": "safeTransferFrom",
      "outputs": [],
      "payable": false,
      "stateMutability": "nonpayable",
      "type": "function"
    },
    {
      "constant": true,
      "inputs": [
        {
          "name": "index",
          "type": "uint256"
        }
      ],
      "name": "itemByIndex",
      "outputs": [
        {
          "name": "",
          "type": "uint256"
        }
      ],
      "payable": false,
      "stateMutability": "view",
      "type": "function"
    },
    {
      "constant": true,
      "inputs": [
        {
          "name": "itemId",
          "type": "uint256"
        },
        {
          "name": "layer",
          "type": "uint256"
        }
      ],
      "name": "getApprovedTransfer",
      "outputs": [
        {
          "name": "",
          "type": "address"
        }
      ],
      "payable": false,
      "stateMutability": "view",
      "type": "function"
    },
    {
      "constant": false,
      "inputs": [
        {
          "name": "from",
          "type": "address"
        },
        {
          "name": "to",
          "type": "address"
        },
        {
          "name": "itemId",
          "type": "uint256"
        }
      ],
      "name": "transferFrom",
      "outputs": [],
      "payable": false,
      "stateMutability": "nonpayable",
      "type": "function"
    },
    {
      "constant": false,
      "inputs": [
        {
          "name": "to",
          "type": "address"
        },
        {
          "name": "itemId",
          "type": "uint256"
        }
      ],
      "name": "mint",
      "outputs": [
        {
          "name": "",
          "type": "bool"
        }
      ],
      "payable": false,
      "stateMutability": "nonpayable",
      "type": "function"
    },
    {
      "constant": false,
      "inputs": [
        {
          "name": "from",
          "type": "address"
        },
        {
          "name": "to",
          "type": "address"
        },
        {
          "name": "itemId",
          "type": "uint256"
        }
      ],
      "name": "safeTransferFrom",
      "outputs": [],
      "payable": false,
      "stateMutability": "nonpayable",
      "type": "function"
    },
    {
      "constant": false,
      "inputs": [
        {
          "name": "to",
          "type": "address"
        },
        {
          "name": "itemId",
          "type": "uint256"
        },
        {
          "name": "itemURI",
          "type": "string"
        }
      ],
      "name": "mintWithItemURI",
      "outputs": [
        {
          "name": "",
          "type": "bool"
        }
      ],
      "payable": false,
      "stateMutability": "nonpayable",
      "type": "function"
    },
    {
      "constant": false,
      "inputs": [
        {
          "name": "to",
          "type": "address"
        },
        {
          "name": "itemId",
          "type": "uint256"
        },
        {
          "name": "layer",
          "type": "uint256"
        }
      ],
      "name": "approveTransferLimitFor",
      "outputs": [],
      "payable": false,
      "stateMutability": "nonpayable",
      "type": "function"
    },
    {
      "constant": true,
      "inputs": [
        {
          "name": "itemId",
          "type": "uint256"
        }
      ],
      "name": "ownerOf",
      "outputs": [
        {
          "name": "",
          "type": "address"
        }
      ],
      "payable": false,
      "stateMutability": "view",
      "type": "function"
    },
    {
      "constant": false,
      "inputs": [
        {
          "name": "itemId",
          "type": "uint256"
        },
        {
          "name": "layer",
          "type": "uint256"
        }
      ],
      "name": "setTransferLimitFor",
      "outputs": [],
      "payable": false,
      "stateMutability": "nonpayable",
      "type": "function"
    },
    {
      "constant": true,
      "inputs": [],
      "name": "totalNumberOfItems",
      "outputs": [
        {
          "name": "",
          "type": "uint256"
        }
      ],
      "payable": false,
      "stateMutability": "view",
      "type": "function"
    },
    {
      "constant": true,
      "inputs": [
        {
          "name": "owner",
          "type": "address"
        }
      ],
      "name": "balanceOf",
      "outputs": [
        {
          "name": "",
          "type": "uint256"
        }
      ],
      "payable": false,
      "stateMutability": "view",
      "type": "function"
    },
    {
      "constant": false,
      "inputs": [],
      "name": "finishMinting",
      "outputs": [
        {
          "name": "",
          "type": "bool"
        }
      ],
      "payable": false,
      "stateMutability": "nonpayable",
      "type": "function"
    },
    {
      "constant": true,
      "inputs": [],
      "name": "symbol",
      "outputs": [
        {
          "name": "",
          "type": "string"
        }
      ],
      "payable": false,
      "stateMutability": "view",
      "type": "function"
    },
    {
      "constant": false,
      "inputs": [
        {
          "name": "account",
          "type": "address"
        }
      ],
      "name": "addMinter",
      "outputs": [],
      "payable": false,
      "stateMutability": "nonpayable",
      "type": "function"
    },
    {
      "constant": false,
      "inputs": [],
      "name": "renounceMinter",
      "outputs": [],
      "payable": false,
      "stateMutability": "nonpayable",
      "type": "function"
    },
    {
      "constant": false,
      "inputs": [
        {
          "name": "itemId",
          "type": "uint256"
        },
        {
          "name": "layer",
          "type": "uint256"
        }
      ],
      "name": "revokeTransferLimitFor",
      "outputs": [],
      "payable": false,
      "stateMutability": "nonpayable",
      "type": "function"
    },
    {
      "constant": false,
      "inputs": [
        {
          "name": "to",
          "type": "address"
        },
        {
          "name": "approved",
          "type": "bool"
        }
      ],
      "name": "setApprovalForAll",
      "outputs": [],
      "payable": false,
      "stateMutability": "nonpayable",
      "type": "function"
    },
    {
      "constant": false,
      "inputs": [
        {
          "name": "to",
          "type": "address"
        },
        {
          "name": "itemId",
          "type": "uint256"
        },
        {
          "name": "layer",
          "type": "uint256"
        }
      ],
      "name": "approveTransfer",
      "outputs": [],
      "payable": false,
      "stateMutability": "nonpayable",
      "type": "function"
    },
    {
      "constant": true,
      "inputs": [
        {
          "name": "account",
          "type": "address"
        }
      ],
      "name": "isMinter",
      "outputs": [
        {
          "name": "",
          "type": "bool"
        }
      ],
      "payable": false,
      "stateMutability": "view",
      "type": "function"
    },
    {
      "constant": true,
      "inputs": [
        {
          "name": "itemId",
          "type": "uint256"
        }
      ],
      "name": "itemURI",
      "outputs": [
        {
          "name": "",
          "type": "string"
        }
      ],
      "payable": false,
      "stateMutability": "view",
      "type": "function"
    },
    {
      "constant": true,
      "inputs": [
        {
          "name": "itemId",
          "type": "uint256"
        },
        {
          "name": "layer",
          "type": "uint256"
        }
      ],
      "name": "superOf",
      "outputs": [
        {
          "name": "",
          "type": "address"
        }
      ],
      "payable": false,
      "stateMutability": "view",
      "type": "function"
    },
    {
      "constant": false,
      "inputs": [
        {
          "name": "from",
          "type": "address"
        },
        {
          "name": "to",
          "type": "address"
        },
        {
          "name": "itemId",
          "type": "uint256"
        },
        {
          "name": "data",
          "type": "bytes"
        }
      ],
      "name": "safeTransferFrom",
      "outputs": [],
      "payable": false,
      "stateMutability": "nonpayable",
      "type": "function"
    },
    {
      "constant": true,
      "inputs": [
        {
          "name": "owner",
          "type": "address"
        },
        {
          "name": "layer",
          "type": "uint256"
        },
        {
          "name": "index",
          "type": "uint256"
        }
      ],
      "name": "itemOfOwnerByIndex",
      "outputs": [
        {
          "name": "",
          "type": "uint256"
        }
      ],
      "payable": false,
      "stateMutability": "view",
      "type": "function"
    },
    {
      "constant": true,
      "inputs": [
        {
          "name": "itemId",
          "type": "uint256"
        },
        {
          "name": "layer",
          "type": "uint256"
        }
      ],
      "name": "getApprovedTransferLimit",
      "outputs": [
        {
          "name": "",
          "type": "address"
        }
      ],
      "payable": false,
      "stateMutability": "view",
      "type": "function"
    },
    {
      "constant": true,
      "inputs": [
        {
          "name": "itemId",
          "type": "uint256"
        },
        {
          "name": "layer",
          "type": "uint256"
        }
      ],
      "name": "ownerOf",
      "outputs": [
        {
          "name": "",
          "type": "address"
        }
      ],
      "payable": false,
      "stateMutability": "view",
      "type": "function"
    },
    {
      "constant": true,
      "inputs": [
        {
          "name": "owner",
          "type": "address"
        },
        {
          "name": "operator",
          "type": "address"
        }
      ],
      "name": "isApprovedForAll",
      "outputs": [
        {
          "name": "",
          "type": "bool"
        }
      ],
      "payable": false,
      "stateMutability": "view",
      "type": "function"
    },
    {
      "constant": false,
      "inputs": [
        {
          "name": "from",
          "type": "address"
        },
        {
          "name": "to",
          "type": "address"
        },
        {
          "name": "itemId",
          "type": "uint256"
        },
        {
          "name": "layer",
          "type": "uint256"
        },
        {
          "name": "data",
          "type": "bytes"
        }
      ],
      "name": "safeTransferFrom",
      "outputs": [],
      "payable": false,
      "stateMutability": "nonpayable",
      "type": "function"
    },
    {
      "inputs": [
        {
          "name": "name",
          "type": "string"
        },
        {
          "name": "symbol",
          "type": "string"
        }
      ],
      "payable": false,
      "stateMutability": "nonpayable",
      "type": "constructor"
    },
    {
      "anonymous": false,
      "inputs": [],
      "name": "MintingFinished",
      "type": "event"
    },
    {
      "anonymous": false,
      "inputs": [
        {
          "indexed": true,
          "name": "account",
          "type": "address"
        }
      ],
      "name": "MinterAdded",
      "type": "event"
    },
    {
      "anonymous": false,
      "inputs": [
        {
          "indexed": true,
          "name": "account",
          "type": "address"
        }
      ],
      "name": "MinterRemoved",
      "type": "event"
    },
    {
      "anonymous": false,
      "inputs": [
        {
          "indexed": true,
          "name": "operator",
          "type": "address"
        },
        {
          "indexed": true,
          "name": "from",
          "type": "address"
        },
        {
          "indexed": true,
          "name": "to",
          "type": "address"
        },
        {
          "indexed": false,
          "name": "itemId",
          "type": "uint256"
        },
        {
          "indexed": false,
          "name": "layer",
          "type": "uint256"
        }
      ],
      "name": "Transfer",
      "type": "event"
    },
    {
      "anonymous": false,
      "inputs": [
        {
          "indexed": true,
          "name": "operator",
          "type": "address"
        },
        {
          "indexed": true,
          "name": "itemId",
          "type": "uint256"
        },
        {
          "indexed": true,
          "name": "layer",
          "type": "uint256"
        },
        {
          "indexed": false,
          "name": "satus",
          "type": "bool"
        }
      ],
      "name": "TransferLimitSet",
      "type": "event"
    },
    {
      "anonymous": false,
      "inputs": [
        {
          "indexed": true,
          "name": "owner",
          "type": "address"
        },
        {
          "indexed": true,
          "name": "approved",
          "type": "address"
        },
        {
          "indexed": false,
          "name": "itemId",
          "type": "uint256"
        },
        {
          "indexed": false,
          "name": "layer",
          "type": "uint256"
        }
      ],
      "name": "ApprovalTransfer",
      "type": "event"
    },
    {
      "anonymous": false,
      "inputs": [
        {
          "indexed": true,
          "name": "owner",
          "type": "address"
        },
        {
          "indexed": true,
          "name": "operator",
          "type": "address"
        },
        {
          "indexed": false,
          "name": "approved",
          "type": "bool"
        }
      ],
      "name": "ApprovalForAll",
      "type": "event"
    },
    {
      "anonymous": false,
      "inputs": [
        {
          "indexed": true,
          "name": "owner",
          "type": "address"
        },
        {
          "indexed": true,
          "name": "approved",
          "type": "address"
        },
        {
          "indexed": false,
          "name": "itemId",
          "type": "uint256"
        },
        {
          "indexed": false,
          "name": "layer",
          "type": "uint256"
        }
      ],
      "name": "ApprovalTransferLimit",
      "type": "event"
    },
    {
      "anonymous": false,
      "inputs": [
        {
          "indexed": true,
          "name": "from",
          "type": "address"
        },
        {
          "indexed": true,
          "name": "to",
          "type": "address"
        },
        {
          "indexed": true,
          "name": "tokenId",
          "type": "uint256"
        }
      ],
      "name": "Transfer",
      "type": "event"
    },
    {
      "anonymous": false,
      "inputs": [
        {
          "indexed": true,
          "name": "owner",
          "type": "address"
        },
        {
          "indexed": true,
          "name": "approved",
          "type": "address"
        },
        {
          "indexed": true,
          "name": "tokenId",
          "type": "uint256"
        }
      ],
      "name": "Approval",
      "type": "event"
    }
  ],
  "bytecode": "0x60806040526000601060006101000a81548160ff0219169083151502179055503480156200002c57600080fd5b506040516200451b3803806200451b833981018060405260408110156200005257600080fd5b8101908080516401000000008111156200006b57600080fd5b828101905060208101848111156200008257600080fd5b8151856001820283011164010000000082111715620000a057600080fd5b50509291906020018051640100000000811115620000bd57600080fd5b82810190506020810184811115620000d457600080fd5b8151856001820283011164010000000082111715620000f257600080fd5b50509291905050508181818181816200013d6301ffc9a77c010000000000000000000000000000000000000000000000000000000002620007dd640100000000026401000000009004565b6200059c60405180807f7265766f6b655472616e736665724c696d6974466f722875696e743235362cc281526020017fa075696e743235362900000000000000000000000000000000000000000000008152506029019050604051809103902060405180807f7365745472616e736665724c696d6974466f722875696e743235362cc2a0756981526020017f6e743235362900000000000000000000000000000000000000000000000000008152506026019050604051809103902060405180807f676574417070726f7665645472616e736665724c696d69742875696e7432353681526020017f2cc2a075696e7432353629000000000000000000000000000000000000000000815250602b019050604051809103902060405180807f617070726f76655472616e736665724c696d6974466f7228616464726573732c81526020017fc2a075696e743235362cc2a075696e74323536290000000000000000000000008152506034019050604051809103902060405180807f6973417070726f766564466f72416c6c28616464726573732cc2a0616464726581526020017f73732900000000000000000000000000000000000000000000000000000000008152506023019050604051809103902060405180807f736574417070726f76616c466f72416c6c28616464726573732cc2a0626f6f6c81526020017f29000000000000000000000000000000000000000000000000000000000000008152506021019050604051809103902060405180807f676574417070726f7665645472616e736665722875696e743235362cc2a0756981526020017f6e743235362900000000000000000000000000000000000000000000000000008152506026019050604051809103902060405180807f617070726f76655472616e7366657228616464726573732cc2a075696e74323581526020017f362cc2a075696e74323536290000000000000000000000000000000000000000815250602c019050604051809103902060405180807f736166655472616e7366657246726f6d28616464726573732cc2a0616464726581526020017f73732cc2a075696e743235362cc2a075696e743235362cc2a062797465732900815250603f019050604051809103902060405180807f736166655472616e7366657246726f6d28616464726573732cc2a0616464726581526020017f73732cc2a075696e743235362cc2a075696e74323536290000000000000000008152506037019050604051809103902060405180807f73757065724f662875696e743235362cc2a075696e7432353629000000000000815250601a019050604051809103902060405180807f6f776e65724f662875696e743235362cc2a075696e7432353629000000000000815250601a019050604051809103902060405180807f62616c616e63654f6628616464726573732cc2a075696e743235362900000000815250601c0190506040518091039020181818181818181818181818620007dd640100000000026401000000009004565b6200067f60405180807f6974656d4279496e6465782875696e74323536290000000000000000000000008152506014019050604051809103902060405180807f6974656d4f664f776e65724279496e64657828616464726573732c75696e743281526020017f35362c75696e7432353629000000000000000000000000000000000000000000815250602b019050604051809103902060405180807f746f74616c4e756d6265724f664974656d732829000000000000000000000000815250601401905060405180910390201818620007dd640100000000026401000000009004565b81600c9080519060200190620006979291906200099f565b5080600d9080519060200190620006b09291906200099f565b506200076e60405180807f6974656d5552492875696e7432353629000000000000000000000000000000008152506010019050604051809103902060405180807f73796d626f6c28290000000000000000000000000000000000000000000000008152506008019050604051809103902060405180807f6e616d6528290000000000000000000000000000000000000000000000000000815250600601905060405180910390201818620007dd640100000000026401000000009004565b5050620007ad6380ac58cd7c010000000000000000000000000000000000000000000000000000000002620007dd640100000000026401000000009004565b5050620007d333600f62000904640100000000026200253f179091906401000000009004565b5050505062000a4e565b63ffffffff7c010000000000000000000000000000000000000000000000000000000002817bffffffffffffffffffffffffffffffffffffffffffffffffffffffff19161415151562000898576040517f08c379a000000000000000000000000000000000000000000000000000000000815260040180806020018281038252601c8152602001807f4552433136353a20696e76616c696420696e746572666163652069640000000081525060200191505060405180910390fd5b6001600080837bffffffffffffffffffffffffffffffffffffffffffffffffffffffff19167bffffffffffffffffffffffffffffffffffffffffffffffffffffffff1916815260200190815260200160002060006101000a81548160ff02191690831515021790555050565b600073ffffffffffffffffffffffffffffffffffffffff168173ffffffffffffffffffffffffffffffffffffffff16141515156200094157600080fd5b60018260000160008373ffffffffffffffffffffffffffffffffffffffff1673ffffffffffffffffffffffffffffffffffffffff16815260200190815260200160002060006101000a81548160ff0219169083151502179055505050565b828054600181600116156101000203166002900490600052602060002090601f016020900481019282601f10620009e257805160ff191683800117855562000a13565b8280016001018555821562000a13579182015b8281111562000a12578251825591602001919060010190620009f5565b5b50905062000a22919062000a26565b5090565b62000a4b91905b8082111562000a4757600081600090555060010162000a2d565b5090565b90565b613abd8062000a5e6000396000f3fe6080604052600436106101ab576000357c0100000000000000000000000000000000000000000000000000000000900463ffffffff168062fdd58e146101b057806301ffc9a71461021f57806305d2035b1461029157806306fdde03146102c0578063081812fc14610350578063095ea7b3146103cb5780630febdd4914610426578063173cc522146104ab57806321d89132146104fa57806323b872dd1461057f57806340c10f19146105fa57806342842e0e1461066d5780634532e07e146106e85780634eeb9599146107f25780636352211e146108575780636aeae077146108d257806370324f2b1461091757806370a08231146109425780637d64bcb4146109a757806395d89b41146109d6578063983b2d5614610a665780639865027514610ab75780639dc1c61614610ace578063a22cb46514610b13578063a4fdae9e14610b70578063aa271e1a14610bd5578063acb35dc714610c3e578063b4f453eb14610cf2578063b88d4fde14610d77578063befc6f9914610e89578063c34e2af214610f02578063d9dad80d14610f87578063e985e9c51461100c578063f242432a14611095575b600080fd5b3480156101bc57600080fd5b50610209600480360360408110156101d357600080fd5b81019080803573ffffffffffffffffffffffffffffffffffffffff169060200190929190803590602001909291905050506111b1565b6040518082815260200191505060405180910390f35b34801561022b57600080fd5b506102776004803603602081101561024257600080fd5b8101908080357bffffffffffffffffffffffffffffffffffffffffffffffffffffffff19169060200190929190505050611254565b604051808215151515815260200191505060405180910390f35b34801561029d57600080fd5b506102a66112bb565b604051808215151515815260200191505060405180910390f35b3480156102cc57600080fd5b506102d56112d2565b6040518080602001828103825283818151815260200191508051906020019080838360005b838110156103155780820151818401526020810190506102fa565b50505050905090810190601f1680156103425780820380516001836020036101000a031916815260200191505b509250505060405180910390f35b34801561035c57600080fd5b506103896004803603602081101561037357600080fd5b8101908080359060200190929190505050611374565b604051808273ffffffffffffffffffffffffffffffffffffffff1673ffffffffffffffffffffffffffffffffffffffff16815260200191505060405180910390f35b3480156103d757600080fd5b50610424600480360360408110156103ee57600080fd5b81019080803573ffffffffffffffffffffffffffffffffffffffff16906020019092919080359060200190929190505050611388565b005b34801561043257600080fd5b506104a96004803603608081101561044957600080fd5b81019080803573ffffffffffffffffffffffffffffffffffffffff169060200190929190803573ffffffffffffffffffffffffffffffffffffffff1690602001909291908035906020019092919080359060200190929190505050611401565b005b3480156104b757600080fd5b506104e4600480360360208110156104ce57600080fd5b8101908080359060200190929190505050611424565b6040518082815260200191505060405180910390f35b34801561050657600080fd5b5061053d6004803603604081101561051d57600080fd5b81019080803590602001909291908035906020019092919050505061145c565b604051808273ffffffffffffffffffffffffffffffffffffffff1673ffffffffffffffffffffffffffffffffffffffff16815260200191505060405180910390f35b34801561058b57600080fd5b506105f8600480360360608110156105a257600080fd5b81019080803573ffffffffffffffffffffffffffffffffffffffff169060200190929190803573ffffffffffffffffffffffffffffffffffffffff169060200190929190803590602001909291905050506114c0565b005b34801561060657600080fd5b506106536004803603604081101561061d57600080fd5b81019080803573ffffffffffffffffffffffffffffffffffffffff169060200190929190803590602001909291905050506114d2565b604051808215151515815260200191505060405180910390f35b34801561067957600080fd5b506106e66004803603606081101561069057600080fd5b81019080803573ffffffffffffffffffffffffffffffffffffffff169060200190929190803573ffffffffffffffffffffffffffffffffffffffff16906020019092919080359060200190929190505050611518565b005b3480156106f457600080fd5b506107d86004803603606081101561070b57600080fd5b81019080803573ffffffffffffffffffffffffffffffffffffffff169060200190929190803590602001909291908035906020019064010000000081111561075257600080fd5b82018360208201111561076457600080fd5b8035906020019184600183028401116401000000008311171561078657600080fd5b91908080601f016020809104026020016040519081016040528093929190818152602001838380828437600081840152601f19601f820116905080830192505050505050509192919290505050611539565b604051808215151515815260200191505060405180910390f35b3480156107fe57600080fd5b506108556004803603606081101561081557600080fd5b81019080803573ffffffffffffffffffffffffffffffffffffffff169060200190929190803590602001909291908035906020019092919050505061158b565b005b34801561086357600080fd5b506108906004803603602081101561087a57600080fd5b8101908080359060200190929190505050611782565b604051808273ffffffffffffffffffffffffffffffffffffffff1673ffffffffffffffffffffffffffffffffffffffff16815260200191505060405180910390f35b3480156108de57600080fd5b50610915600480360360408110156108f557600080fd5b810190808035906020019092919080359060200190929190505050611796565b005b34801561092357600080fd5b5061092c611927565b6040518082815260200191505060405180910390f35b34801561094e57600080fd5b506109916004803603602081101561096557600080fd5b81019080803573ffffffffffffffffffffffffffffffffffffffff169060200190929190505050611934565b6040518082815260200191505060405180910390f35b3480156109b357600080fd5b506109bc611948565b604051808215151515815260200191505060405180910390f35b3480156109e257600080fd5b506109eb6119c8565b6040518080602001828103825283818151815260200191508051906020019080838360005b83811015610a2b578082015181840152602081019050610a10565b50505050905090810190601f168015610a585780820380516001836020036101000a031916815260200191505b509250505060405180910390f35b348015610a7257600080fd5b50610ab560048036036020811015610a8957600080fd5b81019080803573ffffffffffffffffffffffffffffffffffffffff169060200190929190505050611a6a565b005b348015610ac357600080fd5b50610acc611ad8565b005b348015610ada57600080fd5b50610b1160048036036040811015610af157600080fd5b810190808035906020019092919080359060200190929190505050611aee565b005b348015610b1f57600080fd5b50610b6e60048036036040811015610b3657600080fd5b81019080803573ffffffffffffffffffffffffffffffffffffffff169060200190929190803515159060200190929190505050611c82565b005b348015610b7c57600080fd5b50610bd360048036036060811015610b9357600080fd5b81019080803573ffffffffffffffffffffffffffffffffffffffff1690602001909291908035906020019092919080359060200190929190505050611dbe565b005b348015610be157600080fd5b50610c2460048036036020811015610bf857600080fd5b81019080803573ffffffffffffffffffffffffffffffffffffffff169060200190929190505050611f28565b604051808215151515815260200191505060405180910390f35b348015610c4a57600080fd5b50610c7760048036036020811015610c6157600080fd5b8101908080359060200190929190505050611f45565b6040518080602001828103825283818151815260200191508051906020019080838360005b83811015610cb7578082015181840152602081019050610c9c565b50505050905090810190601f168015610ce45780820380516001836020036101000a031916815260200191505b509250505060405180910390f35b348015610cfe57600080fd5b50610d3560048036036040811015610d1557600080fd5b810190808035906020019092919080359060200190929190505050612010565b604051808273ffffffffffffffffffffffffffffffffffffffff1673ffffffffffffffffffffffffffffffffffffffff16815260200191505060405180910390f35b348015610d8357600080fd5b50610e8760048036036080811015610d9a57600080fd5b81019080803573ffffffffffffffffffffffffffffffffffffffff169060200190929190803573ffffffffffffffffffffffffffffffffffffffff1690602001909291908035906020019092919080359060200190640100000000811115610e0157600080fd5b820183602082011115610e1357600080fd5b80359060200191846001830284011164010000000083111715610e3557600080fd5b91908080601f016020809104026020016040519081016040528093929190818152602001838380828437600081840152601f19601f820116905080830192505050505050509192919290505050612035565b005b348015610e9557600080fd5b50610eec60048036036060811015610eac57600080fd5b81019080803573ffffffffffffffffffffffffffffffffffffffff16906020019092919080359060200190929190803590602001909291905050506120ec565b6040518082815260200191505060405180910390f35b348015610f0e57600080fd5b50610f4560048036036040811015610f2557600080fd5b810190808035906020019092919080359060200190929190505050612176565b604051808273ffffffffffffffffffffffffffffffffffffffff1673ffffffffffffffffffffffffffffffffffffffff16815260200191505060405180910390f35b348015610f9357600080fd5b50610fca60048036036040811015610faa57600080fd5b8101908080359060200190929190803590602001909291905050506121da565b604051808273ffffffffffffffffffffffffffffffffffffffff1673ffffffffffffffffffffffffffffffffffffffff16815260200191505060405180910390f35b34801561101857600080fd5b5061107b6004803603604081101561102f57600080fd5b81019080803573ffffffffffffffffffffffffffffffffffffffff169060200190929190803573ffffffffffffffffffffffffffffffffffffffff16906020019092919050505061226a565b604051808215151515815260200191505060405180910390f35b3480156110a157600080fd5b506111af600480360360a08110156110b857600080fd5b81019080803573ffffffffffffffffffffffffffffffffffffffff169060200190929190803573ffffffffffffffffffffffffffffffffffffffff16906020019092919080359060200190929190803590602001909291908035906020019064010000000081111561112957600080fd5b82018360208201111561113b57600080fd5b8035906020019184600183028401116401000000008311171561115d57600080fd5b91908080601f016020809104026020016040519081016040528093929190818152602001838380828437600081840152601f19601f8201169050808301925050505050505091929192905050506122fe565b005b60008073ffffffffffffffffffffffffffffffffffffffff168373ffffffffffffffffffffffffffffffffffffffff16141515156111ee57600080fd5b6000611248600360008673ffffffffffffffffffffffffffffffffffffffff1673ffffffffffffffffffffffffffffffffffffffff1681526020019081526020016000206000858152602001908152602001600020612328565b90508091505092915050565b6000806000837bffffffffffffffffffffffffffffffffffffffffffffffffffffffff19167bffffffffffffffffffffffffffffffffffffffffffffffffffffffff1916815260200190815260200160002060009054906101000a900460ff169050919050565b6000601060009054906101000a900460ff16905090565b6060600c8054600181600116156101000203166002900480601f01602080910402602001604051908101604052809291908181526020018280546001816001161561010002031660029004801561136a5780601f1061133f5761010080835404028352916020019161136a565b820191906000526020600020905b81548152906001019060200180831161134d57829003601f168201915b5050505050905090565b600061138182600161145c565b9050919050565b600061139382611782565b90506113a183836001611dbe565b818373ffffffffffffffffffffffffffffffffffffffff168273ffffffffffffffffffffffffffffffffffffffff167f8c5be1e5ebec7d5bd14f71427d1e84f3dd0314c0f7b2291e5b200ac8c7c3b92560405160405180910390a4505050565b61141e8484848460206040519081016040528060008152506122fe565b50505050565b600061142e611927565b8210151561143b57600080fd5b600a8281548110151561144a57fe5b90600052602060002001549050919050565b60006114688383612336565b151561147357600080fd5b60026000848152602001908152602001600020600083815260200190815260200160002060009054906101000a900473ffffffffffffffffffffffffffffffffffffffff16905092915050565b6114cd83838360016123ba565b505050565b60006114dd33611f28565b15156114e857600080fd5b601060009054906101000a900460ff1615151561150457600080fd5b61150e83836123e2565b6001905092915050565b6115348383836020604051908101604052806000815250612035565b505050565b600061154433611f28565b151561154f57600080fd5b601060009054906101000a900460ff1615151561156b57600080fd5b61157584846114d2565b50611580838361241d565b600190509392505050565b600061159783836121da565b905060006115a58484612010565b90508173ffffffffffffffffffffffffffffffffffffffff168573ffffffffffffffffffffffffffffffffffffffff1614158061160e57508073ffffffffffffffffffffffffffffffffffffffff168573ffffffffffffffffffffffffffffffffffffffff1614155b151561161957600080fd5b8173ffffffffffffffffffffffffffffffffffffffff163373ffffffffffffffffffffffffffffffffffffffff16148061167e57508073ffffffffffffffffffffffffffffffffffffffff163373ffffffffffffffffffffffffffffffffffffffff16145b8061168f575061168e823361226a565b5b806116a0575061169f813361226a565b5b15156116ab57600080fd5b8460056000868152602001908152602001600020600085815260200190815260200160002060006101000a81548173ffffffffffffffffffffffffffffffffffffffff021916908373ffffffffffffffffffffffffffffffffffffffff1602179055508473ffffffffffffffffffffffffffffffffffffffff168273ffffffffffffffffffffffffffffffffffffffff167f8b1ad3e71a0ec93ec04e081864706fc2ec210a392f687c69eb6ef2b48a07475e8686604051808381526020018281526020019250505060405180910390a35050505050565b600061178f8260016121da565b9050919050565b6117a0828261245f565b15156117ab57600080fd5b60006117b783836121da565b905060006117c58484612010565b90506117d18484612176565b73ffffffffffffffffffffffffffffffffffffffff163373ffffffffffffffffffffffffffffffffffffffff161480611810575061180f823361226a565b5b806118215750611820813361226a565b5b151561182c57600080fd5b600060066000868152602001908152602001600020600085815260200190815260200160002060006101000a81548160ff0219169083151502179055503360076000868152602001908152602001600020600085815260200190815260200160002060006101000a81548173ffffffffffffffffffffffffffffffffffffffff021916908373ffffffffffffffffffffffffffffffffffffffff16021790555082843373ffffffffffffffffffffffffffffffffffffffff167f2514331937ebcc84179b9aa52d73834b71963727fd1ea5d8234ee6da14e623686001604051808215151515815260200191505060405180910390a450505050565b6000600a80549050905090565b60006119418260016111b1565b9050919050565b600061195333611f28565b151561195e57600080fd5b601060009054906101000a900460ff1615151561197a57600080fd5b6001601060006101000a81548160ff0219169083151502179055507fb828d9b5c78095deeeeff2eca2e5d4fe046ce3feb4c99702624a3fd384ad2dbc60405160405180910390a16001905090565b6060600d8054600181600116156101000203166002900480601f016020809104026020016040519081016040528092919081815260200182805460018160011615610100020316600290048015611a605780601f10611a3557610100808354040283529160200191611a60565b820191906000526020600020905b815481529060010190602001808311611a4357829003601f168201915b5050505050905090565b611a7333611f28565b1515611a7e57600080fd5b611a9281600f61253f90919063ffffffff16565b8073ffffffffffffffffffffffffffffffffffffffff167f6ae172837ea30b801fbfcdd4108aa1d5bf8ff775444fd70256b44e6bf3dfc3f660405160405180910390a250565b611aec33600f6125d990919063ffffffff16565b565b611af8828261245f565b151515611b0457600080fd5b600060076000848152602001908152602001600020600083815260200190815260200160002060009054906101000a900473ffffffffffffffffffffffffffffffffffffffff1690508073ffffffffffffffffffffffffffffffffffffffff163373ffffffffffffffffffffffffffffffffffffffff16141515611b8757600080fd5b600160066000858152602001908152602001600020600084815260200190815260200160002060006101000a81548160ff021916908315150217905550600060076000858152602001908152602001600020600084815260200190815260200160002060006101000a81548173ffffffffffffffffffffffffffffffffffffffff021916908373ffffffffffffffffffffffffffffffffffffffff16021790555081833373ffffffffffffffffffffffffffffffffffffffff167f2514331937ebcc84179b9aa52d73834b71963727fd1ea5d8234ee6da14e623686000604051808215151515815260200191505060405180910390a4505050565b3373ffffffffffffffffffffffffffffffffffffffff168273ffffffffffffffffffffffffffffffffffffffff1614151515611cbd57600080fd5b80600460003373ffffffffffffffffffffffffffffffffffffffff1673ffffffffffffffffffffffffffffffffffffffff16815260200190815260200160002060008473ffffffffffffffffffffffffffffffffffffffff1673ffffffffffffffffffffffffffffffffffffffff16815260200190815260200160002060006101000a81548160ff0219169083151502179055508173ffffffffffffffffffffffffffffffffffffffff163373ffffffffffffffffffffffffffffffffffffffff167f17307eab39ab6107e8899845ad3d59bd9653f200f220920489ca2b5937696c3183604051808215151515815260200191505060405180910390a35050565b6000611dca83836121da565b90508073ffffffffffffffffffffffffffffffffffffffff168473ffffffffffffffffffffffffffffffffffffffff1614151515611e0757600080fd5b8073ffffffffffffffffffffffffffffffffffffffff163373ffffffffffffffffffffffffffffffffffffffff161480611e475750611e46813361226a565b5b1515611e5257600080fd5b8360026000858152602001908152602001600020600084815260200190815260200160002060006101000a81548173ffffffffffffffffffffffffffffffffffffffff021916908373ffffffffffffffffffffffffffffffffffffffff1602179055508373ffffffffffffffffffffffffffffffffffffffff168173ffffffffffffffffffffffffffffffffffffffff167fe3d5109fb748529f5f25558d2ca2990867f9c97e6cd0038e06be2afe6538449c8585604051808381526020018281526020019250505060405180910390a350505050565b6000611f3e82600f61267390919063ffffffff16565b9050919050565b6060611f52826001612336565b1515611f5d57600080fd5b600e60008381526020019081526020016000208054600181600116156101000203166002900480601f0160208091040260200160405190810160405280929190818152602001828054600181600116156101000203166002900480156120045780601f10611fd957610100808354040283529160200191612004565b820191906000526020600020905b815481529060010190602001808311611fe757829003601f168201915b50505050509050919050565b600080828060010193509050600061202885836121da565b9050809250505092915050565b6120408484846114c0565b61204c84848484612707565b15156120e6576040517f08c379a00000000000000000000000000000000000000000000000000000000081526004018080602001828103825260328152602001807f4552433732313a207472616e7366657220746f206e6f6e20455243373231526581526020017f63656976657220696d706c656d656e746572000000000000000000000000000081525060400191505060405180910390fd5b50505050565b60006120f884846111b1565b8210151561210557600080fd5b6008600084815260200190815260200160002060008573ffffffffffffffffffffffffffffffffffffffff1673ffffffffffffffffffffffffffffffffffffffff1681526020019081526020016000208281548110151561216257fe5b906000526020600020015490509392505050565b60006121828383612336565b151561218d57600080fd5b60056000848152602001908152602001600020600083815260200190815260200160002060009054906101000a900473ffffffffffffffffffffffffffffffffffffffff16905092915050565b60008060016000858152602001908152602001600020600084815260200190815260200160002060009054906101000a900473ffffffffffffffffffffffffffffffffffffffff169050600073ffffffffffffffffffffffffffffffffffffffff168173ffffffffffffffffffffffffffffffffffffffff161415151561226057600080fd5b8091505092915050565b6000600460008473ffffffffffffffffffffffffffffffffffffffff1673ffffffffffffffffffffffffffffffffffffffff16815260200190815260200160002060008373ffffffffffffffffffffffffffffffffffffffff1673ffffffffffffffffffffffffffffffffffffffff16815260200190815260200160002060009054906101000a900460ff16905092915050565b61230933848461292a565b151561231457600080fd5b6123218585858585612a2e565b5050505050565b600081600001549050919050565b60008060016000858152602001908152602001600020600084815260200190815260200160002060009054906101000a900473ffffffffffffffffffffffffffffffffffffffff169050600073ffffffffffffffffffffffffffffffffffffffff168173ffffffffffffffffffffffffffffffffffffffff16141591505092915050565b6123c684848484612a59565b6123d1848383612c7f565b6123dc838383612e8a565b50505050565b6123ec8282612f85565b6123f882826001612e8a565b61240482826002612e8a565b61241082826003612e8a565b61241981613477565b5050565b612428826001612336565b151561243357600080fd5b80600e6000848152602001908152602001600020908051906020019061245a9291906139c0565b505050565b600061246b8383612336565b1515612505576040517f08c379a00000000000000000000000000000000000000000000000000000000081526004018080602001828103825260298152602001807f455243583a206f70657261746f7220717565727920666f72206e6f6e6578697381526020017f74656e74206974656d000000000000000000000000000000000000000000000081525060400191505060405180910390fd5b60066000848152602001908152602001600020600083815260200190815260200160002060009054906101000a900460ff16905092915050565b600073ffffffffffffffffffffffffffffffffffffffff168173ffffffffffffffffffffffffffffffffffffffff161415151561257b57600080fd5b60018260000160008373ffffffffffffffffffffffffffffffffffffffff1673ffffffffffffffffffffffffffffffffffffffff16815260200190815260200160002060006101000a81548160ff0219169083151502179055505050565b600073ffffffffffffffffffffffffffffffffffffffff168173ffffffffffffffffffffffffffffffffffffffff161415151561261557600080fd5b60008260000160008373ffffffffffffffffffffffffffffffffffffffff1673ffffffffffffffffffffffffffffffffffffffff16815260200190815260200160002060006101000a81548160ff0219169083151502179055505050565b60008073ffffffffffffffffffffffffffffffffffffffff168273ffffffffffffffffffffffffffffffffffffffff16141515156126b057600080fd5b8260000160008373ffffffffffffffffffffffffffffffffffffffff1673ffffffffffffffffffffffffffffffffffffffff16815260200190815260200160002060009054906101000a900460ff16905092915050565b60006127288473ffffffffffffffffffffffffffffffffffffffff166134c3565b15156127375760019050612922565b60008473ffffffffffffffffffffffffffffffffffffffff1663150b7a02338887876040518563ffffffff167c0100000000000000000000000000000000000000000000000000000000028152600401808573ffffffffffffffffffffffffffffffffffffffff1673ffffffffffffffffffffffffffffffffffffffff1681526020018473ffffffffffffffffffffffffffffffffffffffff1673ffffffffffffffffffffffffffffffffffffffff16815260200183815260200180602001828103825283818151815260200191508051906020019080838360005b8381101561282e578082015181840152602081019050612813565b50505050905090810190601f16801561285b5780820380516001836020036101000a031916815260200191505b5095505050505050602060405180830381600087803b15801561287d57600080fd5b505af1158015612891573d6000803e3d6000fd5b505050506040513d60208110156128a757600080fd5b8101908080519060200190929190505050905063150b7a027c0100000000000000000000000000000000000000000000000000000000027bffffffffffffffffffffffffffffffffffffffffffffffffffffffff1916817bffffffffffffffffffffffffffffffffffffffffffffffffffffffff1916149150505b949350505050565b60006129368383612336565b151561294157600080fd5b600061294d84846121da565b9050600061295b8585612010565b90508173ffffffffffffffffffffffffffffffffffffffff168673ffffffffffffffffffffffffffffffffffffffff1614806129c257508073ffffffffffffffffffffffffffffffffffffffff168673ffffffffffffffffffffffffffffffffffffffff16145b80612a0157508573ffffffffffffffffffffffffffffffffffffffff166129e9868661145c565b73ffffffffffffffffffffffffffffffffffffffff16145b80612a125750612a11828761226a565b5b80612a235750612a22818761226a565b5b925050509392505050565b612a3a858585856123ba565b612a4785858585856134d6565b1515612a5257600080fd5b5050505050565b8373ffffffffffffffffffffffffffffffffffffffff16612a7a83836121da565b73ffffffffffffffffffffffffffffffffffffffff16141515612a9c57600080fd5b600073ffffffffffffffffffffffffffffffffffffffff168373ffffffffffffffffffffffffffffffffffffffff1614151515612ad857600080fd5b612ae2828261373a565b612b3a600360008673ffffffffffffffffffffffffffffffffffffffff1673ffffffffffffffffffffffffffffffffffffffff16815260200190815260200160002060008381526020019081526020016000206138fc565b612b92600360008573ffffffffffffffffffffffffffffffffffffffff1673ffffffffffffffffffffffffffffffffffffffff168152602001908152602001600020600083815260200190815260200160002061391f565b8260016000848152602001908152602001600020600083815260200190815260200160002060006101000a81548173ffffffffffffffffffffffffffffffffffffffff021916908373ffffffffffffffffffffffffffffffffffffffff1602179055508273ffffffffffffffffffffffffffffffffffffffff168473ffffffffffffffffffffffffffffffffffffffff163373ffffffffffffffffffffffffffffffffffffffff167f1b3d7edb2e9c0b0e7c525b20aaaef0f5940d2ed71663c7d39266ecafac7288598585604051808381526020018281526020019250505060405180910390a450505050565b6000612ce860016008600085815260200190815260200160002060008773ffffffffffffffffffffffffffffffffffffffff1673ffffffffffffffffffffffffffffffffffffffff1681526020019081526020016000208054905061393590919063ffffffff16565b905060006009600084815260200190815260200160002060008581526020019081526020016000205490508181141515612e1f5760006008600085815260200190815260200160002060008773ffffffffffffffffffffffffffffffffffffffff1673ffffffffffffffffffffffffffffffffffffffff16815260200190815260200160002083815481101515612d7b57fe5b90600052602060002001549050806008600086815260200190815260200160002060008873ffffffffffffffffffffffffffffffffffffffff1673ffffffffffffffffffffffffffffffffffffffff16815260200190815260200160002083815481101515612de657fe5b90600052602060002001819055508160096000868152602001908152602001600020600083815260200190815260200160002081905550505b6008600084815260200190815260200160002060008673ffffffffffffffffffffffffffffffffffffffff1673ffffffffffffffffffffffffffffffffffffffff168152602001908152602001600020805480919060019003612e829190613a40565b505050505050565b6008600082815260200190815260200160002060008473ffffffffffffffffffffffffffffffffffffffff1673ffffffffffffffffffffffffffffffffffffffff16815260200190815260200160002080549050600960008381526020019081526020016000206000848152602001908152602001600020819055506008600082815260200190815260200160002060008473ffffffffffffffffffffffffffffffffffffffff1673ffffffffffffffffffffffffffffffffffffffff168152602001908152602001600020829080600181540180825580915050906001820390600052602060002001600090919290919091505550505050565b600073ffffffffffffffffffffffffffffffffffffffff168273ffffffffffffffffffffffffffffffffffffffff161415151561302a576040517f08c379a000000000000000000000000000000000000000000000000000000000815260040180806020018281038252601e8152602001807f455243583a206d696e7420746f20746865207a65726f2061646472657373000081525060200191505060405180910390fd5b613035816001612336565b1515156130aa576040517f08c379a00000000000000000000000000000000000000000000000000000000081526004018080602001828103825260198152602001807f455243583a206974656d20616c7265616479206d696e7465640000000000000081525060200191505060405180910390fd5b816001600083815260200190815260200160002060006001815260200190815260200160002060006101000a81548173ffffffffffffffffffffffffffffffffffffffff021916908373ffffffffffffffffffffffffffffffffffffffff160217905550816001600083815260200190815260200160002060006002815260200190815260200160002060006101000a81548173ffffffffffffffffffffffffffffffffffffffff021916908373ffffffffffffffffffffffffffffffffffffffff160217905550816001600083815260200190815260200160002060006003815260200190815260200160002060006101000a81548173ffffffffffffffffffffffffffffffffffffffff021916908373ffffffffffffffffffffffffffffffffffffffff16021790555061322f600360008473ffffffffffffffffffffffffffffffffffffffff1673ffffffffffffffffffffffffffffffffffffffff16815260200190815260200160002060006001815260200190815260200160002061391f565b613288600360008473ffffffffffffffffffffffffffffffffffffffff1673ffffffffffffffffffffffffffffffffffffffff16815260200190815260200160002060006002815260200190815260200160002061391f565b6132e1600360008473ffffffffffffffffffffffffffffffffffffffff1673ffffffffffffffffffffffffffffffffffffffff16815260200190815260200160002060006003815260200190815260200160002061391f565b8173ffffffffffffffffffffffffffffffffffffffff16600073ffffffffffffffffffffffffffffffffffffffff163373ffffffffffffffffffffffffffffffffffffffff167f1b3d7edb2e9c0b0e7c525b20aaaef0f5940d2ed71663c7d39266ecafac728859846001604051808381526020018281526020019250505060405180910390a48173ffffffffffffffffffffffffffffffffffffffff16600073ffffffffffffffffffffffffffffffffffffffff163373ffffffffffffffffffffffffffffffffffffffff167f1b3d7edb2e9c0b0e7c525b20aaaef0f5940d2ed71663c7d39266ecafac728859846002604051808381526020018281526020019250505060405180910390a48173ffffffffffffffffffffffffffffffffffffffff16600073ffffffffffffffffffffffffffffffffffffffff163373ffffffffffffffffffffffffffffffffffffffff167f1b3d7edb2e9c0b0e7c525b20aaaef0f5940d2ed71663c7d39266ecafac728859846003604051808381526020018281526020019250505060405180910390a45050565b600a80549050600b600083815260200190815260200160002081905550600a81908060018154018082558091505090600182039060005260206000200160009091929091909150555050565b600080823b905060008111915050919050565b60006134f78573ffffffffffffffffffffffffffffffffffffffff166134c3565b15156135065760019050613731565b60008573ffffffffffffffffffffffffffffffffffffffff16631c14516233898888886040518663ffffffff167c0100000000000000000000000000000000000000000000000000000000028152600401808673ffffffffffffffffffffffffffffffffffffffff1673ffffffffffffffffffffffffffffffffffffffff1681526020018573ffffffffffffffffffffffffffffffffffffffff1673ffffffffffffffffffffffffffffffffffffffff16815260200184815260200183815260200180602001828103825283818151815260200191508051906020019080838360005b838110156136045780820151818401526020810190506135e9565b50505050905090810190601f1680156136315780820380516001836020036101000a031916815260200191505b509650505050505050602060405180830381600087803b15801561365457600080fd5b505af1158015613668573d6000803e3d6000fd5b505050506040513d602081101561367e57600080fd5b8101908080519060200190929190505050905060405180807f6f6e45524358526563656976656428616464726573732c616464726573732c7581526020017f696e743235362c62797465732900000000000000000000000000000000000000815250602d01905060405180910390207bffffffffffffffffffffffffffffffffffffffffffffffffffffffff1916817bffffffffffffffffffffffffffffffffffffffffffffffffffffffff1916149150505b95945050505050565b600073ffffffffffffffffffffffffffffffffffffffff1660026000848152602001908152602001600020600083815260200190815260200160002060009054906101000a900473ffffffffffffffffffffffffffffffffffffffff1673ffffffffffffffffffffffffffffffffffffffff1614151561381957600060026000848152602001908152602001600020600083815260200190815260200160002060006101000a81548173ffffffffffffffffffffffffffffffffffffffff021916908373ffffffffffffffffffffffffffffffffffffffff1602179055505b600073ffffffffffffffffffffffffffffffffffffffff1660056000848152602001908152602001600020600083815260200190815260200160002060009054906101000a900473ffffffffffffffffffffffffffffffffffffffff1673ffffffffffffffffffffffffffffffffffffffff161415156138f857600060056000848152602001908152602001600020600083815260200190815260200160002060006101000a81548173ffffffffffffffffffffffffffffffffffffffff021916908373ffffffffffffffffffffffffffffffffffffffff1602179055505b5050565b6139146001826000015461393590919063ffffffff16565b816000018190555050565b6001816000016000828254019250508190555050565b60008282111515156139af576040517f08c379a000000000000000000000000000000000000000000000000000000000815260040180806020018281038252601e8152602001807f536166654d6174683a207375627472616374696f6e206f766572666c6f77000081525060200191505060405180910390fd5b600082840390508091505092915050565b828054600181600116156101000203166002900490600052602060002090601f016020900481019282601f10613a0157805160ff1916838001178555613a2f565b82800160010185558215613a2f579182015b82811115613a2e578251825591602001919060010190613a13565b5b509050613a3c9190613a6c565b5090565b815481835581811115613a6757818360005260206000209182019101613a669190613a6c565b5b505050565b613a8e91905b80821115613a8a576000816000905550600101613a72565b5090565b9056fea165627a7a72305820c0fde3c23f905498c34680ff2361db0942cd99223e8b394ee0e0ef305607c1430029",
  "source": "pragma solidity ^0.5.0;\n\nimport './ERCX/Contract/ERCXMintable.sol';\n\ncontract Sample is ERCXMintable {\n  constructor(string memory name, string memory symbol) ERCXMintable(name, symbol)\n    public\n  {\n  }\n}\n",
  "sourcePath": "/Users/kohshiba/Desktop/Deed/ERCX/contracts/Sample.sol",
  "compiler": {
    "name": "solc",
    "version": "0.5.0+commit.1d4f565a.Emscripten.clang"
  },
  "schemaVersion": "3.0.1",
  "updatedAt": "2019-11-30T04:10:12.750Z",
  "devdoc": {
    "methods": {
      "approveTransfer(address,uint256,uint256)": {
        "details": "Approves another address to transfer the given item ID The zero address indicates there is no approved address. There can only be one approved address per item at a given time. Can only be called by the item owner or an approved operator.",
        "params": {
          "itemId": "uint256 ID of the item to be approved",
          "layer": "uint256 number to specify the layer",
          "to": "address to be approved for the given item ID"
        }
      },
      "approveTransferLimitFor(address,uint256,uint256)": {
        "details": "Approves another address to suspend the transfer right of the given item ID The zero address indicates there is no approved address. There can only be one approved address per item at a given time. Can only be called by the item owner or an approved operator.",
        "params": {
          "itemId": "uint256 ID of the item to be approved",
          "layer": "uint256 number to specify the layer",
          "to": "address to be approved for the given item ID"
        }
      },
      "balanceOf(address,uint256)": {
        "details": "Gets the balance of the specified address",
        "params": {
          "layer": "uint256 number to specify the layer",
          "owner": "address to query the balance of"
        },
        "return": "uint256 representing the amount of items owned by the passed address in the specified layer"
      },
      "finishMinting()": {
        "details": "Function to stop minting new items.",
        "return": "True if the operation was successful."
      },
      "getApprovedTransfer(uint256,uint256)": {
        "details": "Gets the approved address for a item ID, or zero if no address set Reverts if the item ID does not exist.",
        "params": {
          "itemId": "uint256 ID of the item to query the approval of",
          "layer": "uint256 number to specify the layer"
        },
        "return": "address currently approved for the given item ID"
      },
      "getApprovedTransferLimit(uint256,uint256)": {
        "details": "Gets the approved address for suspension for transfer a item ID, or zero if no address set Reverts if the item ID does not exist.",
        "params": {
          "itemId": "uint256 ID of the item to query the approval of",
          "layer": "uint256 number to specify the layer"
        },
        "return": "address currently approved for the given item ID"
      },
      "isApprovedForAll(address,address)": {
        "details": "Tells whether an operator is approved by a given owner",
        "params": {
          "operator": "operator address which you want to query the approval of",
          "owner": "owner address which you want to query the approval of"
        },
        "return": "bool whether the given operator is approved by the given owner"
      },
      "itemByIndex(uint256)": {
        "details": "Gets the item ID at a given index of all the items in this contract Reverts if the index is greater or equal to the total number of items",
        "params": {
          "index": "uint256 representing the index to be accessed of the items list"
        },
        "return": "uint256 item ID at the given index of the items list"
      },
      "itemOfOwnerByIndex(address,uint256,uint256)": {
        "details": "Gets the item ID at a given index of the items list of the requested owner",
        "params": {
          "index": "uint256 representing the index to be accessed of the requested items list",
          "layer": "uint256 number to specify the layer",
          "owner": "address owning the items list to be accessed"
        },
        "return": "uint256 item ID at the given index of the items list owned by the requested address"
      },
      "itemURI(uint256)": {
        "details": "Returns an URI for a given item ID Throws if the item ID does not exist. May return an empty string.",
        "params": {
          "itemId": "uint256 ID of the item to query"
        }
      },
      "mint(address,uint256)": {
        "details": "Function to mint items",
        "params": {
          "itemId": "The item id to mint.",
          "to": "The address that will receive the minted items."
        },
        "return": "A boolean that indicates if the operation was successful."
      },
      "mintingFinished()": {
        "return": "true if the minting is finished."
      },
      "name()": {
        "details": "Gets the item name",
        "return": "string representing the item name"
      },
      "ownerOf(uint256,uint256)": {
        "details": "Gets the owner of the specified item ID",
        "params": {
          "itemId": "uint256 ID of the item to query the owner of",
          "layer": "uint256 number to specify the layer"
        },
        "return": "owner address currently marked as the owner of the given item ID in the specified layer"
      },
      "revokeTransferLimitFor(uint256,uint256)": {
        "details": "Revole the limitation of transferability of the specified item.   * Requires the msg sender to be the setter of the limitation",
        "params": {
          "itemId": "uint256 ID of the item to be transferred",
          "layer": "uint256 number to specify the layer"
        }
      },
      "safeTransferFrom(address,address,uint256,uint256)": {
        "details": "Safely transfers the ownership of a given item ID to another address If the target address is a contract, it must implement `onERCXReceived`, which is called upon a safe transfer, and return the magic value `bytes4(keccak256(\"onERCXReceived(address,address,uint256,bytes)\"))`; otherwise, the transfer is reverted.   * Requires the msg sender to be the owner, approved, or operator",
        "params": {
          "from": "current owner of the item",
          "itemId": "uint256 ID of the item to be transferred",
          "layer": "uint256 number to specify the layer",
          "to": "address to receive the ownership of the given item ID"
        }
      },
      "safeTransferFrom(address,address,uint256,uint256,bytes)": {
        "details": "Safely transfers the ownership of a given item ID to another address If the target address is a contract, it must implement `onERCXReceived`, which is called upon a safe transfer, and return the magic value `bytes4(keccak256(\"onERCXReceived(address,address,uint256,bytes)\"))`; otherwise, the transfer is reverted. Requires the msg sender to be the owner, approved, or operator",
        "params": {
          "data": "bytes data to send along with a safe transfer check",
          "from": "current owner of the item",
          "itemId": "uint256 ID of the item to be transferred",
          "layer": "uint256 number to specify the layer",
          "to": "address to receive the ownership of the given item ID"
        }
      },
      "setApprovalForAll(address,bool)": {
        "details": "Sets or unsets the approval of a given operator An operator is allowed to transfer all items of the sender on their behalf",
        "params": {
          "approved": "representing the status of the approval to be set",
          "to": "operator address to set the approval"
        }
      },
      "setTransferLimitFor(uint256,uint256)": {
        "details": "Limit the transferability of the specified item. msg.sender should be permitted by either owner or so(super owner)",
        "params": {
          "itemId": "uint256 ID of the item to be transferred",
          "layer": "uint256 number to specify the layer"
        }
      },
      "superOf(uint256,uint256)": {
        "details": "Gets the upper layer address of the owner of the specified item ID",
        "params": {
          "itemId": "uint256 ID of the item to query the owner of",
          "layer": "uint256 number to specify the layer"
        },
        "return": "the upper layer address currently marked as the owner of the given item ID in the specified layer"
      },
      "supportsInterface(bytes4)": {
        "details": "See `IERC165.supportsInterface`.     * Time complexity O(1), guaranteed to always use less than 30 000 gas."
      },
      "symbol()": {
        "details": "Gets the item symbol",
        "return": "string representing the item symbol"
      },
      "totalNumberOfItems()": {
        "details": "Gets the total amount of items stored by the contract",
        "return": "uint256 representing the total amount of items"
      }
    }
  },
  "userdoc": {
    "methods": {}
  }
}